:100000000A128A150128F0000528831203130C1E1A
:100010000A280B2805280C2870089900080083126C
:100020000313A600F1012608A4002408F2000330FF
:10003000A5002508F30001300A168A155B240A1270
:100040008A1100300A168A15F1220A128A11CD305F
:10005000F9009130FA000A168A15F0230A128A1163
:1000600014300A168A15F1220A128A112C30F9006E
:100070009230FA000A168A15F0230A128A1100300B
:10008000F3000030F2001330F1008830F0000A165F
:100090008A15C0230A128A110A168A15D3240A1255
:1000A0008A1183120313D916D91957285828D22830
:1000B0000A168A15B2220A128A1100300A168A1507
:1000C000F1220A128A119B30F9009030FA000A16C8
:1000D0008A15F0230A128A1114300A168A15F122A1
:1000E0000A128A119A30F9009130FA000A168A151C
:1000F000F0230A128A11F101831203132608A400C7
:100100002408F2000330A5002508F30002300A1687
:100110008A155B240A128A110A168A15D3240A1238
:100120008A1183120313D91996289728D2280A1600
:100130008A15B2220A128A1100300A168A15F12293
:100140000A128A119B30F9009030FA000A168A15BB
:10015000F0230A128A1114300A168A15F1220A12A3
:100160008A11AB30F9009130FA000A168A15F02393
:100170000A128A11F101831203132608A40024082D
:10018000F2000330A5002508F30003300A168A1593
:100190005B240A128A110A168A15D3240A128A11BC
:1001A000D228D228080083120313D7015708F3007E
:1001B0007308F00044300A168A1522240A128A11A4
:1001C000831203135708013EF3007308F000413017
:1001D0000A168A1522240A128A1183120313570859
:1001E000023EF3007308F00059300A168A152224E3
:1001F0000A128A11831203135708033EF30073088F
:10020000F00031300A168A1522240A128A1183124C
:1002100003135708043EF3007308F000FF300A167A
:100220008A1522240A128A11831203135708053EE5
:10023000F3007308F000FF300A168A1522240A1210
:100240008A11831203135708063EF3007308F00067
:10025000FF300A168A1522240A128A118312031308
:100260005708073EF3007308F000FF300A168A159E
:1002700022240A128A11831203135708083EF3003E
:100280007308F000FF300A168A1522240A128A1118
:100290001030F300730883120313D7005708F300DC
:1002A0007308F00044300A168A1522240A128A11B3
:1002B000831203135708013EF3007308F000413026
:1002C0000A168A1522240A128A1183120313570868
:1002D000023EF3007308F00059300A168A152224F2
:1002E0000A128A11831203135708033EF30073089E
:1002F000F00032300A168A1522240A128A1183125B
:1003000003135708043EF3007308F000FF300A1689
:100310008A1522240A128A11831203135708053EF4
:10032000F3007308F000FF300A168A1522240A121F
:100330008A11831203135708063EF3007308F00076
:10034000FF300A168A1522240A128A118312031317
:100350005708073EF3007308F000FF300A168A15AD
:1003600022240A128A11831203135708083EF3004D
:100370007308F000FF300A168A1522240A128A1127
:100380002030F300730883120313D7005708F300DB
:100390007308F00044300A168A1522240A128A11C2
:1003A000831203135708013EF3007308F000413035
:1003B0000A168A1522240A128A1183120313570877
:1003C000023EF3007308F00059300A168A15222401
:1003D0000A128A11831203135708033EF3007308AD
:1003E000F00033300A168A1522240A128A11831269
:1003F00003135708043EF3007308F000FF300A1699
:100400008A1522240A128A11831203135708053E03
:10041000F3007308F000FF300A168A1522240A122E
:100420008A11831203135708063EF3007308F00085
:10043000FF300A168A1522240A128A118312031326
:100440005708073EF3007308F000FF300A168A15BC
:1004500022240A128A11831203135708083EF3005C
:100460007308F000FF300A168A1522240A128A1136
:100470003030F300730883120313D7005708F300DA
:100480007308F00044300A168A1522240A128A11D1
:10049000831203135708013EF3007308F000413044
:1004A0000A168A1522240A128A1183120313570886
:1004B000023EF3007308F00059300A168A15222410
:1004C0000A128A11831203135708033EF3007308BC
:1004D000F00034300A168A1522240A128A11831277
:1004E00003135708043EF3007308F000FF300A16A8
:1004F0008A1522240A128A11831203135708053E13
:10050000F3007308F000FF300A168A1522240A123D
:100510008A11831203135708063EF3007308F00094
:10052000FF300A168A1522240A128A118312031335
:100530005708073EF3007308F000FF300A168A15CB
:1005400022240A128A11831203135708083EF3006B
:100550007308F000FF300A168A1522240A128A1145
:100560004030F300730883120313D7005708F300D9
:100570007308F00044300A168A1522240A128A11E0
:10058000831203135708013EF3007308F000413053
:100590000A168A1522240A128A1183120313570895
:1005A000023EF3007308F00059300A168A1522241F
:1005B0000A128A11831203135708033EF3007308CB
:1005C000F00035300A168A1522240A128A11831285
:1005D00003135708043EF3007308F000FF300A16B7
:1005E0008A1522240A128A11831203135708053E22
:1005F000F3007308F000FF300A168A1522240A124D
:100600008A11831203135708063EF3007308F000A3
:10061000FF300A168A1522240A128A118312031344
:100620005708073EF3007308F000FF300A168A15DA
:1006300022240A128A11831203135708083EF3007A
:100640007308F000FF300A168A1522240A128A1154
:10065000080083120313CC004C08013A031D312B10
:10066000322B612C592C592C0519372B382B4F2B39
:100670003A2B3A2B051D3D2B3E2B3A2B3F2B0530B9
:100680005B020318442B452B4A2B0130CA004A0851
:10069000DB071C2CDB010314DB0D1C2C1C2C851927
:1006A000522B532B692B552B552B851D582B592B12
:1006B000552B5A2B02305B02031C5F2B602B632BE4
:1006C0000130DB021C2C0530CA004A08DB001C2C60
:1006D0001C2C051A6C2B6D2B1C2C0A168A15B222A9
:1006E0000A128A11831203138514762B051E792BA7
:1006F0007A2B762B7B2B5B08013A031D802B812BF9
:100700008C2BFF30CA004A08F0005B080A168A15D5
:1007100022240A128A11DB2B831203135B08023A8C
:10072000031D932B942B9F2BFF30CA004A08F00027
:100730005B080A168A1522240A128A11DB2B8312FF
:1007400003135B08033A031DA62BA72BB22BFF3024
:10075000CA004A08F0005B080A168A1522240A1209
:100760008A11DB2B831203135B08043A031DB92B98
:10077000BA2BC52BFF30CA004A08F0005B080A16E6
:100780008A1522240A128A11DB2B831203135B08B9
:10079000053A031DCC2BCD2BDB2BFF30CA004A08BA
:1007A000F0005B080A168A1522240A128A11DB2B34
:1007B000DB2BDB2BDB2B00300A168A15F1220A1209
:1007C0008A111930F9009230FA000A168A15F023BE
:1007D0000A128A1104300A168A15F1220A128A11A5
:1007E000831203135B08303E0A168A1573230A121C
:1007F0008A1114300A168A15F1220A128A117630EB
:10080000F9009230FA000A168A15F0230A128A11AA
:100810000030F3000330F2000D30F1004030F00002
:100820000A168A15C0230A128A118312031385102F
:1008300059151C2C1C2C1C2C00300A168A15F12270
:100840000A128A111030F9009230FA000A168A153D
:10085000F0230A128A110D300A168A15F1220A12A3
:100860008A11831203135B08303E0A168A1573231C
:100870000A128A110E300A168A15F1220A128A11FA
:10088000B130F9009230FA000A168A15F0230A12E4
:100890008A1114300A168A15F1220A128A1134308C
:1008A000F9009130FA000A168A15F0230A128A110B
:1008B000592C83120313591D5E2C5F2C342B5911B4
:1008C000FA2F4C08023A031D662C672CF62C0030D8
:1008D000F3000030F2002730F1001030F0000A166B
:1008E0008A15C0230A128A11EE2C00300A168A15C6
:1008F000F1220A128A11AC30F9009030FA000A167F
:100900008A15F0230A128A1114300A168A15F12268
:100910000A128A114D30F9009230FA000A168A152F
:10092000F0230A128A1119300A168A15F1220A12C6
:100930008A11831203135C08303E0A168A1573234A
:100940000A128A11831203130519A72CA82CBF2C95
:10095000AA2CAA2C051DAD2CAE2CAA2CAF2C053030
:100960005C020318B42CB52CBA2C0130CA004A081A
:10097000DC07EE2CDC010314DC0DEE2CEE2C8519CB
:10098000C22CC32CD92CC52CC52C851DC82CC92C18
:10099000C52CCA2C02305C02031CCF2CD02CD32CCB
:1009A0000130DC02EE2C0530CA004A08DC00EE2CD7
:1009B000EE2C051ADC2CDD2CEE2CDF2CDF2C051E9A
:1009C000E22CE32CDF2CE42C5C080A128A110F20A5
:1009D0000A128A11EE2CEE2CEE2CEE2C831203134D
:1009E000D91EF32CF42C752CFA2FFA2F4C08033A4D
:1009F000031DFB2CFC2CA92D0030F3000030F2006D
:100A00002730F1001030F0000A168A15C0230A12B0
:100A10008A11A12D00300A168A15F1220A128A11B4
:100A2000AC30F9009030FA000A168A15F0230A1249
:100A30008A1114300A168A15F1220A128A114D30D1
:100A4000F9009230FA000A168A15F0230A128A1168
:100A500019300A168A15F1220A128A118312031319
:100A60005C08303E0A168A1573230A128A11831213
:100A7000031305193C2D3D2D542D3F2D3F2D051DF4
:100A8000422D432D3F2D442D05305C020318492D86
:100A90004A2D4F2D0130CA004A08DC07A12DDC0188
:100AA0000314DC0DA12DA12D8519572D582D6E2D68
:100AB0005A2D5A2D851D5D2D5E2D5A2D5F2D02302C
:100AC0005C02031C642D652D682D0130DC02A12D14
:100AD0000530CA004A08DC00A12DA12D051A712D90
:100AE000722DA12D742D742D051E772D782D742D4A
:100AF000792DF1015C08CA004A08F2000330CB00EE
:100B00004B08F30004300A168A155B240A128A1176
:100B10000030F3000030F2000030F1000A30F00045
:100B20000A168A15C0230A128A110A168A15D324B6
:100B30000A128A1183120313D916A12DA12DA12DFA
:100B4000A12D83120313D91EA62DA72D0A2DFA2F2E
:100B5000FA2F4C08043A031DAE2DAF2D2D2EF101B6
:100B60005C08CA004A08F2000330CB004B08F300CF
:100B700005300A168A155B240A128A110030F30028
:100B80000030F2000030F1000A30F0000A168A1539
:100B9000C0230A128A110A168A15D3240A128A114E
:100BA00083120313D919D52DD62DFA2FD72D003046
:100BB0000A168A15F1220A128A11DE30F9009130E4
:100BC000FA000A168A15F0230A128A110030F3007F
:100BD0000330F2000D30F1004030F0000A168A15A3
:100BE000C0230A128A1100300A168A15F1220A124D
:100BF0008A116830F9009030FA000A168A15F0233D
:100C00000A128A1114300A168A15F1220A128A1160
:100C10005730F9009030FA000A168A15F0230A12AC
:100C20008A110030F3000330F2000D30F100403043
:100C3000F0000A168A15C0230A128A11FF300A1220
:100C40008A110F200A128A1183120313D919292E2F
:100C50002A2ED72DFA2FFA2FFA2F4C08053A031D0A
:100C6000322E332ED22E00300A168A15F1220A12A5
:100C70008A117830F9009130FA000A168A15F023AB
:100C80000A128A1114300A168A15F1220A128A11E0
:100C9000DF30F9009030FA000A168A15F0230A12A4
:100CA0008A110030F3000330F2000D30F1004030C3
:100CB000F0000A168A15C0230A128A110A168A152C
:100CC00094240A128A1183120313D919682E692EEB
:100CD000FA2F00300A168A15F1220A128A115330AF
:100CE000F9009230FA000A168A15F0230A128A11C6
:100CF0000030F3000030F200C330F1005030F0005B
:100D00000A168A15C0230A128A11F101FF308312D4
:100D10000313CA004A08F200F30104300A168A15C8
:100D20005B240A128A110A168A15D3240A128A1120
:100D300000300A168A15F1220A128A116830F90069
:100D40009030FA000A168A15F0230A128A1114301C
:100D50000A168A15F1220A128A115730F9009030CA
:100D6000FA000A168A15F0230A128A110030F300DD
:100D70000330F2000D30F1004030F0000A168A1501
:100D8000C0230A128A11FF300A128A110F200A1298
:100D90008A1183120313D919CE2ECF2E982EFA2F33
:100DA000FA2FFA2F4C08063A031DD72ED82EDE2E26
:100DB0000A168A1190230A128A11FA2F831203133A
:100DC0004C08073A031DE52EE62E1B2F85140A1248
:100DD0008A11D3200A128A1100300A168A15F122CC
:100DE0000A128A117930F9009030FA000A168A1531
:100DF000F0230A128A1114300A168A15F1220A12F7
:100E00008A113530F9009030FA000A168A15F0235D
:100E10000A128A110030F3000330F2000D30F100A5
:100E20004030F0000A168A15C0230A128A11831274
:100E300003138510FA2F4C08083A031D202F212F89
:100E4000FA2FEE2FEE2F00300A168A15F1220A1221
:100E50008A11BC30F9009130FA000A168A15F02385
:100E60000A128A1114300A168A15F1220A128A11FE
:100E70004530F9009130FA000A168A15F0230A125B
:100E80008A11831203130519462F472F982F492FD4
:100E9000492F051D4C2F4D2F492F4E2F0A168A150D
:100EA000B2220A128A1100300A168A15F1220A1299
:100EB0008A11BD30F9009030FA000A168A15F02325
:100EC0000A128A118312031305140030F300023052
:100ED000F2004930F100F030F0000A168A15C02304
:100EE0000A128A110A168A11AF250A128A111430C1
:100EF0000A168A15F1220A128A111330F90090306D
:100F0000FA000A168A15F0230A128A110030F3003B
:100F10000130F2008630F100A030F0000A168A1588
:100F2000C0230A128A118312031305105916982F31
:100F300085199B2F9C2FEE2F9E2F9E2F851DA12F55
:100F4000A22F9E2FA32F0A168A15B2220A128A11E7
:100F500000300A168A15F1220A128A11BD30F900F2
:100F60009030FA000A168A15F0230A128A118312A9
:100F7000031305140030F3000230F2004930F10091
:100F8000F030F0000A168A15C0230A128A110A12DC
:100F90008A15F2230A128A1114300A168A15F122D0
:100FA0000A128A111330F9009030FA000A168A15D5
:100FB000F0230A128A110030F3000130F20086306B
:100FC000F100A030F0000A168A15C0230A128A1117
:100FD0008312031305105916EE2FEE2F591EF12F11
:100FE000F22F232F5912FA2FFA2FFA2FFA2FFA2F56
:100FF000FA2FFA2F831203135913D912D9110800AB
:10100200D901CE01CF01D001D101D201D301D40146
:10101200D501D601D701D8018313C830FD001B309A
:10102200FE009830FF00A03084000A168A15A32221
:101032000A128A155E30FD001230FE00BB30FF003E
:101042005A3084000A168A15A3220A128A158301CD
:101052000A128A152C281C30831603138500860178
:101062008030870086309F0001300A168A154E2391
:101072000A128A1502300A168A154E230A128A1596
:1010820006300A168A154E230A128A150C300A16E1
:101092008A154E230A128A1538300A168A154E23EB
:1010A2000A128A1583120313851285100A168A15ED
:1010B200B2220A128A1500300A168A15F1220A1281
:1010C2008A153A30F9009230FA000A168A15F0238E
:1010D2000A128A1514300A168A15F1220A128A1582
:1010E200A530F9009230FA000A168A15F0230A1286
:1010F2008A150030F3000330F2000D30F100403069
:10110200F0000A168A15C0230A128A150A168A15D1
:10111200B2220A128A154030831603139900181559
:1011220098168312031318169817051999289A28E6
:10113200BC2885199D289E28BC280030F300013068
:10114200F2008630F100A030F0000A168A15C023A2
:101152000A128A15831203130519B028B128BC2874
:101162008519B428B528BC280A168A110B230A123D
:101172008A15BC28BC28F101103083120313CD005C
:101182004D08F200F3012E300A168A155B240A126A
:101192008A150030F3000030F2000030F1000A300E
:1011A200F0000A168A15C0230A128A150A168A1531
:1011B2002D230A128A15F101F2010314F20DF30133
:1011C2002D300A168A155B240A128A150030F300A4
:1011D2000030F2000030F1000A30F0000A168A15E1
:1011E200C0230A128A150A168A152D230A128A1595
:1011F20001300A168A15DB220A128A150A168A1586
:1012020013250A128A154E294E2900300A168A150C
:10121200F1220A128A152330F9009130FA000A16D7
:101222008A15F0230A128A1514300A168A15F12239
:101232000A128A150130F9009130FA000A168A154D
:10124200F0230A128A1583120313051929292A2960
:1012520040292C292C29051D2F2930292C293129F7
:101262000A168A1594240A128A1583120313D919AD
:101272003B293C294E29D914D9174E294E298519C3
:10128200432944294E2946294629851D49294A29A7
:101292004629D910D9174E294E2983120313D91F73
:1012A20053295429062955290A168A15B2220A12E7
:1012B2008A15692A05195E295F297629612961291A
:1012C200051D642965296129662908305D02031814
:1012D2006B296C2971290130CD004D08DD079E294B
:1012E200DD010314DD0D9E299E29851979297A29AC
:1012F20090297C297C29851D7F2980297C298129A7
:1013020002305D02031C862987298A290130DD0209
:101312009E290830CD004D08DD009E299E29051A20
:10132200932994299E2996299629051E99299A2955
:10133200962959179E299E299E2900300A168A1538
:10134200F1220A128A159730F9009230FA000A1631
:101352008A15F0230A128A1506300A168A15F12216
:101362000A128A15831203135D08303E0A168A1583
:1013720073230A128A1507300A168A15F1220A12F5
:101382008A15B430F9009230FA000A168A15F02351
:101392000A128A1514300A168A15F1220A128A15BF
:1013A200831203135D08013A031DD829D929E329C1
:1013B2004630F9009030FA000A168A15F0230A1214
:1013C2008A15692A831203135D08023A031DEA296A
:1013D200EB29F5291230F9009130FA000A168A1524
:1013E200F0230A128A15692A831203135D08033A4D
:1013F200031DFC29FD29072AF030F9009030FA007C
:101402000A168A15F0230A128A15692A831203130F
:101412005D08043A031D0E2A0F2A192A5630F900D4
:101422009130FA000A168A15F0230A128A15692ADF
:10143200831203135D08053A031D202A212A2B2A51
:10144200CE30F9009030FA000A168A15F0230A12FB
:101452008A15692A831203135D08063A031D322A8C
:10146200332A3D2A6730F9009130FA000A168A15AC
:10147200F0230A128A15692A831203135D08073AB8
:10148200031D442A452A4F2AEF30F9009130FA0011
:101492000A168A15F0230A128A15692A831203137F
:1014A2005D08083A031D562A572A692A2430F90092
:1014B2009030FA000A168A15F0230A128A15692A50
:1014C200692A692A692A692A692A692A692A692A82
:1014D20083120313591B6E2A6F2AC32BD91C722A3B
:1014E200732AC32BD91B762A772A5B29C32BC32BDA
:1014F200C32B7B2A00300A168A15F1220A128A159A
:101502001030F9009230FA000A168A15F0230A12F6
:101512008A150D300A168A15F1220A128A15FF3031
:101522000A168A15C6220A128A1583120313CD00DF
:101532004D08DA005A08303E0A168A1573230A1239
:101542008A1514300A168A15F1220A128A15893070
:10155200F9009130FA000A168A15F0230A128A1548
:1015620083120313051AB62AB72A7B2AB92AB92A83
:10157200051EBC2ABD2AB92ABE2AF101F201F301D5
:101582000C300A168A155B240A128A150A168A1565
:10159200B2220A128A1500300A168A15F1220A129C
:1015A2008A15CD30F9009130FA000A168A15F02317
:1015B2000A128A1514300A168A15F1220A128A159D
:1015C2002C30F9009230FA000A168A15F0230A121A
:1015D2008A150030F3000030F2000030F100643070
:1015E200F0000A168A15C0230A128A150A168A15ED
:1015F200D3240A128A1583120313D919012B022B41
:101602007B2A5A08013A031D072B082B232BD701EB
:1016120057085107033ECD004D08F0002F300A163F
:101622008A1522240A128A150030F3000030F200D3
:101632000030F1006430F0000A168A15C0230A1245
:101642008A157B2A831203135A08023A031D2A2B96
:101652002B2B492B1030CD004D08D70057085107CE
:10166200033ECD004D08F0002F300A168A152224C1
:101672000A128A150030F3000030F2000030F10047
:101682006430F0000A168A15C0230A128A157B2AD2
:10169200831203135A08033A031D502B512B6F2B4D
:1016A2002030CD004D08D70057085107033ECD002A
:1016B2004D08F0002F300A168A1522240A128A15C4
:1016C2000030F3000030F2000030F1006430F0002E
:1016D2000A168A15C0230A128A157B2A831203135B
:1016E2005A08043A031D762B772B952B3030CD0008
:1016F2004D08D70057085107033ECD004D08F000B2
:101702002F300A168A1522240A128A150030F30095
:101712000030F2000030F1006430F0000A168A1541
:10172200C0230A128A157B2A831203135A08053A28
:10173200031D9C2B9D2B7B2A4030CD004D08D700EA
:1017420057085107033ECD004D08F0002F300A160E
:101752008A1522240A128A150030F3000030F200A2
:101762000030F1006430F0000A168A15C0230A1214
:101772008A157B2A7B2A7B2A7B2A7B2A7B2A7B2A45
:101782007B2A7B2A83120313591BC82BC92BD32B09
:10179200D918CC2BCD2BD32BD91BD02BD12B7B2AD9
:1017A200D32BD32B0A168A15B2220A128A15831258
:1017B20003135D080A128A1129230A128A150030BE
:1017C200F3000030F2000030F1000A30F0000A1697
:1017D2008A15C0230A128A154E294E290A128A1125
:1017E200002820308400A030F7000408F8002830D8
:1017F200F9007708840083130008FA00F70A7808D2
:1018020084007A088000F80AF90BFA2B831203137A
:10181200C90128304902031C0F2C102C122C2C2C2D
:101822002C2C4908203E840083130008F700770817
:10183200F00002300A168A11BF220A128A150130FC
:10184200F700770883120313C90728304902031CE3
:101852002B2C2C2C122CC90114304902031C322CC3
:10186200332C352C552C552C2B30F7007708F000F3
:1018720002300A168A11BF220A128A152D30F70089
:101882007708F00002300A168A11BF220A128A155E
:101892000130F700770883120313C9071430490295
:1018A200031C542C552C352CC90150304902031C01
:1018B2005B2C5C2C5E2C752C752C2030F700770885
:1018C200F00002300A168A11BF220A128A1501306C
:1018D200F700770883120313C90750304902031C2B
:1018E200732C742C5E2C752C5530F7007708F000A1
:1018F20002300A168A11BF220A128A157330F700C3
:101902007708F00002300A168A11BF220A128A15DD
:101912006530F7007708F00002300A168A11BF22FC
:101922000A128A157230F7007708F00002300A16A0
:101932008A11BF220A128A1583120313C9010314E2
:10194200C90D06304902031CA72CA82CAA2CCE2CA8
:10195200CE2C2030F7007708F00002300A168A11E8
:10196200BF220A128A15831203134908303EF70078
:101972007708F00002300A168A11BF220A128A156D
:101982000130F700770883120313C90706304902B2
:10199200031CCC2CCD2CAA2CCE2C0A168A150E2375
:1019A2000A128A1583120313C8014808F700770840
:1019B200C900F92C8312031349080A168A15C62294
:1019C2000A128A15F700770883120313D600560805
:1019D200F7007708F00002300A168A11BF220A12B5
:1019E2008A150130F700770883120313C907F92C0F
:1019F2004808033EF700003003180130F800780869
:101A0200803AF90080307902031D092D49087702D6
:101A120003180C2D0D2DDB2C0E2D831203134908F8
:101A2200F7007708C8004A2D8312031349080A16E3
:101A32008A15C6220A128A15F70077088312031341
:101A4200D6002030F7007708F00002300A168A111B
:101A5200BF220A128A15831203135608FF3A031D86
:101A6200332D342D392D3030F7007708D600392D3B
:101A72005608F7007708F00002300A168A11BF22D2
:101A82000A128A150130F700770883120313C90777
:101A92004A2D4808043EF700003003180130F800D0
:101AA2007808803AF90080307902031D5A2D4908DE
:101AB200770203185D2D5E2D152D5F2D0A168A15EE
:101AC2000E230A128A151030F700770883120313C7
:101AD200C8004808F7007708C9008D2D8312031348
:101AE20049080A168A15C6220A128A15F7007708CB
:101AF20083120313D6005608F7007708F00002306D
:101B02000A168A11BF220A128A150130F7007708D5
:101B120083120313C9078D2D4808033EF7000030D6
:101B220003180130F8007808803AF9008030790211
:101B3200031D9D2D490877020318A02DA12D6F2D9D
:101B4200A22D831203134908F7007708C800DE2D7F
:101B52008312031349080A168A15C6220A128A1525
:101B6200F700770883120313D6002030F7007708B6
:101B7200F00002300A168A11BF220A128A15831255
:101B820003135608FF3A031DC72DC82DCD2D303043
:101B9200F7007708D600CD2D5608F7007708F00039
:101BA20002300A168A11BF220A128A150130F70082
:101BB200770883120313C907DE2D4808043EF70095
:101BC200003003180130F8007808803AF9008030BC
:101BD2007902031DEE2D490877020318F12DF22D2B
:101BE200A92DF32D0A168A150E230A128A15203002
:101BF200F700770883120313C8004808F700770834
:101C0200C900212E8312031349080A168A15C62217
:101C12000A128A15F700770883120313D6005608B2
:101C2200F7007708F00002300A168A11BF220A1262
:101C32008A150130F700770883120313C907212E92
:101C42004808033EF700003003180130F800780816
:101C5200803AF90080307902031D312E490877025B
:101C62000318342E352E032E362E83120313490801
:101C7200F7007708C800722E8312031349080A1668
:101C82008A15C6220A128A15F700770883120313EF
:101C9200D6002030F7007708F00002300A168A11C9
:101CA200BF220A128A15831203135608FF3A031D34
:101CB2005B2E5C2E612E3030F7007708D600612E45
:101CC2005608F7007708F00002300A168A11BF2280
:101CD2000A128A150130F700770883120313C90725
:101CE200722E4808043EF700003003180130F80055
:101CF2007808803AF90080307902031D822E490863
:101D020077020318852E862E3D2E872E0A168A15F7
:101D12000E230A128A153030F70077088312031354
:101D2200C8004808F7007708C900B52E83120313CC
:101D320049080A168A15C6220A128A15F700770878
:101D420083120313D6005608F7007708F00002301A
:101D52000A168A11BF220A128A150130F700770883
:101D620083120313C907B52E4808033EF70000305B
:101D720003180130F8007808803AF90080307902BF
:101D8200031DC52E490877020318C82EC92E972EA7
:101D9200CA2E831203134908F7007708C800062FDA
:101DA2008312031349080A168A15C6220A128A15D3
:101DB200F700770883120313D6002030F700770864
:101DC200F00002300A168A11BF220A128A15831203
:101DD20003135608FF3A031DEF2EF02EF52E303076
:101DE200F7007708D600F52E5608F7007708F000BE
:101DF20002300A168A11BF220A128A150130F70030
:101E0200770883120313C907062F4808043EF70018
:101E1200003003180130F8007808803AF900803069
:101E22007902031D162F490877020318192F1A2F5A
:101E3200D12E1B2F0A168A150E230A128A1540303C
:101E4200F700770883120313C8004808F7007708E1
:101E5200C900492F8312031349080A168A15C6229C
:101E62000A128A15F700770883120313D600560860
:101E7200F7007708F00002300A168A11BF220A1210
:101E82008A150130F700770883120313C907492F17
:101E92004808033EF700003003180130F8007808C4
:101EA200803AF90080307902031D592F49087702E0
:101EB20003185C2F5D2F2B2F5E2F8312031349080B
:101EC200F7007708C8009A2F8312031349080A16ED
:101ED2008A15C6220A128A15F7007708831203139D
:101EE200D600FF30F7007708F00002300A168A1198
:101EF200BF220A128A15831203135608FF3A031DE2
:101F0200832F842F892F3030F7007708D600892F4E
:101F12005608F7007708F00002300A168A11BF222D
:101F22000A128A150130F700770883120313C907D2
:101F32009A2F4808043EF700003003180130F800D9
:101F42007808803AF90080307902031DAA2F4908E7
:101F520077020318AD2FAE2F652FAF2F0A168A1501
:101F62000E230A128A1583120313C9015030490243
:101F7200031CBC2FBD2FBF2FD52FD52F2030F7002C
:101F82007708F00002300A168A11BF220A128A1557
:101F92000130F700770883120313C9075030490252
:101FA200031CD42FD52FBF2FC90128304902031C8F
:101FB200DB2FDC2FDE2FFF2FFF2F2B30F7007708D0
:101FC200F00002300A168A11BF220A128A152D3039
:101FD200F7007708F00002300A168A11BF220A12AF
:101FE2008A150130F700770883120313C9072830D6
:101FF2004902031CFD2FFE2FDE2FFF2F0800523453
:102002006534733465347434743469346E346734CB
:102012002034413464346D3469346E342E342E34B9
:102022002E34003444346F346E346534203420341A
:1020320020342034203420342034203420342034FE
:102042002034203400344534783470346F347234A0
:10205200743420342034203420342034203420348A
:10206200203420342034003443346C3465346134F9
:1020720072346534643420342034203420342034E3
:102082002034203420342034003453346534743402
:1020920020344434613479342034203420342034E0
:1020A2002034203420342034203400345334743427
:1020B20061346E3464346234793420342034203410
:1020C20020342034203420342034203400344E3460
:1020D200653477342034413464346D3469346E3479
:1020E200203420342034203420342034203400346E
:1020F20041347434743465346E34643461346E340F
:1021020063346534203420342034203420342034A5
:102112000034533475346334633465347334733444
:10212200663475346C342034203420342034203426
:10213200203400345334633461346E346E34693481
:102142006E3467342E342E342E342034203420342E
:10215200203420340034433468346F346F347334A1
:102162006534203455347334653472342034203469
:102172002034203420340034553470346C346F34BD
:102182006134643469346E3467342E342E342E3420
:102192002034203420342034003443346834613411
:1021A2006E34673465342034413464346D346934B8
:1021B2006E342034203420342034003446346F34DA
:1021C20072346D3461346C342034413464346D348F
:1021D20069346E34203420342034203400344434C2
:1021E20065346C346534743465342034613420349D
:1021F2004434613474346134203420342034003463
:1022020032342E34203455347334653472342034ED
:102212006C346F34673469346E34203420342034A3
:1022220000344134643464342034613420344E3414
:102232006534773420344434613474346134203466
:102242002034003431342E342034413464346D343B
:1022520069346E3420346C346F34673469346E34CC
:10226200203420340034503472346534733473347F
:1022720020343334203474346F342034733465346E
:10228200743420342034003432342E342034453433
:10229200783470346F3472347434203474346F345C
:1022A20020344834543420340034443465346C349B
:1022B200653474346534203441346C346C342034E5
:1022C2004434613474346134203400345634693413
:1022D20065347734203441347434743465346E3464
:1022E200643461346E3463346534203400345634DB
:1022F20065347234693466346934633461347434F5
:1023020069346F346E3420346F34663420340034D0
:10231200503472346534733473342034333420349B
:1023220074346F3420346D34613472346B3420343D
:102332000034563465347234693466346934633433
:102342006134743469346F346E34203431342F3450
:102352003234003456346534723469346634693444
:1023620063346134743469346F346E3420343234FB
:102372002F343234003431342E342034453478341E
:1023820070346F3472347434203474346F342034C3
:10239200473455344934003450346C346134633436
:1023A2006534203479346F347534723420347434A3
:1023B200683475346D34623400344E3465347734A5
:1023C2002034413464346D3469346E3420344E34F4
:1023D20065346534643465346434003443346C34B5
:1023E2006534613472342034413474347434653465
:1023F2006E34643461346E3463346534003455347D
:10240200733465347234203431342034323420341D
:1024120033342034343420343534203400345434CA
:102422006F34643461347934203469347334203441
:1024320044346134793420340034413463346334B5
:102442006534733473342034443465346E346934FF
:102452006534643400346F346E3420347434683438
:1024620065342034773469346E3464346F347734AD
:10247200003443347934743472346F346E3420341B
:1024820054346534633468342E340034483465344B
:102492006C346C346F342034553473346534723494
:1024A20020340034443465346C3465347434693413
:1024B2006E3467342E342E342E340034483465346E
:1024C2006C346C346F342034413464346D34693488
:1024D2006E340034553473346534723420344534E8
:1024E20078346934733474340034533465346C345E
:1024F2006534633474346534643400345734653479
:102502006C3463346F346D3465340034543469345C
:102512006D3465346F347534743400345334743428
:1025220061346E3464346234793400344D346F343F
:10253200643465343D3420340034463461346934C3
:102542006C346534643400345034523420343234C0
:10255200393400344534723472346F347234003496
:0C2562002F34353400342F34383400346A
:102576000134013401340134F300052B83120313B3
:1025860007105130F100F10BC62A6400F401031460
:10259600F40DF408031DD02AD12AD32AF72AF72AE4
:1025A60070087405031DD82AD92AE22A8312031358
:1025B60007104F30F100F10BDE2A6400EB2A83127C
:1025C600031307144F30F100F10BE72AEA2AEB2A2E
:1025D6007408F1007107F2007208F400F408031D94
:1025E600F52AF62AD32AF72AF82AF92AFA2AFB2AFA
:1025F6008312031307145530F100F10B002B64000E
:102606000A2B0A2B7308023A0319C12A0A2B08005F
:1026160000300A168A15F1220A168A110030F900CE
:102626009030FA000A168A15F0230A168A1100302D
:10263600F3000330F2000D30F1004030F0000A16CE
:102646008A15C0230A168A11F101FF30831203137B
:10265600A7002708F200F30104300A168A155B2446
:102666000A168A110A168A15D3240A168A11003008
:102676000A168A15F1220A168A11DE30F9009130FF
:10268600FA000A168A15F0230A168A110030F3009A
:102696000330F2000D30F1004030F0000A168A15C2
:1026A600C0230A168A11572B00300A168A15F12202
:1026B6000A168A116830F9009030FA000A168A154F
:1026C600F0230A168A1114300A168A15F1220A1600
:1026D6008A118F30F9009230FA000A168A15F02313
:1026E6000A168A110030F3000330F2000D30F100B3
:1026F6004030F0000A168A15C0230A168A11FF30E8
:102706000A128A110F200A168A1183120313D91985
:102716008D2B8E2B572B8F2B08000A168A15B2226B
:102726000A168A1100300A168A15F1220A168A112B
:102736000030F9009230FA000A168A15F0230A16BC
:102746008A1114300A168A15F1220A168A11FD0119
:1027560004307D02031CB02BB12BB32BCF2BCF2B18
:102766007D080A168A15C6220A168A11FC007C08FC
:1027760083120313D60056080A168A1573230A16FF
:102786008A110130FC007C08FD0704307D02031C21
:10279600CD2BCE2BB32BCF2B0430FC007C08FD00B9
:1027A60009307D02031CD82BD92BDB2BFD2BFD2BEF
:1027B60020300A168A1573230A168A117D080A160E
:1027C6008A15C6220A168A11FC007C088312031396
:1027D600D60056080A168A1573230A168A1101307E
:1027E600FC007C08FD0709307D02031CFB2BFC2B3B
:1027F600DB2BFD2B0030F3000430F2009330F100A8
:10280600E030F0000A168A15C0230A168A11143021
:102816000A168A15F1220A168A111030FC007C0865
:10282600FD0014307D02031C192C1A2C1C2C382C8C
:10283600382C7D080A168A15C6220A168A11FC004B
:102846007C0883120313D60056080A168A157323CA
:102856000A168A110130FC007C08FD0714307D023F
:10286600031C362C372C1C2C382C1430FC007C080E
:10287600FD0019307D02031C412C422C442C662C91
:10288600662C20300A168A1573230A168A117D08CB
:102896000A168A15C6220A168A11FC007C088312BB
:1028A6000313D60056080A168A1573230A168A11C8
:1028B6000130FC007C08FD0719307D02031C642CE6
:1028C600652C442C662C0030F3000430F200933063
:1028D600F100E030F0000A168A15C0230A168A11A4
:1028E60014300A168A15F1220A168A112030FC00C5
:1028F6007C08FD0024307D02031C822C832C852C51
:10290600A12CA12C7D080A168A15C6220A168A1140
:10291600FC007C0883120313D60056080A168A1593
:1029260073230A168A110130FC007C08FD07243047
:102936007D02031C9F2CA02C852CA12C2430FC008E
:102946007C08FD0029307D02031CAA2CAB2CAD2C83
:10295600CF2CCF2C20300A168A1573230A168A111B
:102966007D080A168A15C6220A168A11FC007C08FA
:1029760083120313D60056080A168A1573230A16FD
:102986008A110130FC007C08FD0729307D02031CFA
:10299600CD2CCE2CAD2CCF2C0030F3000430F20021
:1029A6009330F100E030F0000A168A15C0230A16AB
:1029B6008A1114300A168A15F1220A168A11303045
:1029C600FC007C08FD0034307D02031CEB2CEC2C53
:1029D600EE2C0A2D0A2D7D080A168A15C6220A161D
:1029E6008A11FC007C0883120313D60056080A16C7
:1029F6008A1573230A168A110130FC007C08FD072C
:102A060034307D02031C082D092DEE2C0A2D34309E
:102A1600FC007C08FD0039307D02031C132D142DAB
:102A2600162D382D382D20300A168A1573230A16CE
:102A36008A117D080A168A15C6220A168A11FC0012
:102A46007C0883120313D60056080A168A157323C8
:102A56000A168A110130FC007C08FD0739307D0218
:102A6600031C362D372D162D382D0030F30004307B
:102A7600F2009330F100E030F0000A168A15C02308
:102A86000A168A1114300A168A15F1220A168A11B4
:102A96004030FC007C08FD0044307D02031C542DB0
:102AA600552D572D732D732D7D080A168A15C622AE
:102AB6000A168A11FC007C0883120313D6005608F6
:102AC6000A168A1573230A168A110130FC007C083F
:102AD600FD0744307D02031C712D722D572D732D79
:102AE6004430FC007C08FD0049307D02031C7C2D2F
:102AF6007D2D7F2DA12DA12D20300A168A15732339
:102B06000A168A117D080A168A15C6220A168A111D
:102B1600FC007C0883120313D60056080A168A1591
:102B260073230A168A110130FC007C08FD07493020
:102B36007D02031C9F2DA02D7F2DA12D0030F300BB
:102B46000430F2009330F100E030F0000A168A15E6
:102B5600C0230A168A110800F8017808F5007508DE
:102B6600F900CF2D79080A168A15C6220A168A1187
:102B7600F500750883120313D6005608F50075088C
:102B8600F00002300A168A11BF220A168A11013095
:102B9600F5007508F907CF2D7808033EF5000030DB
:102BA60003180130F6007608803AF7008030770285
:102BB600031DDF2D790875020318E22DE32DB52DCF
:102BC600E42D7908F5007508F8000E2E79080A1626
:102BD6008A15C6220A168A11F50075088312031390
:102BE600D6005608FF3A031DF92DFA2DFF2D303079
:102BF600F5007508D600FF2D5608F5007508F0009B
:102C060002300A168A11BF220A168A110130F5000F
:102C16007508F9070E2E7808043EF50000300318F3
:102C26000130F6007608803AF70080307702031DFF
:102C36001E2E790875020318212E222EE92D232E29
:102C46001030F5007508F8007808F5007508F900E9
:102C5600462E79080A168A15C6220A168A11F50022
:102C6600750883120313D6005608F5007508F000A0
:102C760002300A168A11BF220A168A110130F5009F
:102C86007508F907462E7808033EF500003003184C
:102C96000130F6007608803AF70080307702031D8F
:102CA600562E790875020318592E5A2E2C2E5B2E95
:102CB6007908F5007508F800852E79080A168A1530
:102CC600C6220A168A11F500750883120313D60068
:102CD6005608FF3A031D702E712E762E3030F50001
:102CE6007508D600762E5608F5007508F0000230F5
:102CF6000A168A11BF220A168A110130F5007508D4
:102D0600F907852E7808043EF500003003180130D7
:102D1600F6007608803AF70080307702031D952E7C
:102D2600790875020318982E992E602E9A2E203057
:102D3600F5007508F8007808F5007508F900BD2E4D
:102D460079080A168A15C6220A168A11F500750828
:102D560083120313D6005608F5007508F0000230FA
:102D66000A168A11BF220A168A110130F500750863
:102D7600F907BD2E7808033EF50000300318013030
:102D8600F6007608803AF70080307702031DCD2ED4
:102D9600790875020318D02ED12EA32ED22E7908CB
:102DA600F5007508F800FC2E79080A168A15C62261
:102DB6000A168A11F500750883120313D600560801
:102DC600FF3A031DE72EE82EED2E3030F50075088C
:102DD600D600ED2E5608F5007508F00002300A16EA
:102DE6008A11BF220A168A110130F5007508F90703
:102DF600FC2E7808043EF500003003180130F6007A
:102E06007608803AF70080307702031D0C2F790888
:102E1600750203180F2F102FD72E112F3030F50003
:102E26007508F8007808F5007508F900342F790858
:102E36000A168A15C6220A168A11F5007508831223
:102E46000313D6005608F5007508F00002300A167E
:102E56008A11BF220A168A110130F5007508F90792
:102E6600342F7808033EF500003003180130F600D1
:102E76007608803AF70080307702031D442F7908E0
:102E860075020318472F482F1A2F492F7908F50086
:102E96007508F800732F79080A168A15C6220A16CD
:102EA6008A11F500750883120313D6005608FF3AF7
:102EB600031D5E2F5F2F642F3030F5007508D60096
:102EC600642F5608F5007508F00002300A168A11BC
:102ED600BF220A168A110130F5007508F907732F0B
:102EE6007808043EF500003003180130F600760835
:102EF600803AF70080307702031D832F7908750228
:102F06000318862F872F4E2F882F4030F50075081F
:102F1600F8007808F5007508F900AB2F79080A164D
:102F26008A15C6220A168A11F5007508831203133C
:102F3600D6005608F5007508F00002300A168A1108
:102F4600BF220A168A110130F5007508F907AB2F62
:102F56007808033EF500003003180130F6007608C5
:102F6600803AF70080307702031DBB2F790875027F
:102F76000318BE2FBF2F912FC02F7908F5007508B3
:102F8600F800EA2F79080A168A15C6220A168A1147
:102F9600F500750883120313D6005608FF3A031D81
:102FA600D52FD62FDB2F3030F5007508D600DB2F56
:102FB6005608F5007508F00002300A168A11BF227D
:102FC6000A168A110130F5007508F907EA2F780804
:102FD600043EF500003003180130F6007608803A0A
:102FE600F70080307702031DFA2F7908750203185F
:102FF600FD2FFE2FC52FFF2F0800FF1B0A28831366
:103006007F1883170008840A0319FF0A08007F083F
:0E3016007F398A000408840A0319FF0A820029
:10352000912A831203138C1E962A972A912A982A8D
:103530001A08F0007008F10071089E2A08007E0841
:103540008A007F0882000A168A159F220A168A15A9
:103550008000840A04087D0603190034FF0A031959
:10356000FE0AA32A01300A168A154E230A168A1566
:103570000030F3000030F2000230F1005830F0006B
:103580000A168A15C0230A168A150800F100710868
:10359000831203178D003F30F00070088316031765
:1035A0008C050C14831203170C08F0007008F2004D
:1035B0007208DA2A0800F000EB2A831203130714BA
:1035C0008316031307108312031387148316031340
:1035D0008714F02AF02A7008023A0319DD2AF02A2B
:1035E0000800FA0010307A020318F72AF82A002B94
:1035F0007A08803E0A168A154E230A168A150D2B64
:103600007A08EC3EF9007908FA007A08C03E0A16FA
:103610008A154E230A168A150D2B0800F601423032
:103620007602031C142B152B172B2C2B2C2B203044
:10363000F5007508F00002300A168A11BF220A163A
:103640008A150130F5007508F60742307602031C32
:103650002A2B2B2B172B2C2B0800F301083073027D
:10366000031C332B342B362B4D2B4D2B0A168A156E
:1036700090220A168A15F20073084E3E84007208E2
:10368000831380000130F2007208F30708307302E0
:10369000031C4B2B4C2B362B4D2B0800F8008312B0
:1036A000031307127808860087160030F3000030F5
:1036B000F2000030F1003230F0000A168A15C02303
:1036C0000A168A158312031387120030F3000030A4
:1036D000F2000030F1003230F0000A168A15C023E3
:1036E0000A168A150800F8008312031307167808D3
:1036F000860087160030F3000030F2000030F10041
:103700000A30F0000A168A15C0230A168A15831299
:10371000031387120030F3000030F2000030F10094
:103720000A30F0000A168A15C0230A168A15080006
:103730002B342D342B342D342B342D342034413480
:103740007434743465346E34643461346E34633488
:10375000653420344C3469347334743420342D345B
:103760002B342D342B342D342034433479347434B9
:1037700072346F346E34203450345234323439342D
:103780007308720471047004031DC72BC82BCA2B65
:10379000EF2BEF2B0130F4000030F5000030F60085
:1037A0000030F7007408F0027508031C750FD92B60
:1037B000DA2BF1027608031C760FDF2BE02BF202E6
:1037C0007708031C770FE52BE62BF30273087204CE
:1037D00071047004031DED2BEE2BCA2BEF2B080098
:1037E000FB01092C7A0883120313FF007908840077
:1037F0000A168A1500200A168A150A168A157323D6
:103800000A168A150130F9070318FA0A0030FA0778
:10381000092C7A08790403190E2C0F2C212C7A0814
:1038200083120313FF00790884000A168A1500200A
:103830000A168A150038031D1E2C1F2CF22B212C72
:10384000212C0800F200242C831603178C18292C35
:103850002A2C242C2B2C7008831203178D0072083D
:103860008C003F30F1007108831603178C0583121A
:10387000031303108B1F3D2C3E2C3F2C03148B1382
:10388000831603170C1555308D00AA308D008C144B
:103890000C1183120313031C4E2C4F2C532C8B172B
:1038A000532C532C532C831603178C18582C592C3B
:1038B000532C5A2C0800F60076087106720673061F
:1038C000F4007408F500F5300A128A1103200A1674
:1038D0008A1576080A128A1103200A168A157108B9
:1038E0000A128A1103200A168A1572080A128A110E
:1038F00003200A168A1573080A128A1103200A1671
:103900008A1500300A128A1103200A168A157508D2
:103910000A128A1103200A168A15F5300A128A1132
:1039200003200A168A150800F101FF3083120313E1
:10393000A4002408F200F3010B300A168A155B2458
:103940000A168A1500300A168A15F1220A168A15F7
:10395000CD30F9009130FA000A168A15F0230A16C4
:103960008A1514300A168A15F1220A168A152C3087
:10397000F9009230FA000A168A15F0230A168A1501
:103980000030F3000030F2000030F1006430F0004D
:103990000A168A15C0230A168A150A168A15D32410
:1039A0000A168A15080083120313A30108302302A4
:1039B000031CDB2CDC2CDE2CF72CF72C0A168A15CA
:1039C00090220A168A1583120313A10023084E3E83
:1039D00084002108831380000130A1002108A3077F
:1039E00008302302031CF52CF62CDE2CF72C510892
:1039F000A1002108FC005208A2002208FD004F0887
:103A00000A168A1524260A168A150030F30000309B
:103A1000F2000330F100E830F0000A168A15C023E6
:103A20000A168A15080083120313D7015708F300FA
:103A30007308F00044300A168A1522240A168A15E3
:103A4000831203135708013EF3007308F00041305E
:103A50000A168A1522240A168A1583120313570898
:103A6000023EF3007308F00059300A168A1522242A
:103A70000A168A15831203135708033EF3007308CE
:103A8000F00031300A168A1522240A168A151030E1
:103A9000F300730883120313D7005708F300730869
:103AA000F00044300A168A1522240A168A15831259
:103AB00003135708013EF3007308F00041300A1663
:103AC0008A1522240A168A15831203135708023E08
:103AD000F3007308F00059300A168A1522240A16DA
:103AE0008A15831203135708033EF3007308F0008E
:103AF00032300A168A1522240A168A152030F3005D
:103B0000730883120313D7005708F3007308F000FB
:103B100044300A168A1522240A168A1583120313C2
:103B20005708013EF3007308F00041300A168A1569
:103B300022240A168A15831203135708023EF30043
:103B40007308F00059300A168A1522240A168A15BD
:103B5000831203135708033EF3007308F000333059
:103B60000A168A1522240A168A153030F3007308C3
:103B700083120313D7005708F3007308F000443092
:103B80000A168A1522240A168A1583120313570867
:103B9000013EF3007308F00041300A168A15222412
:103BA0000A168A15831203135708023EF30073089E
:103BB000F00059300A168A1522240A168A15831233
:103BC00003135708033EF3007308F00034300A165D
:103BD0008A1522240A168A154030F30073088312CE
:103BE0000313D7005708F3007308F00044300A1697
:103BF0008A1522240A168A15831203135708013ED8
:103C0000F3007308F00041300A168A1522240A16C0
:103C10008A15831203135708023EF3007308F0005D
:103C200059300A168A1522240A168A15831203139C
:103C30005708033EF3007308F00035300A168A1562
:103C400022240A168A15080083120313A0000A16FC
:103C50008A15B2220A168A15EB2F831203138514D4
:103C60002008013A0319352E362E4C2E2008023A30
:103C700003193B2E3C2E4C2E14300A168A15F122C5
:103C80000A168A158A30F9009030FA000A168A1549
:103C9000F0230A168A159C2E831203132008013A7A
:103CA000031D532E542E732E00300A168A15F1224E
:103CB0000A168A159B30F9009030FA000A168A1508
:103CC000F0230A168A1514300A168A15F1220A16EC
:103CD0008A159A30F9009130FA000A168A15F023F5
:103CE0000A168A159C2E831203132008023A031D1C
:103CF0007A2E7B2E9C2E00300A168A15F1220A1687
:103D00008A159B30F9009030FA000A168A15F023C4
:103D10000A168A1514300A168A15F1220A168A150F
:103D2000AB30F9009130FA000A168A15F0230A1612
:103D30008A159C2E9C2E9C2E0030F3000330F2003E
:103D40000D30F1004030F0000A168A15C0230A1623
:103D50008A15831203138510D9110A168A15B22207
:103D60000A168A15FF2F83120313051485161430C3
:103D70000A168A15F1220A168A159E30F900923029
:103D8000FA000A168A15F0230A168A150030F30085
:103D90000330F2000D30F1004030F0000A168A15B1
:103DA000C0230A168A158312031385120510D9152C
:103DB0000A168A15B2220A168A15FF2F83120313D8
:103DC0000514851614300A168A15F1220A168A156A
:103DD0008730F9009230FA000A168A15F0230A1685
:103DE0008A150030F3000330F2000D30F10040304E
:103DF000F0000A168A15C0230A168A1583120313C7
:103E000085120510D9150A168A15B2220A168A15C6
:103E1000FF2F831203130514851614300A168A1512
:103E2000F1220A168A156B30F9009230FA000A1650
:103E30008A15F0230A168A150030F3000330F200C9
:103E40000D30F1004030F0000A168A15C0230A1622
:103E50008A158312031385120510D9150A168A15BF
:103E6000B2220A168A15FF2F831203130514851632
:103E700014300A168A15F1220A168A151E30F90026
:103E80009230FA000A168A15F0230A168A150030B5
:103E9000F3000330F2000D30F1004030F0000A165C
:103EA0008A15C0230A168A1583120313851205107A
:103EB000D9150A168A15B2220A168A15FF2F8312FF
:103EC000031385147C08FF3A0319672F682F972F77
:103ED00000300A168A15F1220A168A154730F900B1
:103EE0009230FA000A168A15F0230A168A150B304A
:103EF0000A168A15F1220A168A157C08303E0A161F
:103F00008A1573230A168A1514300A168A15F122A7
:103F10000A168A157F30F9009230FA000A168A15BF
:103F2000F0230A168A1583120313D911A72F003024
:103F30000A168A15F1220A168A155F30F9009230A6
:103F4000FA000A168A15F0230A168A15A72F0030E0
:103F5000F3000330F2000D30F1004030F0000A169B
:103F60008A15C0230A168A158312031385100A16B0
:103F70008A15B2220A168A15FF2F8312031305141D
:103F80008514851614300A168A15F1220A168A1528
:103F9000AB30F9009230FA000A168A15F0230A169F
:103FA0008A150030F3000330F2000D30F10040308C
:103FB000F0000A168A15C0230A168A158312031305
:103FC000851205108510D9150A168A15B2220A160F
:103FD0008A15FF2FFF2F7D08003A03192D2E013A75
:103FE0000319B32E023A03195F2F063A0319342F2F
:103FF000023A0319092F0F3A0319DE2EBD2F0800CC
:02400E00323F3F
:00000001FF
