:100000000A128A150128F0000528831203130C1E1A
:100010000A280B2805280C2870089900080083126C
:100020000313A700F1012708A5002508F2000330FB
:10003000A6002608F30001300A168A151F240A12AA
:100040008A1100300A168A15DB220A128A11CD3075
:10005000F9009130FA000A168A15B2230A128A11A1
:1000600014300A168A15DB220A128A112C30F90084
:100070009230FA000A168A15B2230A128A11003049
:10008000F3000030F2001330F1008830F0000A165F
:100090008A1582230A128A110A168A1597240A12CF
:1000A0008A1183120313D916D91957285828D22830
:1000B0000A168A159C220A128A1100300A168A151D
:1000C000DB220A128A119B30F9009030FA000A16DE
:1000D0008A15B2230A128A1114300A168A15DB22F5
:1000E0000A128A119A30F9009130FA000A168A151C
:1000F000B2230A128A11F101831203132708A50003
:100100002508F2000330A6002608F30002300A1684
:100110008A151F240A128A110A168A1597240A12B0
:100120008A1183120313D91996289728D2280A1600
:100130008A159C220A128A1100300A168A15DB22BF
:100140000A128A119B30F9009030FA000A168A15BB
:10015000B2230A128A1114300A168A15DB220A12F7
:100160008A11AB30F9009130FA000A168A15B223D1
:100170000A128A11F101831203132708A50025082A
:10018000F2000330A6002608F30003300A168A1591
:100190001F240A128A110A168A1597240A128A1134
:1001A000D228D228080083120313D7015708F3007E
:1001B0007308F00044300A168A15E6230A128A11E1
:1001C000831203135708013EF3007308F000413017
:1001D0000A168A15E6230A128A1183120313570896
:1001E000023EF3007308F00059300A168A15E62320
:1001F0000A128A11831203135708033EF30073088F
:10020000F00031300A168A15E6230A128A11831289
:1002100003135708043EF3007308F000FF300A167A
:100220008A15E6230A128A11831203135708053E22
:10023000F3007308F000FF300A168A15E6230A124D
:100240008A11831203135708063EF3007308F00067
:10025000FF300A168A15E6230A128A118312031345
:100260005708073EF3007308F000FF300A168A159E
:10027000E6230A128A11831203135708083EF3007B
:100280007308F000FF300A168A15E6230A128A1155
:100290001030F300730883120313D7005708F300DC
:1002A0007308F00044300A168A15E6230A128A11F0
:1002B000831203135708013EF3007308F000413026
:1002C0000A168A15E6230A128A11831203135708A5
:1002D000023EF3007308F00059300A168A15E6232F
:1002E0000A128A11831203135708033EF30073089E
:1002F000F00032300A168A15E6230A128A11831298
:1003000003135708043EF3007308F000FF300A1689
:100310008A15E6230A128A11831203135708053E31
:10032000F3007308F000FF300A168A15E6230A125C
:100330008A11831203135708063EF3007308F00076
:10034000FF300A168A15E6230A128A118312031354
:100350005708073EF3007308F000FF300A168A15AD
:10036000E6230A128A11831203135708083EF3008A
:100370007308F000FF300A168A15E6230A128A1164
:100380002030F300730883120313D7005708F300DB
:100390007308F00044300A168A15E6230A128A11FF
:1003A000831203135708013EF3007308F000413035
:1003B0000A168A15E6230A128A11831203135708B4
:1003C000023EF3007308F00059300A168A15E6233E
:1003D0000A128A11831203135708033EF3007308AD
:1003E000F00033300A168A15E6230A128A118312A6
:1003F00003135708043EF3007308F000FF300A1699
:100400008A15E6230A128A11831203135708053E40
:10041000F3007308F000FF300A168A15E6230A126B
:100420008A11831203135708063EF3007308F00085
:10043000FF300A168A15E6230A128A118312031363
:100440005708073EF3007308F000FF300A168A15BC
:10045000E6230A128A11831203135708083EF30099
:100460007308F000FF300A168A15E6230A128A1173
:100470003030F300730883120313D7005708F300DA
:100480007308F00044300A168A15E6230A128A110E
:10049000831203135708013EF3007308F000413044
:1004A0000A168A15E6230A128A11831203135708C3
:1004B000023EF3007308F00059300A168A15E6234D
:1004C0000A128A11831203135708033EF3007308BC
:1004D000F00034300A168A15E6230A128A118312B4
:1004E00003135708043EF3007308F000FF300A16A8
:1004F0008A15E6230A128A11831203135708053E50
:10050000F3007308F000FF300A168A15E6230A127A
:100510008A11831203135708063EF3007308F00094
:10052000FF300A168A15E6230A128A118312031372
:100530005708073EF3007308F000FF300A168A15CB
:10054000E6230A128A11831203135708083EF300A8
:100550007308F000FF300A168A15E6230A128A1182
:100560004030F300730883120313D7005708F300D9
:100570007308F00044300A168A15E6230A128A111D
:10058000831203135708013EF3007308F000413053
:100590000A168A15E6230A128A11831203135708D2
:1005A000023EF3007308F00059300A168A15E6235C
:1005B0000A128A11831203135708033EF3007308CB
:1005C000F00035300A168A15E6230A128A118312C2
:1005D00003135708043EF3007308F000FF300A16B7
:1005E0008A15E6230A128A11831203135708053E5F
:1005F000F3007308F000FF300A168A15E6230A128A
:100600008A11831203135708063EF3007308F000A3
:10061000FF300A168A15E6230A128A118312031381
:100620005708073EF3007308F000FF300A168A15DA
:10063000E6230A128A11831203135708083EF300B7
:100640007308F000FF300A168A15E6230A128A1191
:10065000080083120313CC004C08013A031D312B10
:10066000322B612C592C592C0519372B382B4F2B39
:100670003A2B3A2B051D3D2B3E2B3A2B3F2B0530B9
:100680005B020318442B452B4A2B0130CA004A0851
:10069000DB071C2CDB010314DB0D1C2C1C2C851927
:1006A000522B532B692B552B552B851D582B592B12
:1006B000552B5A2B02305B02031C5F2B602B632BE4
:1006C0000130DB021C2C0530CA004A08DB001C2C60
:1006D0001C2C051A6C2B6D2B1C2C0A168A159C22BF
:1006E0000A128A11831203138514762B051E792BA7
:1006F0007A2B762B7B2B5B08013A031D802B812BF9
:100700008C2BFF30CA004A08F0005B080A168A15D5
:10071000E6230A128A11DB2B831203135B08023AC9
:10072000031D932B942B9F2BFF30CA004A08F00027
:100730005B080A168A15E6230A128A11DB2B83123C
:1007400003135B08033A031DA62BA72BB22BFF3024
:10075000CA004A08F0005B080A168A15E6230A1246
:100760008A11DB2B831203135B08043A031DB92B98
:10077000BA2BC52BFF30CA004A08F0005B080A16E6
:100780008A15E6230A128A11DB2B831203135B08F6
:10079000053A031DCC2BCD2BDB2BFF30CA004A08BA
:1007A000F0005B080A168A15E6230A128A11DB2B71
:1007B000DB2BDB2BDB2B00300A168A15DB220A121F
:1007C0008A111930F9009230FA000A168A15B223FC
:1007D0000A128A1104300A168A15DB220A128A11BB
:1007E000831203135B08303E0A168A1538230A1257
:1007F0008A1114300A168A15DB220A128A11763001
:10080000F9009230FA000A168A15B2230A128A11E8
:100810000030F3000330F2000D30F1004030F00002
:100820000A168A1582230A128A118312031385106D
:1008300059151C2C1C2C1C2C00300A168A15DB2286
:100840000A128A111030F9009230FA000A168A153D
:10085000B2230A128A110D300A168A15DB220A12F7
:100860008A11831203135B08303E0A168A15382357
:100870000A128A110E300A168A15DB220A128A1110
:10088000B130F9009230FA000A168A15B2230A1222
:100890008A1114300A168A15DB220A128A113430A2
:1008A000F9009130FA000A168A15B2230A128A1149
:1008B000592C83120313591D5E2C5F2C342B5911B4
:1008C000FA2F4C08023A031D662C672CF62C0030D8
:1008D000F3000030F2002730F1001030F0000A166B
:1008E0008A1582230A128A11EE2C00300A168A1504
:1008F000DB220A128A11AC30F9009030FA000A1695
:100900008A15B2230A128A1114300A168A15DB22BC
:100910000A128A114D30F9009230FA000A168A152F
:10092000B2230A128A1119300A168A15DB220A121A
:100930008A11831203135C08303E0A168A15382385
:100940000A128A11831203130519A72CA82CBF2C95
:10095000AA2CAA2C051DAD2CAE2CAA2CAF2C053030
:100960005C020318B42CB52CBA2C0130CA004A081A
:10097000DC07EE2CDC010314DC0DEE2CEE2C8519CB
:10098000C22CC32CD92CC52CC52C851DC82CC92C18
:10099000C52CCA2C02305C02031CCF2CD02CD32CCB
:1009A0000130DC02EE2C0530CA004A08DC00EE2CD7
:1009B000EE2C051ADC2CDD2CEE2CDF2CDF2C051E9A
:1009C000E22CE32CDF2CE42C5C080A128A110F20A5
:1009D0000A128A11EE2CEE2CEE2CEE2C831203134D
:1009E000D91EF32CF42C752CFA2FFA2F4C08033A4D
:1009F000031DFB2CFC2CA92D0030F3000030F2006D
:100A00002730F1001030F0000A168A1582230A12EE
:100A10008A11A12D00300A168A15DB220A128A11CA
:100A2000AC30F9009030FA000A168A15B2230A1287
:100A30008A1114300A168A15DB220A128A114D30E7
:100A4000F9009230FA000A168A15B2230A128A11A6
:100A500019300A168A15DB220A128A11831203132F
:100A60005C08303E0A168A1538230A128A1183124E
:100A7000031305193C2D3D2D542D3F2D3F2D051DF4
:100A8000422D432D3F2D442D05305C020318492D86
:100A90004A2D4F2D0130CA004A08DC07A12DDC0188
:100AA0000314DC0DA12DA12D8519572D582D6E2D68
:100AB0005A2D5A2D851D5D2D5E2D5A2D5F2D02302C
:100AC0005C02031C642D652D682D0130DC02A12D14
:100AD0000530CA004A08DC00A12DA12D051A712D90
:100AE000722DA12D742D742D051E772D782D742D4A
:100AF000792DF1015C08CA004A08F2000330CB00EE
:100B00004B08F30004300A168A151F240A128A11B2
:100B10000030F3000030F2000030F1000A30F00045
:100B20000A168A1582230A128A110A168A15972430
:100B30000A128A1183120313D916A12DA12DA12DFA
:100B4000A12D83120313D91EA62DA72D0A2DFA2F2E
:100B5000FA2F4C08043A031DAE2DAF2D2D2EF101B6
:100B60005C08CA004A08F2000330CB004B08F300CF
:100B700005300A168A151F240A128A110030F30064
:100B80000030F2000030F1000A30F0000A168A1539
:100B900082230A128A110A168A1597240A128A11C8
:100BA00083120313D919D52DD62DFA2FD72D003046
:100BB0000A168A15DB220A128A11DE30F9009130FA
:100BC000FA000A168A15B2230A128A110030F300BD
:100BD0000330F2000D30F1004030F0000A168A15A3
:100BE00082230A128A1100300A168A15DB220A12A1
:100BF0008A116830F9009030FA000A168A15B2237B
:100C00000A128A1114300A168A15DB220A128A1176
:100C10005730F9009030FA000A168A15B2230A12EA
:100C20008A110030F3000330F2000D30F100403043
:100C3000F0000A168A1582230A128A11FF300A125E
:100C40008A110F200A128A1183120313D919292E2F
:100C50002A2ED72DFA2FFA2FFA2F4C08053A031D0A
:100C6000322E332ED22E00300A168A15DB220A12BB
:100C70008A117830F9009130FA000A168A15B223E9
:100C80000A128A1114300A168A15DB220A128A11F6
:100C9000DF30F9009030FA000A168A15B2230A12E2
:100CA0008A110030F3000330F2000D30F1004030C3
:100CB000F0000A168A1582230A128A110A168A156A
:100CC00058240A128A1183120313D919682E692E27
:100CD000FA2F00300A168A15DB220A128A115330C5
:100CE000F9009230FA000A168A15B2230A128A1104
:100CF0000030F3000030F200C330F1005030F0005B
:100D00000A168A1582230A128A11F101FF30831212
:100D10000313CA004A08F200F30104300A168A15C8
:100D20001F240A128A110A168A1597240A128A1198
:100D300000300A168A15DB220A128A116830F9007F
:100D40009030FA000A168A15B2230A128A1114305A
:100D50000A168A15DB220A128A115730F9009030E0
:100D6000FA000A168A15B2230A128A110030F3001B
:100D70000330F2000D30F1004030F0000A168A1501
:100D800082230A128A11FF300A128A110F200A12D6
:100D90008A1183120313D919CE2ECF2E982EFA2F33
:100DA000FA2FFA2F4C08063A031DD72ED82EDE2E26
:100DB0000A168A1168230A128A11FA2F8312031362
:100DC0004C08073A031DE52EE62E1B2F85140A1248
:100DD0008A11D3200A128A1100300A168A15DB22E2
:100DE0000A128A117930F9009030FA000A168A1531
:100DF000B2230A128A1114300A168A15DB220A124B
:100E00008A113530F9009030FA000A168A15B2239B
:100E10000A128A110030F3000330F2000D30F100A5
:100E20004030F0000A168A1582230A128A118312B2
:100E300003138510FA2F4C08083A031D202F212F89
:100E4000FA2FEE2FEE2F00300A168A15DB220A1237
:100E50008A11BC30F9009130FA000A168A15B223C3
:100E60000A128A1114300A168A15DB220A128A1114
:100E70004530F9009130FA000A168A15B2230A1299
:100E80008A11831203130519462F472F982F492FD4
:100E9000492F051D4C2F4D2F492F4E2F0A168A150D
:100EA0009C220A128A1100300A168A15DB220A12C5
:100EB0008A11BD30F9009030FA000A168A15B22363
:100EC0000A128A118312031305140030F300023052
:100ED000F2004930F100F030F0000A168A15822342
:100EE0000A128A110A168A11AF250A128A111430C1
:100EF0000A168A15DB220A128A111330F900903083
:100F0000FA000A168A15B2230A128A110030F30079
:100F10000130F2008630F100A030F0000A168A1588
:100F200082230A128A118312031305105916982F6F
:100F300085199B2F9C2FEE2F9E2F9E2F851DA12F55
:100F4000A22F9E2FA32F0A168A159C220A128A11FD
:100F500000300A168A15DB220A128A11BD30F90008
:100F60009030FA000A168A15B2230A128A118312E7
:100F7000031305140030F3000230F2004930F10091
:100F8000F030F0000A168A1582230A128A110A121A
:100F90008A15F2230A128A1114300A168A15DB22E6
:100FA0000A128A111330F9009030FA000A168A15D5
:100FB000B2230A128A110030F3000130F2008630A9
:100FC000F100A030F0000A168A1582230A128A1155
:100FD0008312031305105916EE2FEE2F591EF12F11
:100FE000F22F232F5912FA2FFA2FFA2FFA2FFA2F56
:100FF000FA2FFA2F831203135913D912D9110800AB
:10100200D901CE01CF01D001D101D201D301D40146
:10101200D501D601D701D8018313C830FD001230A3
:10102200FE00BB30FF00A03084000A168A158D2214
:101032000A128A155E30FD001230FE00B730FF0042
:101042005A3084000A168A158D220A128A158301E3
:101052000A128A152C281C30831603138500860178
:101062008030870086309F0001300A168A155D2382
:101072000A128A1502300A168A155D230A128A1587
:1010820006300A168A155D230A128A150C300A16D2
:101092008A155D230A128A1538300A168A155D23CD
:1010A2000A128A1583120313851285100A168A15ED
:1010B2009C220A128A1500300A168A15DB220A12AD
:1010C2008A153A30F9009230FA000A168A15B223CC
:1010D2000A128A1514300A168A15DB220A128A1598
:1010E200A530F9009230FA000A168A15B2230A12C4
:1010F2008A150030F3000330F2000D30F100403069
:10110200F0000A168A1582230A128A150A168A150F
:101112009C220A128A15403083160313990018156F
:1011220098168312031318169817051999289A28E6
:10113200BC2885199D289E28BC280030F300013068
:10114200F2008630F100A030F0000A168A158223E0
:101152000A128A15831203130519B028B128BC2874
:101162008519B428B528BC280A168A11E3220A1266
:101172008A15BC28BC28F101103083120313CD005C
:101182004D08F200F3012E300A168A151F240A12A6
:101192008A150030F3000030F2000030F1000A300E
:1011A200F0000A168A1582230A128A150A168A156F
:1011B20017230A128A15F101F2010314F20DF30149
:1011C2002D300A168A151F240A128A150030F300E0
:1011D2000030F2000030F1000A30F0000A168A15E1
:1011E20082230A128A150A168A1517230A128A15E9
:1011F20001300A168A15C5220A128A150A168A159C
:1012020023250A128A154E294E2900300A168A15FC
:10121200DB220A128A152330F9009130FA000A16ED
:101222008A15B2230A128A1514300A168A15DB228D
:101232000A128A150130F9009130FA000A168A154D
:10124200B2230A128A1583120313051929292A299E
:1012520040292C292C29051D2F2930292C293129F7
:101262000A168A1558240A128A1583120313D919E9
:101272003B293C294E29D914D9174E294E298519C3
:10128200432944294E2946294629851D49294A29A7
:101292004629D910D9174E294E2983120313D91F73
:1012A20053295429062955290A168A159C220A12FD
:1012B2008A15692A05195E295F297629612961291A
:1012C200051D642965296129662908305D02031814
:1012D2006B296C2971290130CD004D08DD079E294B
:1012E200DD010314DD0D9E299E29851979297A29AC
:1012F20090297C297C29851D7F2980297C298129A7
:1013020002305D02031C862987298A290130DD0209
:101312009E290830CD004D08DD009E299E29051A20
:10132200932994299E2996299629051E99299A2955
:10133200962959179E299E299E2900300A168A1538
:10134200DB220A128A159730F9009230FA000A1647
:101352008A15B2230A128A1506300A168A15DB226A
:101362000A128A15831203135D08303E0A168A1583
:1013720038230A128A1507300A168A15DB220A1246
:101382008A15B430F9009230FA000A168A15B2238F
:101392000A128A1514300A168A15DB220A128A15D5
:1013A200831203135D08013A031DD829D929E329C1
:1013B2004630F9009030FA000A168A15B2230A1252
:1013C2008A15692A831203135D08023A031DEA296A
:1013D200EB29F5291230F9009130FA000A168A1524
:1013E200B2230A128A15692A831203135D08033A8B
:1013F200031DFC29FD29072AF030F9009030FA007C
:101402000A168A15B2230A128A15692A831203134D
:101412005D08043A031D0E2A0F2A192A5630F900D4
:101422009130FA000A168A15B2230A128A15692A1D
:10143200831203135D08053A031D202A212A2B2A51
:10144200CE30F9009030FA000A168A15B2230A1239
:101452008A15692A831203135D08063A031D322A8C
:10146200332A3D2A6730F9009130FA000A168A15AC
:10147200B2230A128A15692A831203135D08073AF6
:10148200031D442A452A4F2AEF30F9009130FA0011
:101492000A168A15B2230A128A15692A83120313BD
:1014A2005D08083A031D562A572A692A2430F90092
:1014B2009030FA000A168A15B2230A128A15692A8E
:1014C200692A692A692A692A692A692A692A692A82
:1014D20083120313591B6E2A6F2AC32BD91C722A3B
:1014E200732AC32BD91B762A772A5B29C32BC32BDA
:1014F200C32B7B2A00300A168A15DB220A128A15B0
:101502001030F9009230FA000A168A15B2230A1234
:101512008A150D300A168A15DB220A128A15FF3047
:101522000A168A15B0220A128A1583120313CD00F5
:101532004D08DA005A08303E0A168A1538230A1274
:101542008A1514300A168A15DB220A128A15893086
:10155200F9009130FA000A168A15B2230A128A1586
:1015620083120313051AB62AB72A7B2AB92AB92A83
:10157200051EBC2ABD2AB92ABE2AF101F201F301D5
:101582000C300A168A151F240A128A150A168A15A1
:101592009C220A128A1500300A168A15DB220A12C8
:1015A2008A15CD30F9009130FA000A168A15B22355
:1015B2000A128A1514300A168A15DB220A128A15B3
:1015C2002C30F9009230FA000A168A15B2230A1258
:1015D2008A150030F3000030F2000030F100643070
:1015E200F0000A168A1582230A128A150A168A152B
:1015F20097240A128A1583120313D919012B022B7D
:101602007B2A5A08013A031D072B082B232BD701EB
:1016120057085107033ECD004D08F0002F300A163F
:101622008A15E6230A128A150030F3000030F20010
:101632000030F1006430F0000A168A1582230A1283
:101642008A157B2A831203135A08023A031D2A2B96
:101652002B2B492B1030CD004D08D70057085107CE
:10166200033ECD004D08F0002F300A168A15E623FE
:101672000A128A150030F3000030F2000030F10047
:101682006430F0000A168A1582230A128A157B2A10
:10169200831203135A08033A031D502B512B6F2B4D
:1016A2002030CD004D08D70057085107033ECD002A
:1016B2004D08F0002F300A168A15E6230A128A1501
:1016C2000030F3000030F2000030F1006430F0002E
:1016D2000A168A1582230A128A157B2A8312031399
:1016E2005A08043A031D762B772B952B3030CD0008
:1016F2004D08D70057085107033ECD004D08F000B2
:101702002F300A168A15E6230A128A150030F300D2
:101712000030F2000030F1006430F0000A168A1541
:1017220082230A128A157B2A831203135A08053A66
:10173200031D9C2B9D2B7B2A4030CD004D08D700EA
:1017420057085107033ECD004D08F0002F300A160E
:101752008A15E6230A128A150030F3000030F200DF
:101762000030F1006430F0000A168A1582230A1252
:101772008A157B2A7B2A7B2A7B2A7B2A7B2A7B2A45
:101782007B2A7B2A83120313591BC82BC92BD32B09
:10179200D918CC2BCD2BD32BD91BD02BD12B7B2AD9
:1017A200D32BD32B0A168A159C220A128A1583126E
:1017B20003135D080A128A1129230A128A150030BE
:1017C200F3000030F2000030F1000A30F0000A1697
:1017D2008A1582230A128A154E294E290A128A1163
:1017E200002820308400A030F7000408F8002830D8
:1017F200F9007708840083130008FA00F70A7808D2
:1018020084007A088000F80AF90BFA2B831203137A
:10181200C90128304902031C0F2C102C122C2C2C2D
:101822002C2C4908203E840083130008F700770817
:10183200F00002300A168A15D7240A128A150130DE
:10184200F700770883120313C90728304902031CE3
:101852002B2C2C2C122CC90114304902031C322CC3
:10186200332C352C552C552C2B30F7007708F000F3
:1018720002300A168A15D7240A128A152D30F7006B
:101882007708F00002300A168A15D7240A128A1540
:101892000130F700770883120313C9071430490295
:1018A200031C542C552C352CC90150304902031C01
:1018B2005B2C5C2C5E2C752C752C2030F700770885
:1018C200F00002300A168A15D7240A128A1501304E
:1018D200F700770883120313C90750304902031C2B
:1018E200732C742C5E2C752C5530F7007708F000A1
:1018F20002300A168A15D7240A128A157330F700A5
:101902007708F00002300A168A15D7240A128A15BF
:101912006530F7007708F00002300A168A15D724DE
:101922000A128A157230F7007708F00002300A16A0
:101932008A15D7240A128A1583120313C9010314C4
:10194200C90D06304902031CA72CA82CAA2CCE2CA8
:10195200CE2C2030F7007708F00002300A168A15E4
:10196200D7240A128A15831203134908303EF7005E
:101972007708F00002300A168A15D7240A128A154F
:101982000130F700770883120313C90706304902B2
:10199200031CCC2CCD2CAA2CCE2C0A168A15F8228C
:1019A2000A128A1583120313C8014808F700770840
:1019B200C900F92C8312031349080A168A15B022AA
:1019C2000A128A15F700770883120313D600560805
:1019D200F7007708F00002300A168A15D7240A1297
:1019E2008A150130F700770883120313C907F92C0F
:1019F2004808033EF700003003180130F800780869
:101A0200803AF90080307902031D092D49087702D6
:101A120003180C2D0D2DDB2C0E2D831203134908F8
:101A2200F7007708C8004A2D8312031349080A16E3
:101A32008A15B0220A128A15F70077088312031357
:101A4200D6002030F7007708F00002300A168A1517
:101A5200D7240A128A15831203135608FF3A031D6C
:101A6200332D342D392D3030F7007708D600392D3B
:101A72005608F7007708F00002300A168A15D724B4
:101A82000A128A150130F700770883120313C90777
:101A92004A2D4808043EF700003003180130F800D0
:101AA2007808803AF90080307902031D5A2D4908DE
:101AB200770203185D2D5E2D152D5F2D0A168A15EE
:101AC200F8220A128A151030F700770883120313DE
:101AD200C8004808F7007708C9008D2D8312031348
:101AE20049080A168A15B0220A128A15F7007708E1
:101AF20083120313D6005608F7007708F00002306D
:101B02000A168A15D7240A128A150130F7007708B7
:101B120083120313C9078D2D4808033EF7000030D6
:101B220003180130F8007808803AF9008030790211
:101B3200031D9D2D490877020318A02DA12D6F2D9D
:101B4200A22D831203134908F7007708C800DE2D7F
:101B52008312031349080A168A15B0220A128A153B
:101B6200F700770883120313D6002030F7007708B6
:101B7200F00002300A168A15D7240A128A15831237
:101B820003135608FF3A031DC72DC82DCD2D303043
:101B9200F7007708D600CD2D5608F7007708F00039
:101BA20002300A168A15D7240A128A150130F70064
:101BB200770883120313C907DE2D4808043EF70095
:101BC200003003180130F8007808803AF9008030BC
:101BD2007902031DEE2D490877020318F12DF22D2B
:101BE200A92DF32D0A168A15F8220A128A15203019
:101BF200F700770883120313C8004808F700770834
:101C0200C900212E8312031349080A168A15B0222D
:101C12000A128A15F700770883120313D6005608B2
:101C2200F7007708F00002300A168A15D7240A1244
:101C32008A150130F700770883120313C907212E92
:101C42004808033EF700003003180130F800780816
:101C5200803AF90080307902031D312E490877025B
:101C62000318342E352E032E362E83120313490801
:101C7200F7007708C800722E8312031349080A1668
:101C82008A15B0220A128A15F70077088312031305
:101C9200D6002030F7007708F00002300A168A15C5
:101CA200D7240A128A15831203135608FF3A031D1A
:101CB2005B2E5C2E612E3030F7007708D600612E45
:101CC2005608F7007708F00002300A168A15D72462
:101CD2000A128A150130F700770883120313C90725
:101CE200722E4808043EF700003003180130F80055
:101CF2007808803AF90080307902031D822E490863
:101D020077020318852E862E3D2E872E0A168A15F7
:101D1200F8220A128A153030F7007708831203136B
:101D2200C8004808F7007708C900B52E83120313CC
:101D320049080A168A15B0220A128A15F70077088E
:101D420083120313D6005608F7007708F00002301A
:101D52000A168A15D7240A128A150130F700770865
:101D620083120313C907B52E4808033EF70000305B
:101D720003180130F8007808803AF90080307902BF
:101D8200031DC52E490877020318C82EC92E972EA7
:101D9200CA2E831203134908F7007708C800062FDA
:101DA2008312031349080A168A15B0220A128A15E9
:101DB200F700770883120313D6002030F700770864
:101DC200F00002300A168A15D7240A128A158312E5
:101DD20003135608FF3A031DEF2EF02EF52E303076
:101DE200F7007708D600F52E5608F7007708F000BE
:101DF20002300A168A15D7240A128A150130F70012
:101E0200770883120313C907062F4808043EF70018
:101E1200003003180130F8007808803AF900803069
:101E22007902031D162F490877020318192F1A2F5A
:101E3200D12E1B2F0A168A15F8220A128A15403053
:101E4200F700770883120313C8004808F7007708E1
:101E5200C900492F8312031349080A168A15B022B2
:101E62000A128A15F700770883120313D600560860
:101E7200F7007708F00002300A168A15D7240A12F2
:101E82008A150130F700770883120313C907492F17
:101E92004808033EF700003003180130F8007808C4
:101EA200803AF90080307902031D592F49087702E0
:101EB20003185C2F5D2F2B2F5E2F8312031349080B
:101EC200F7007708C8009A2F8312031349080A16ED
:101ED2008A15B0220A128A15F700770883120313B3
:101EE200D600FF30F7007708F00002300A168A1594
:101EF200D7240A128A15831203135608FF3A031DC8
:101F0200832F842F892F3030F7007708D600892F4E
:101F12005608F7007708F00002300A168A15D7240F
:101F22000A128A150130F700770883120313C907D2
:101F32009A2F4808043EF700003003180130F800D9
:101F42007808803AF90080307902031DAA2F4908E7
:101F520077020318AD2FAE2F652FAF2F0A168A1501
:101F6200F8220A128A1583120313C901503049025A
:101F7200031CBC2FBD2FBF2FD52FD52F2030F7002C
:101F82007708F00002300A168A15D7240A128A1539
:101F92000130F700770883120313C9075030490252
:101FA200031CD42FD52FBF2FC90128304902031C8F
:101FB200DB2FDC2FDE2FFF2FFF2F2B30F7007708D0
:101FC200F00002300A168A15D7240A128A152D301B
:101FD200F7007708F00002300A168A15D7240A1291
:101FE2008A150130F700770883120313C9072830D6
:101FF2004902031CFD2FFE2FDE2FFF2F0800523453
:102002006534733465347434743469346E346734CB
:102012002034413464346D3469346E342E342E34B9
:102022002E34003444346F346E346534203420341A
:1020320020342034203420342034203420342034FE
:102042002034203400344534783470346F347234A0
:10205200743420342034203420342034203420348A
:10206200203420342034003443346C3465346134F9
:1020720072346534643420342034203420342034E3
:102082002034203420342034003453346534743402
:1020920020344434613479342034203420342034E0
:1020A2002034203420342034203400345334743427
:1020B20061346E3464346234793420342034203410
:1020C20020342034203420342034203400344E3460
:1020D200653477342034413464346D3469346E3479
:1020E200203420342034203420342034203400346E
:1020F20041347434743465346E34643461346E340F
:1021020063346534203420342034203420342034A5
:102112000034533475346334633465347334733444
:10212200663475346C342034203420342034203426
:10213200203400345334633461346E346E34693481
:102142006E3467342E342E342E342034203420342E
:10215200203420340034433468346F346F347334A1
:102162006534203455347334653472342034203469
:102172002034203420340034553470346C346F34BD
:102182006134643469346E3467342E342E342E3420
:102192002034203420342034003443346834613411
:1021A2006E34673465342034413464346D346934B8
:1021B2006E342034203420342034003446346F34DA
:1021C20072346D3461346C342034413464346D348F
:1021D20069346E34203420342034203400344434C2
:1021E20065346C346534743465342034613420349D
:1021F2004434613474346134203420342034003463
:1022020032342E34203455347334653472342034ED
:102212006C346F34673469346E34203420342034A3
:1022220000344134643464342034613420344E3414
:102232006534773420344434613474346134203466
:102242002034003431342E342034413464346D343B
:1022520069346E3420346C346F34673469346E34CC
:10226200203420340034503472346534733473347F
:1022720020343334203474346F342034733465346E
:10228200743420342034003432342E342034453433
:10229200783470346F3472347434203474346F345C
:1022A20020344834543420340034443465346C349B
:1022B200653474346534203441346C346C342034E5
:1022C2004434613474346134203400345634693413
:1022D20065347734203441347434743465346E3464
:1022E200643461346E3463346534203400345634DB
:1022F20065347234693466346934633461347434F5
:1023020069346F346E3420346F34663420340034D0
:10231200503472346534733473342034333420349B
:1023220074346F3420346D34613472346B3420343D
:102332000034563465347234693466346934633433
:102342006134743469346F346E34203431342F3450
:102352003234003456346534723469346634693444
:1023620063346134743469346F346E3420343234FB
:102372002F343234003431342E342034453478341E
:1023820070346F3472347434203474346F342034C3
:10239200473455344934003450346C346134633436
:1023A2006534203479346F347534723420347434A3
:1023B200683475346D34623400344E3465347734A5
:1023C2002034413464346D3469346E3420344E34F4
:1023D20065346534643465346434003443346C34B5
:1023E2006534613472342034413474347434653465
:1023F2006E34643461346E3463346534003455347D
:10240200733465347234203431342034323420341D
:1024120033342034343420343534203400345434CA
:102422006F34643461347934203469347334203441
:1024320044346134793420340034413463346334B5
:102442006534733473342034443465346E346934FF
:102452006534643400346F346E3420347434683438
:1024620065342034773469346E3464346F347734AD
:10247200003443347934743472346F346E3420341B
:1024820054346534633468342E340034483465344B
:102492006C346C346F342034553473346534723494
:1024A20020340034443465346C3465347434693413
:1024B2006E3467342E342E342E340034483465346E
:1024C2006C346C346F342034413464346D34693488
:1024D2006E340034553473346534723420344534E8
:1024E20078346934733474340034533465346C345E
:1024F2006534633474346534643400345734653479
:102502006C3463346F346D3465340034543469345C
:102512006D3465346F347534743400345334743428
:1025220061346E3464346234793400344D346F343F
:10253200643465343D3420340034463461346934C3
:102542006C346534643400345034523420343234C0
:10255200393400344534723472346F347234003496
:102562002F34353400342F343834003401340134FC
:10257200013401342B342D342B342D342B342D34AF
:10258200203441347434743465346E3464346134C8
:102592006E346334653420344C34693473347434A7
:1025A20020342D342B342D342B342D342034433429
:1025B2007934743472346F346E342034503452347B
:1025C2003234393400300A168A15DB220A168A118F
:1025D2000030F9009030FA000A168A15B2230A1662
:1025E2008A110030F3000330F2000D30F100403068
:1025F200F0000A168A1582230A168A11F101FF30A9
:1026020083120313A8002808F200F30104300A160B
:102612008A151F240A168A110A168A1597240A1681
:102622008A1100300A168A15DB220A168A11DE3058
:10263200F9009130FA000A168A15B2230A168A1195
:102642000030F3000330F2000D30F1004030F000B2
:102652000A168A1582230A168A112F2B00300A16AF
:102662008A15DB220A168A116830F9009030FA00C6
:102672000A168A15B2230A168A1114300A168A1506
:10268200DB220A168A118F30F9009230FA000A16FC
:102692008A15B2230A168A110030F3000330F200C1
:1026A2000D30F1004030F0000A168A1582230A1616
:1026B2008A11FF300A128A110F200A168A11831218
:1026C2000313D919652B662B2F2B672B08000A16CB
:1026D2008A159C220A168A1100300A168A15DB22F4
:1026E2000A168A110030F9009230FA000A168A1589
:1026F200B2230A168A1114300A168A15DB220A1628
:102702008A1183120313A00104302002031C8A2BB6
:102712008B2B8D2BAB2BAB2B20080A168A15B022E4
:102722000A168A11FD007D0883120313D60056088B
:102732000A168A1538230A168A110130FD007D080F
:1027420083120313A00704302002031CA92BAA2B17
:102752008D2BAB2B0430FD007D08A0000930200238
:10276200031CB42BB52BB72BDD2BDD2B20300A1627
:102772008A1538230A168A118312031320080A16AF
:102782008A15B0220A168A11FD007D0883120313EE
:10279200D60056080A168A1538230A168A110130FD
:1027A200FD007D0883120313A00709302002031CD9
:1027B200DB2BDC2BB72BDD2B0030F3000430F200D7
:1027C2009330F100E030F0000A168A1582230A16CF
:1027D2008A1114300A168A15DB220A168A11103061
:1027E200FD007D0883120313A00014302002031C95
:1027F200FB2BFC2BFE2B1C2C1C2C20080A168A15EA
:10280200B0220A168A11FD007D0883120313D60036
:1028120056080A168A1538230A168A110130FD0055
:102822007D0883120313A00714302002031C1A2C04
:102832001B2CFE2B1C2C1430FD007D08A00019302F
:102842002002031C252C262C282C4E2C4E2C20300A
:102852000A168A1538230A168A11831203132008CE
:102862000A168A15B0220A168A11FD007D08831203
:102872000313D60056080A168A1538230A168A1137
:102882000130FD007D0883120313A00719302002D6
:10289200031C4C2C4D2C282C4E2C0030F300043001
:1028A200F2009330F100E030F0000A168A1582231C
:1028B2000A168A1114300A168A15DB220A168A11A0
:1028C2002030FD007D0883120313A0002430200273
:1028D200031C6C2C6D2C6F2C8D2C8D2C20080A1651
:1028E2008A15B0220A168A11FD007D08831203138D
:1028F200D60056080A168A1538230A168A1101309C
:10290200FD007D0883120313A00724302002031C5C
:102912008B2C8C2C6F2C8D2C2430FD007D08A0007C
:1029220029302002031C962C972C992CBF2CBF2CEB
:1029320020300A168A1538230A168A1183120313C5
:1029420020080A168A15B0220A168A11FD007D088F
:1029520083120313D60056080A168A1538230A165C
:102962008A110130FD007D0883120313A00729306C
:102972002002031CBD2CBE2C992CBF2C0030F3006E
:102982000430F2009330F100E030F0000A168A15AC
:1029920082230A168A1114300A168A15DB220A16B5
:1029A2008A113030FD007D0883120313A0003430F9
:1029B2002002031CDD2CDE2CE02CFE2CFE2C200839
:1029C2000A168A15B0220A168A11FD007D088312A2
:1029D2000313D60056080A168A1538230A168A11D6
:1029E2000130FD007D0883120313A007343020025A
:1029F200031CFC2CFD2CE02CFE2C3430FD007D0849
:102A0200A00039302002031C072D082D0A2D302D7D
:102A1200302D20300A168A1538230A168A1183129D
:102A2200031320080A168A15B0220A168A11FD001D
:102A32007D0883120313D60056080A168A15382316
:102A42000A168A110130FD007D0883120313A007C4
:102A520039302002031C2E2D2F2D0A2D302D00304F
:102A6200F3000430F2009330F100E030F0000A1677
:102A72008A1582230A168A1114300A168A15DB2255
:102A82000A168A114030FD007D0883120313A0004C
:102A920044302002031C4E2D4F2D512D6F2D6F2DD2
:102AA20020080A168A15B0220A168A11FD007D082E
:102AB20083120313D60056080A168A1538230A16FB
:102AC2008A110130FD007D0883120313A0074430F0
:102AD2002002031C6D2D6E2D512D6F2D4430FD00F3
:102AE2007D08A00049302002031C782D792D7B2D12
:102AF200A12DA12D20300A168A1538230A168A1113
:102B02008312031320080A168A15B0220A168A11A4
:102B1200FD007D0883120313D60056080A168A1593
:102B220038230A168A110130FD007D08831203132F
:102B3200A00749302002031C9F2DA02D7B2DA12D23
:102B42000030F3000430F2009330F100E030F00086
:102B52000A168A1582230A168A110800F8017808D3
:102B6200F5007508F900CF2D79080A168A15B022EA
:102B72000A168A11F500750883120313D600560847
:102B8200F5007508F00002300A168A15D7240A16D5
:102B92008A110130F5007508F907CF2D7808033E38
:102BA200F500003003180130F6007608803AF7008D
:102BB20080307702031DDF2D790875020318E22D9C
:102BC200E32DB52DE42D7908F5007508F8000E2ED9
:102BD20079080A168A15B0220A168A11F5007508B4
:102BE20083120313D6005608FF3A031DF92DFA2D5E
:102BF200FF2D3030F5007508D600FF2D5608F50080
:102C02007508F00002300A168A15D7240A168A11AE
:102C12000130F5007508F9070E2E7808043EF5001C
:102C2200003003180130F6007608803AF700803051
:102C32007702031D1E2E790875020318212E222EFB
:102C4200E92D232E1030F5007508F8007808F500FC
:102C52007508F900462E79080A168A15B0220A1656
:102C62008A11F500750883120313D6005608F50081
:102C72007508F00002300A168A15D7240A168A113E
:102C82000130F5007508F907462E7808033EF50075
:102C9200003003180130F6007608803AF7008030E1
:102CA2007702031D562E790875020318592E5A2EE3
:102CB2002C2E5B2E7908F5007508F800852E790810
:102CC2000A168A15B0220A168A11F50075088312AF
:102CD2000313D6005608FF3A031D702E712E762E6E
:102CE2003030F5007508D600762E5608F5007508C6
:102CF200F00002300A168A15D7240A168A1101300A
:102D0200F5007508F907852E7808043EF5000030B5
:102D120003180130F6007608803AF7008030770217
:102D2200031D952E790875020318982E992E602E90
:102D32009A2E2030F5007508F8007808F50075081D
:102D4200F900BD2E79080A168A15B0220A168A11D0
:102D5200F500750883120313D6005608F5007508AE
:102D6200F00002300A168A15D7240A168A11013099
:102D7200F5007508F907BD2E7808033EF50000300E
:102D820003180130F6007608803AF70080307702A7
:102D9200031DCD2E790875020318D02ED12EA32E35
:102DA200D22E7908F5007508F800FC2E79080A166B
:102DB2008A15B0220A168A11F500750883120313C8
:102DC200D6005608FF3A031DE72EE82EED2E3030CE
:102DD200F5007508D600ED2E5608F5007508F000CE
:102DE20002300A168A15D7240A168A110130F50014
:102DF2007508F907FC2E7808043EF5000030031828
:102E02000130F6007608803AF70080307702031D21
:102E12000C2F7908750203180F2F102FD72E112FA0
:102E22003030F5007508F8007808F5007508F900EB
:102E3200342F79080A168A15B0220A168A11F5006B
:102E4200750883120313D6005608F5007508F000C2
:102E520002300A168A15D7240A168A110130F500A3
:102E62007508F907342F7808033EF500003003187F
:102E72000130F6007608803AF70080307702031DB1
:102E8200442F790875020318472F482F1A2F492F0C
:102E92007908F5007508F800732F79080A168A1563
:102EA200B0220A168A11F500750883120313D600A0
:102EB2005608FF3A031D5E2F5F2F642F3030F50056
:102EC2007508D600642F5608F5007508F000023028
:102ED2000A168A15D7240A168A110130F5007508D8
:102EE200F907732F7808043EF5000030031801300B
:102EF200F6007608803AF70080307702031D832FB0
:102F0200790875020318862F872F4E2F882F40309D
:102F1200F5007508F8007808F5007508F900AB2F80
:102F220079080A168A15B0220A168A11F500750860
:102F320083120313D6005608F5007508F00002301C
:102F42000A168A15D7240A168A110130F500750867
:102F5200F907AB2F7808033EF50000300318013063
:102F6200F6007608803AF70080307702031DBB2F07
:102F7200790875020318BE2FBF2F912FC02F790831
:102F8200F5007508F800EA2F79080A168A15B022AA
:102F92000A168A11F500750883120313D600560823
:102FA200FF3A031DD52FD62FDB2F3030F5007508E1
:102FB200D600DB2F5608F5007508F00002300A161D
:102FC2008A15D7240A168A110130F5007508F90707
:102FD200EA2F7808043EF500003003180130F600AD
:102FE2007608803AF70080307702031DFA2F7908BD
:102FF20075020318FD2FFE2FC52FFF2F0800FF1BA0
:103002000A2883137F1883170008840A0319FF0A0A
:1030120008007F087F398A000408840A0319FF0A1E
:0230220082002A
:1034F4007B2A831203138C1E802A812A7B2A822A28
:103504001A08F0007008F1007108882A08007E0883
:103514008A007F0882000A168A1589220A168A15EB
:103524008000840A04087D0603190034FF0A031985
:10353400FE0A8D2A01300A168A155D230A168A1599
:103544000030F3000030F2000230F1005830F00097
:103554000A168A1582230A168A150800F1007108D2
:10356400831203178D003F30F00070088316031791
:103574008C050C14831203170C08F0007008F20079
:103584007208C42A0800F000D52A83120313071412
:10359400831603130710831203138714831603136C
:1035A4008714DA2ADA2A7008023A0319C72ADA2AAF
:1035B4000800FA0010307A020318E12AE22AEA2A03
:1035C4007A08803E0A168A155D230A168A15F72A98
:1035D4007A08EC3EF9007908FA007A08C03E0A1627
:1035E4008A155D230A168A15F72A0800F601423067
:1035F4007602031CFE2AFF2A012B162B162B2030E1
:10360400F5007508F00002300A168A15D7240A1648
:103614008A150130F5007508F60742307602031C5E
:10362400142B152B012B162B0800F3010830730201
:10363400031C1D2B1E2B202B372B372B0A168A1508
:103644007A220A168A15F20073084E3E8400720824
:10365400831380000130F2007208F307083073020C
:10366400031C352B362B202B372B0800F800831234
:10367400031307167808860087160030F30000301D
:10368400F2000030F1000A30F0000A168A15822395
:103694000A168A158312031387120030F3000030D0
:1036A400F2000030F1000A30F0000A168A15822375
:1036B4000A168A150800F800831203130712780803
:1036C400860087160030F3000030F2000030F1006D
:1036D4003230F0000A168A1582230A168A158312DC
:1036E400031387120030F3000030F2000030F100C1
:1036F4003230F0000A168A1582230A168A15080049
:103704007308720471047004031D892B8A2B8C2B9B
:10371400B12BB12B0130F4000030F5000030F6007D
:103724000030F7007408F0027508031C750F9B2B1A
:103734009C2BF1027608031C760FA12BA22BF2021C
:103744007708031C770FA72BA82BF30273087204C6
:1037540071047004031DAF2BB02B8C2BB12B08000C
:10376400FC01CD2B7A0883120313FF00790884002F
:103774000A168A1500200A168A150A168A1538238D
:103784000A168A150130F9070318FA0AFB00FB1F11
:10379400CC2BFA03CD2B7A0879040319D22BD32B23
:1037A400E52B7A0883120313FF00790884000A16B4
:1037B4008A1500200A168A150038031DE22BE32B14
:1037C400B42BE52BE52B0800F200E82B8316031736
:1037D4008C18ED2BEE2BE82BEF2B700883120317BC
:1037E4008D0072088C003F30F100710883160317B6
:1037F4008C058312031303108B1F012C022C032C42
:1038040003148B13831603170C1555308D00AA303F
:103814008D008C140C1183120313031C122C132C13
:10382400172C8B17172C172C172C831603178C188F
:103834001C2C1D2C172C1E2C0800F6007608710673
:1038440072067306F4007408F500F5300A128A1142
:1038540003200A168A1576080A128A1103200A160A
:103864008A1571080A128A1103200A168A15720829
:103874000A128A1103200A168A1573080A128A1179
:1038840003200A168A1500300A128A1103200A1628
:103894008A1575080A128A1103200A168A15F5304A
:1038A4000A128A1103200A168A150800F101FF3052
:1038B40083120313A5002508F200F3010B300A1646
:1038C4008A151F240A168A1500300A168A15DB2267
:1038D4000A168A15CD30F9009130FA000A168A15B5
:1038E400B2230A168A1514300A168A15DB220A1620
:1038F4008A152C30F9009230FA000A168A15B22380
:103904000A168A150030F3000030F2000030F1008E
:103914006430F0000A168A1582230A168A150A16DC
:103924008A1597240A168A15080083120313A40122
:1039340008302402031C9F2CA02CA22CBB2CBB2CD3
:103944000A168A157A220A168A1583120313A2000C
:1039540024084E3E84002208831380000130A20014
:103964002208A40708302402031CB92CBA2CA22C68
:10397400BB2C5108A2002208A0005208A30023086F
:10398400A1004F080A168A1534260A168A15003033
:10399400F3000030F2000330F100E830F0000A16C2
:1039A4008A1582230A168A150800F3001D2D831236
:1039B400031307105130F100F10BDE2C0000F40169
:1039C4000314F40DF408031DE82CE92CEB2C0F2D43
:1039D4000F2D70087405031DF02CF12CFA2C8312A2
:1039E400031307104F30F100F10BF62C0000032DE8
:1039F4008312031307144F30F100F10BFF2C022D37
:103A0400032D7408F1007107F2007208F400F40841
:103A1400031D0D2D0E2DEB2C0F2D102D112D122D00
:103A2400132D8312031307145530F100F10B182DD5
:103A34000000222D222D7308023A0319D92C222DBD
:103A4400080083120313D7015708F3007308F0002A
:103A540044300A168A15E6230A168A1583120313BC
:103A64005708013EF3007308F00041300A168A1526
:103A7400E6230A168A15831203135708023EF3003D
:103A84007308F00059300A168A15E6230A168A15B7
:103A9400831203135708033EF3007308F000313018
:103AA4000A168A15E6230A168A151030F3007308DD
:103AB40083120313D7005708F3007308F00044304F
:103AC4000A168A15E6230A168A1583120313570861
:103AD400013EF3007308F00041300A168A15E6230C
:103AE4000A168A15831203135708023EF30073085B
:103AF400F00059300A168A15E6230A168A1583122D
:103B040003135708033EF3007308F00032300A161B
:103B14008A15E6230A168A152030F30073088312E7
:103B24000313D7005708F3007308F00044300A1653
:103B34008A15E6230A168A15831203135708013ED1
:103B4400F3007308F00041300A168A15E6230A16BA
:103B54008A15831203135708023EF3007308F0001A
:103B640059300A168A15E6230A168A158312031396
:103B74005708033EF3007308F00033300A168A1521
:103B8400E6230A168A153030F300730883120313F0
:103B9400D7005708F3007308F00044300A168A155A
:103BA400E6230A168A15831203135708013EF3000D
:103BB4007308F00041300A168A15E6230A168A159E
:103BC400831203135708023EF3007308F0005930C0
:103BD4000A168A15E6230A168A1583120313570850
:103BE400033EF3007308F00034300A168A15E62306
:103BF4000A168A154030F300730883120313D700A2
:103C04005708F3007308F00044300A168A15E623B7
:103C14000A168A15831203135708013EF30073082A
:103C2400F00041300A168A15E6230A168A15831213
:103C340003135708023EF3007308F00059300A16C4
:103C44008A15E6230A168A15831203135708033EBE
:103C5400F3007308F00035300A168A15E6230A16B5
:103C64008A150800FD000A168A159C220A168A1570
:103C7400E92F85147D08013A0319412E422E582E4E
:103C84007D08023A0319472E482E582E14300A167E
:103C94008A15DB220A168A158A30F9009030FA0058
:103CA4000A168A15B2230A168A15A42E7D08013A2B
:103CB400031D5D2E5E2E7D2E00300A168A15DB2232
:103CC4000A168A159B30F9009030FA000A168A15F4
:103CD400B2230A168A1514300A168A15DB220A162C
:103CE4008A159A30F9009130FA000A168A15B2231F
:103CF4000A168A15A42E7D08023A031D822E832EED
:103D0400A42E00300A168A15DB220A168A159B3067
:103D1400F9009030FA000A168A15B2230A168A1599
:103D240014300A168A15DB220A168A15AB30F900FC
:103D34009130FA000A168A15B2230A168A15A42E9F
:103D4400A42EA42E0030F3000330F2000D30F10055
:103D54004030F0000A168A1582230A168A15831247
:103D640003138510D9110A168A159C220A168A157E
:103D7400FF2F0514851614300A168A15DB220A163D
:103D84008A159E30F9009230FA000A168A15B22379
:103D94000A168A150030F3000330F2000D30F100EA
:103DA4004030F0000A168A1582230A168A158312F7
:103DB400031385120510D9150A168A159C220A16B2
:103DC4008A15FF2F0514851614300A168A15DB226E
:103DD4000A168A158730F9009230FA000A168A15F5
:103DE400B2230A168A150030F3000330F2000D30B6
:103DF400F1004030F0000A168A1582230A168A154B
:103E04008312031385120510D9150A168A159C22EC
:103E14000A168A15FF2F0514851614300A168A15FA
:103E2400DB220A168A156B30F9009230FA000A1662
:103E34008A15B2230A168A150030F3000330F20003
:103E44000D30F1004030F0000A168A1582230A165C
:103E54008A158312031385120510D9150A168A15BB
:103E64009C220A168A15FF2F0514851614300A168B
:103E74008A15DB220A168A151E30F9009230FA00E0
:103E84000A168A15B2230A168A150030F300033085
:103E9400F2000D30F1004030F0000A168A1582233A
:103EA4000A168A158312031385120510D9150A16EA
:103EB4008A159C220A168A15FF2F85142008FF3ABA
:103EC4000319652F662F972F00300A168A15DB22F7
:103ED4000A168A154730F9009230FA000A168A1534
:103EE400B2230A168A150B300A168A15DB220A1623
:103EF4008A15831203132008303E0A168A153823C4
:103F04000A168A1514300A168A15DB220A168A152F
:103F14007F30F9009230FA000A168A15B2230A1685
:103F24008A1583120313D911A72F00300A168A1594
:103F3400DB220A168A155F30F9009230FA000A165D
:103F44008A15B2230A168A15A72F0030F30003300E
:103F5400F2000D30F1004030F0000A168A15822379
:103F64000A168A158312031385100A168A159C22D1
:103F74000A168A15FF2F05148514851614300A169F
:103F84008A15DB220A168A15AB30F9009230FA0042
:103F94000A168A15B2230A168A150030F300033074
:103FA400F2000D30F1004030F0000A168A15822329
:103FB4000A168A1583120313851205108510D91564
:103FC4000A168A159C220A168A15FF2FFF2F8312C0
:103FD40003132108003A03193B2E013A0319BB2E9F
:103FE400023A03195F2F063A0319362F023A0319CE
:0C3FF4000D2F0F3A0319E42EBD2F08001A
:02400E00323F3F
:00000001FF
