:10000000C43084000730FE00C330FF0011208000A0
:10001000840A0408F03A03191528FF0A0319FE0A96
:1000200006287E088A007F088200831772308400C9
:100030007E300A128A1122200A128A1183010A12C2
:100040008A112A2864008001840A040603190034F6
:10005000040623281C308316031385000310003088
:100060000318013086008030870086309F00013001
:100070000A168A1533230A128A1102300A168A15C3
:1000800033230A128A1106300A168A1533230A12FC
:100090008A110C300A168A1533230A128A11383055
:1000A0000A168A1533230A128A1183120313851242
:1000B00085100A168A1568220A128A1100300A165B
:1000C0008A15CF220A128A11463083120313AC001C
:1000D0000730AD000A168A1587230A128A111430D8
:1000E0000A168A15CF220A128A11B130831203131D
:1000F000AC000730AD000A168A1587230A128A1150
:10010000831203130030B4000330B3000D30B2008B
:100110004030B1000A168A1559230A128A110A16AC
:100120008A1568220A128A11403083160313990037
:100130001815981683120313181698170519A12875
:10014000A228C2288519A528A628C2280030B400F4
:100150000130B3008630B200A030B1000A168A1513
:1001600059230A128A11831203130519B828B928D2
:10017000C2288519BC28BD28C2280A128A11692400
:100180000A128A110310831203130030031801307E
:10019000A9001030A0002008A800031000300318A8
:1001A0000130A7002E300A168A15FC230A128A1184
:1001B000831203130030B4000030B3000030B200EB
:1001C0000A30B1000A168A1559230A128A110A1632
:1001D0008A15ED220A128A110310831203130030CC
:1001E00003180130A900A8010314A80D0310003062
:1001F00003180130A7002D300A168A15FC230A12B5
:100200008A11831203130030B4000030B3000030B1
:10021000B2000A30B1000A168A1559230A128A114F
:100220000A168A15ED220A128A1101300A168A1559
:100230007E220A128A110A168A1522250A128A11AA
:10024000672900300A168A15CF220A128A11303027
:1002500083120313AC000530AD000A168A158723FC
:100260000A128A1114300A168A15CF220A128A112C
:10027000633083120313AC000530AD000A168A15F3
:1002800087230A128A118312031305194829492961
:100290005C294A29051D4D294E294A290A128A1529
:1002A00008200A128A1183120313FD1958295929AB
:1002B0005B29FD14FD17672985195F2960296729C6
:1002C0006129851D642965296129FD10FD178312A7
:1002D0000313FD1F6C296D2921290A168A1568222E
:1002E0000A128A11882A05197629772995297829E9
:1002F000051D7B297C2978290830831603136F029A
:100300000318832984299129013083120313A00043
:100310008316031383120313200883160313EF07B6
:100320009429EF010314EF0DC02985199829992903
:10033000B6299A29851D9D299E299A29023083165E
:1003400003136F02031CA529A629A9290130EF0276
:10035000B529083083120313A000831603138312F8
:100360000313200883160313EF00C029051AB929C7
:10037000BA29C029BB29051EBE29BF29BB297D1763
:1003800000300A168A15CF220A128A11AA30831267
:100390000313AC000730AD000A168A1587230A1232
:1003A0008A1106300A168A15CF220A128A1183167C
:1003B00003136F08303E0A168A150E230A128A119B
:1003C00007300A168A15CF220A128A11BD3083120D
:1003D0000313AC000730AD000A168A1587230A12F2
:1003E0008A1114300A168A15CF220A128A1183162E
:1003F00003136F08013A031DFE29FF290B2ADA3087
:1004000083120313AC000530AD000A168A1587234A
:100410000A128A11882A6F08023A031D102A112A2B
:100420001D2A1F3083120313AC000530AD000A16DD
:100430008A1587230A128A11882A6F08033A031D36
:10044000222A232A2F2A523083120313AC000530AC
:10045000AD000A168A1587230A128A11882A6F08A6
:10046000043A031D342A352A412AC9308312031362
:10047000AC000530AD000A168A1587230A128A11CE
:10048000882A6F08053A031D462A472A532A6230F4
:1004900083120313AC000630AD000A168A158723B9
:1004A0000A128A11882A6F08063A031D582A592A07
:1004B000652AA73083120313AC000530AD000A167D
:1004C0008A1587230A128A11882A6F08073A031DA2
:1004D0006A2A6B2A772AD93083120313AC000630BC
:1004E000AD000A168A1587230A128A11882A6F0816
:1004F000083A031D7C2A7D2A882A1E3083120313A2
:10050000AC000630AD000A168A1587230A128A113C
:10051000831203137D1B8D2A8E2A962AFD1C912A95
:10052000922A962AFD1B952A962A7329F92B0030C8
:100530000A168A15CF220A128A111C30831203135D
:10054000AC000730AD000A168A1587230A128A11FB
:100550000D300A168A15CF220A128A11FF300A16A8
:100560008A15B1220A128A1183120313A00083167E
:10057000031383120313200883160313EC006C0883
:10058000303E0A168A150E230A128A1114300A16F2
:100590008A15CF220A128A11963083120313AC00F7
:1005A0000530AD000A168A1587230A128A118312B4
:1005B0000313051ADC2ADD2AF82BDE2A051EE12AA0
:1005C000E22ADE2A0310003003180130A9000310CC
:1005D000003003180130A800031000300318013068
:1005E000A7000C300A168A15FC230A128A110A1673
:1005F0008A1568220A128A1100300A168A15CF223B
:100600000A128A11C83083120313AC000630AD0001
:100610000A168A1587230A128A1114300A168A15B7
:10062000CF220A128A11383083120313AC0007302C
:10063000AD000A168A1587230A128A118312031342
:100640000030B4000030B3000030B2006430B100BC
:100650000A168A1559230A128A110A168A110620C7
:100660000A128A1183120313FD19372B382BF82B2A
:10067000831603136C08013A031D3F2B402B612B9B
:10068000031083120313003003180130FC007C08B0
:100690007607033EA5002F300A168A15B7230A12E3
:1006A0008A11831203130030B4000030B30000300D
:1006B000B2006430B1000A168A1559230A128A1151
:1006C000F82B6C08023A031D662B672B872B103022
:1006D00083120313A0002008FC007C087607033E69
:1006E000A5002F300A168A15B7230A128A11831221
:1006F00003130030B4000030B3000030B2006430A7
:10070000B1000A168A1559230A128A11F82B6C08AF
:10071000033A031D8C2B8D2BAD2B2030831203133A
:10072000A0002008FC007C087607033EA5002F30BF
:100730000A168A15B7230A128A118312031300308E
:10074000B4000030B3000030B2006430B1000A16CB
:100750008A1559230A128A11F82B6C08043A031DD2
:10076000B22BB32BD32B303083120313A0002008FD
:10077000FC007C087607033EA5002F300A168A1578
:10078000B7230A128A11831203130030B400003019
:10079000B3000030B2006430B1000A168A15592344
:1007A0000A128A11F82B6C08053A031DD82BD92B95
:1007B000F82B403083120313A0002008FC007C08B3
:1007C0007607033EA5002F300A168A15B7230A12B2
:1007D0008A11831203130030B4000030B3000030DC
:1007E000B2006430B1000A168A1559230A128A1120
:1007F000972A7D1BFC2BFD2B052CFD18002C012CB2
:10080000052CFD1B042C052C972A0A168A15682234
:100810000A128A11831603136F080A128A15C82256
:100820000A128A11831203130030B4000030B3009F
:100830000030B2000A30B1000A168A1559230A1294
:0A0840008A1120290A128A110028EB
:10084E00D800622C07105130DA00DA0B2C2C640021
:10085E0083120313D9010314D90D352C57088313B2
:10086E005905031D3B2C3C2C432C07104F30DA004E
:10087E00DA0B3F2C6400492C07144F30DA00DA0BE8
:10088E00462C492C8312031359088313DA005A0796
:10089E00D900D908031D542C552C352C562C572C09
:1008AE00582C592C8312031307145530DA00DA0B27
:1008BE005E2C6400682C58088313023A0319292C05
:1008CE00682C080000300A168A15CF220A128A11E7
:1008DE000C3083120313AC000530AD000A168A15D6
:1008EE0087230A128A11831203130030B4000330D7
:1008FE00B3000D30B2004030B1000A168A155923EC
:10090E000A128A11031083120313003003180130E8
:10091E00A900A801A8030310003003180130A70096
:10092E0004300A168A15FC230A128A110A168A1135
:10093E0006200A128A1100300A168A15CF220A12D0
:10094E008A11EA3083120313AC000630AD000A168A
:10095E008A1587230A128A11831203130030B400FA
:10096E000330B3000D30B2004030B1000A168A15C4
:10097E0059230A128A1100300A168A15CF220A123A
:10098E008A11FC3083120313AC000530AD000A1639
:10099E008A1587230A128A1114300A168A15CF2255
:1009AE000A128A118B3083120313AC000730AD008C
:1009BE000A168A1587230A128A118312031300302E
:1009CE00B4000330B3000D30B2004030B1000A164F
:1009DE008A1559230A128A11FF300A168A154324E2
:1009EE000A128A1183120313FD19FE2CFF2CC22C3E
:1009FE000800FE00FE1F082D83137E1883170008C3
:100A0E0008008A00040882000034523465347334BE
:100A1E0065347434743469346E346734203441343C
:100A2E0064346D3469346E342E342E342E340034E6
:100A3E004134643464342034613420344E346534AB
:100A4E0077342034443461347434613420342034A7
:100A5E00003431342E342034413464346D346934EE
:100A6E006E3420346C346F34673469346E34203411
:100A7E002034003446346F3472346D3461346C3447
:100A8E002034413464346D3469346E34203420346F
:100A9E00203420340034443465346C34653474347A
:100AAE006534203461342034443461347434613418
:100ABE00203420342034003432342E342034553453
:100ACE0073346534723420346C346F346734693463
:100ADE006E34203420342034003450347234653473
:100AEE007334733420343334203474346F342034FC
:100AFE007334653474342034203400345634653401
:100B0E0072346934663469346334613474346934EC
:100B1E006F346E3420346F346634203400345034E5
:100B2E007234653473347334203433342034743473
:100B3E006F3420346D34613472346B3420340034AD
:100B4E005634693465347734203441347434743413
:100B5E0065346E34643461346E34633465342034F9
:100B6E00003432342E3420344534783470346F34BB
:100B7E0072347434203474346F3420344834543422
:100B8E0020340034443465346C3465347434653444
:100B9E00203441346C346C34203444346134743435
:100BAE006134203400345334653474342034443486
:100BBE0061347934203420342034203420342034ED
:100BCE0020342034203400345334743461346E3481
:100BDE006434623479342034203420342034203488
:100BEE00203420342034203400344E3465347734AD
:100BFE002034413464346D3469346E3420342034FE
:100C0E0020342034203420342034003444346F34E3
:100C1E006E34653420342034203420342034203493
:100C2E002034203420342034203420340034453411
:100C3E00783470346F347234743420342034203469
:100C4E002034203420342034203420342034003416
:100C5E0043346C3465346134723465346434203416
:100C6E0020342034203420342034203420342034D6
:100C7E000034433468346F346F3473346534203445
:100C8E005534733465347234203420342034203497
:100C9E0020340034553470346C346F346134643421
:100CAE0069346E3467342E342E342E34203420348E
:100CBE002034203400344334683461346E34673465
:100CCE0065342034413464346D3469346E342034E8
:100CDE002034203420340034413474347434653478
:100CEE006E34643461346E346334653420342034AD
:100CFE00203420342034203400345334753463349B
:100D0E006334653473347334663475346C34203420
:100D1E0020342034203420342034003453346334CF
:100D2E0061346E346E3469346E3467342E342E343E
:100D3E002E34203420342034203420340034313406
:100D4E002E3420344534783470346F347234743425
:100D5E00203474346F3420344734553449340034DD
:100D6E0056346534723469346634693463346134AC
:100D7E00743469346F346E34203432342F34323458
:100D8E00003450346C346134633465342034793437
:100D9E006F347534723420347434683475346D3471
:100DAE006234003443346C3465346134723420342C
:100DBE0041347434743465346E34643461346E3456
:100DCE006334653400344E34653477342034413422
:100DDE0064346D3469346E3420344E346534653485
:100DEE006434653464340034563465347234693492
:100DFE006634693463346134743469346F346E34F8
:100E0E00203431342F343234003455347334653455
:100E1E00723420343134203432342034333420349C
:100E2E003434203435342034003454346F34643444
:100E3E006134793420346934733420344434613469
:100E4E00793420340034413463346334653473347C
:100E5E0073342034443465346E3469346534643408
:100E6E0000346F346E342034743468346534203476
:100E7E00773469346E3464346F34773400344334E9
:100E8E007934743472346F346E342034543465349F
:100E9E00633468342E340034483465346C346C3426
:100EAE006F34203455347334653472342034003446
:100EBE00483465346C346C346F34203441346434CB
:100ECE006D3469346E340034443465346C346534B6
:100EDE00743469346E3467342E342E342E34003428
:100EEE00553473346534723420344534783469346F
:100EFE00733474340034533465346C346534633471
:100F0E0074346534643400345334743461346E3460
:100F1E006434623479340034543469346D34653455
:100F2E006F34753474340034573465346C34633430
:100F3E006F346D34653400344634613469346C3446
:100F4E006534643400344D346F34643465343D3468
:100F5E002034003450345234203432343934003496
:100F6E004534723472346F34723400342F34383462
:100F7E0000342F34353400342B342D342B342D34AF
:100F8E002B342D34203441347434743465346E343F
:100F9E00643461346E346334653420344C346934D3
:100FAE007334743420342D342B342D342B342D34AF
:100FBE00203443347934743472346F346E342034C4
:100FCE005034523432343934013401340134013462
:100FDE0083120313AC00F32F831203130C1EF82F8E
:0C0FEE00F92FF32F2C0883139900080042
:10101000031083120313003003180130A900A80144
:10102000A8030310003003180130A7000B300A1684
:101030008A15FC230A128A1500300A168A15CF2257
:101040000A128A15C83083120313AC000630AD00B3
:101050000A168A1587230A128A1514300A168A1569
:10106000CF220A128A15383083120313AC000730DE
:10107000AD000A168A1587230A128A1583120313F4
:101080000030B4000030B3000030B2006430B10072
:101090000A168A1559230A128A150A168A11062079
:1010A0000A128A1508000310831203130030031874
:1010B0000130A4000310003003180130A500792886
:1010C00025080A168A15B1220A128A1583120313FB
:1010D000A6002608F2007208D70002300A128A1110
:1010E00027240A128A15013083120313A60026084A
:1010F000A50725088313A600A7010330A800A901AE
:1011000024082807AA0029080318290AAB002B087D
:10111000803AAC002708803A2C02031D912826084B
:101120002A0203189428952860282508A400BB28C3
:1011300025080A168A15B1220A128A15831203138A
:10114000A6002608F2007208FF3A031DA828A92865
:10115000AD283030A6002608F2007208D700023011
:101160000A128A1127240A128A15013083120313E6
:10117000A6002608A50725088313A600A7010430AA
:10118000A800A90124082807AA0029080318290A89
:10119000AB002B08803AAC002708803A2C02031DD4
:1011A000D32826082A020318D628D72898281030D2
:1011B000A4001030A500F52825080A168A15B122CA
:1011C0000A128A1583120313A6002608F200720879
:1011D000D70002300A128A1127240A128A15013018
:1011E00083120313A6002608A50725088313A6006B
:1011F000A7010330A800A90124082807AA0029088C
:101200000318290AAB002B08803AAC002708803A63
:101210002C02031D0D2926082A0203181029112962
:10122000DC282508A400372925080A168A15B122CA
:101230000A128A1583120313A6002608F200720808
:10124000FF3A031D2429252929293030A600260824
:10125000F2007208D70002300A128A1127240A12FB
:101260008A15013083120313A6002608A507250856
:101270008313A600A7010430A800A90124082807A9
:10128000AA0029080318290AAB002B08803AAC00F1
:101290002708803A2C02031D4F2926082A0203182A
:1012A0005229532914292030A4002030A500712987
:1012B00025080A168A15B1220A128A158312031309
:1012C000A6002608F2007208D70002300A128A111E
:1012D00027240A128A15013083120313A600260858
:1012E000A50725088313A600A7010330A800A901BC
:1012F00024082807AA0029080318290AAB002B088C
:10130000803AAC002708803A2C02031D8929260860
:101310002A0203188C298D2958292508A400B329ED
:1013200025080A168A15B1220A128A158312031398
:10133000A6002608F2007208FF3A031DA029A12981
:10134000A5293030A6002608F2007208D700023026
:101350000A128A1127240A128A15013083120313F4
:10136000A6002608A50725088313A600A7010430B8
:10137000A800A90124082807AA0029080318290A97
:10138000AB002B08803AAC002708803A2C02031DE2
:10139000CB2926082A020318CE29CF2990293030DC
:1013A000A4003030A500ED2925080A168A15B122BF
:1013B0000A128A1583120313A6002608F200720887
:1013C000D70002300A128A1127240A128A15013026
:1013D00083120313A6002608A50725088313A60079
:1013E000A7010330A800A90124082807AA0029089A
:1013F0000318290AAB002B08803AAC002708803A72
:101400002C02031D052A26082A020318082A092A85
:10141000D4292508A4002F2A25080A168A15B122E6
:101420000A128A1583120313A6002608F200720816
:10143000FF3A031D1C2A1D2A212A3030A600260847
:10144000F2007208D70002300A128A1127240A1209
:101450008A15013083120313A6002608A507250864
:101460008313A600A7010430A800A90124082807B7
:10147000AA0029080318290AAB002B08803AAC00FF
:101480002708803A2C02031D472A26082A0203183F
:101490004A2A4B2A0C2A4030A4004030A500692A71
:1014A00025080A168A15B1220A128A158312031317
:1014B000A6002608F2007208D70002300A128A112C
:1014C00027240A128A15013083120313A600260866
:1014D000A50725088313A600A7010330A800A901CA
:1014E00024082807AA0029080318290AAB002B089A
:1014F000803AAC002708803A2C02031D812A260876
:101500002A020318842A852A502A2508A400AB2A17
:1015100025080A168A15B1220A128A1583120313A6
:10152000A6002608F2007208FF3A031D982A992A9D
:101530009D2A3030A6002608F2007208D70002303B
:101540000A128A1127240A128A1501308312031302
:10155000A6002608A50725088313A600A7010430C6
:10156000A800A90124082807AA0029080318290AA5
:10157000AB002B08803AAC002708803A2C02031DF0
:10158000C32A26082A020318C62AC72A882A08005E
:1015900083120313A10021088313013A031DD12AEA
:1015A000D22A152C0D2C0519D62AD72AF52AD82A85
:1015B000051DDB2ADC2AD82A0530831603136D02A9
:1015C0000318E32AE42AF12A013083120313A2004C
:1015D0008316031383120313220883160313ED07E4
:1015E000F42AED010314ED0DCB2B8519F82AF92A05
:1015F000162BFA2A851DFD2AFE2AFA2A02308316A6
:1016000003136D02031C052B062B092B0130ED0281
:10161000152B053083120313A200831603138312C4
:101620000313220883160313ED00CB2B051A192B85
:101630001A2BCB2B0A168A1568220A128A158312D6
:1016400003138514232B051E262B272B232B8316F0
:1016500003136D08013A031D2E2B2F2B3C2B8312F5
:101660000313A501A503831603136D080A168A1533
:10167000B7230A128A15872B6D08023A031D412BE6
:10168000422B4F2B83120313A501A50383160313CB
:101690006D080A168A15B7230A128A15872B6D085A
:1016A000033A031D542B552B622B83120313A50100
:1016B000A503831603136D080A168A15B7230A12A9
:1016C0008A15872B6D08043A031D672B682B752B31
:1016D00083120313A501A503831603136D080A16CD
:1016E0008A15B7230A128A15872B6D08053A031D40
:1016F0007A2B7B2B872B83120313A501A50383165B
:1017000003136D080A168A15B7230A128A150030CA
:101710000A168A15CF220A128A152530831203135E
:10172000AC000730AD000A168A1587230A128A1505
:1017300004300A168A15CF220A128A15831603135B
:101740006D08303E0A168A150E230A128A151430C7
:101750000A168A15CF220A128A15823083120313C1
:10176000AC000730AD000A168A1587230A128A15C5
:10177000831203130030B4000330B3000D30B20005
:101780004030B1000A168A1559230A128A158312AD
:10179000031385107D1500300A168A15CF220A1210
:1017A0008A151C3083120313AC000730AD000A16F3
:1017B0008A1587230A128A150D300A168A15CF2238
:1017C0000A128A15831603136D08303E0A168A150D
:1017D0000E230A128A150E300A168A15CF220A1213
:1017E0008A15C03083120313AC000730AD000A160F
:1017F0008A1587230A128A1514300A168A15CF22F1
:101800000A128A15743083120313AC000530AD0040
:101810000A168A1587230A128A15831203137D1D5F
:10182000122C132CD32A7D11FA2F2108023A031D02
:101830001A2C1B2CB72C0030B4000030B30027301A
:10184000B2001030B1000A168A1559230A128A15FF
:10185000B02C00300A168A15CF220A128A154030A1
:1018600083120313AC000630AD000A168A158723D5
:101870000A128A1514300A168A15CF220A128A15FE
:10188000593083120313AC000730AD000A168A15D5
:1018900087230A128A1519300A168A15CF220A12CE
:1018A0008A15831603136E08303E0A168A150E2316
:1018B0000A128A158312031305195F2C602C7E2CE3
:1018C000612C051D642C652C612C053083160313D7
:1018D0006E0203186C2C6D2C7A2C013083120313CA
:1018E000A200831603138312031322088316031323
:1018F000EE077D2CEE010314EE0DB02C8519812C22
:10190000822C9F2C832C851D862C872C832C0230C7
:10191000831603136E02031C8E2C8F2C922C013025
:10192000EE029E2C053083120313A20083160313CC
:1019300083120313220883160313EE00B02C051A3A
:10194000A22CA32CB02CA42C051EA72CA82CA42CB4
:10195000831603136E080A168A1543240A128A1581
:1019600083120313FD1EB52CB62C292CFA2F210847
:10197000033A031DBC2CBD2C7F2D0030B400003079
:10198000B3002730B2001030B1000A168A1559236F
:101990000A128A15782D00300A168A15CF220A12EB
:1019A0008A15403083120313AC000630AD000A16CE
:1019B0008A1587230A128A1514300A168A15CF222F
:1019C0000A128A15593083120313AC000730AD0098
:1019D0000A168A1587230A128A1519300A168A15DB
:1019E000CF220A128A15831603136E08303E0A1698
:1019F0008A150E230A128A15831203130519012D65
:101A0000022D202D032D051D062D072D032D05303C
:101A1000831603136E0203180E2D0F2D1C2D01309B
:101A200083120313A20083160313831203132208E5
:101A300083160313EE071F2DEE010314EE0D782D10
:101A40008519232D242D412D252D851D282D292D4A
:101A5000252D0230831603136E02031C302D312D09
:101A6000342D0130EE02402D053083120313A20005
:101A70008316031383120313220883160313EE0045
:101A8000782D051A442D452D782D462D051E492DFE
:101A90004A2D462D0330A2002208A9008316031305
:101AA0006E0883120313A3002308A800031000305C
:101AB00003180130A70004300A168A15FC230A1205
:101AC0008A15831203130030B4000030B3000030D5
:101AD000B2000A30B1000A168A1559230A128A1573
:101AE0000A168A1106200A128A1583120313FD169C
:101AF00083120313FD1E7D2D7E2DCB2CFA2F210882
:101B0000043A031D842D852D142E0330A2002208D3
:101B1000A900831603136E0883120313A30023087E
:101B2000A8000310003003180130A70005300A1682
:101B30008A15FC230A128A15831203130030B4009D
:101B40000030B3000030B2000A30B1000A168A1526
:101B500059230A128A150A168A1106200A128A15B2
:101B600083120313FD19B52DB62D132E00300A165E
:101B70008A15CF220A128A15EA3083120313AC00A9
:101B80000630AD000A168A1587230A128A158312B9
:101B900003130030B4000330B3000D30B200403006
:101BA000B1000A168A1559230A128A1500300A163E
:101BB0008A15CF220A128A15FC3083120313AC0057
:101BC0000530AD000A168A1587230A128A151430CB
:101BD0000A168A15CF220A128A15EB3083120313D4
:101BE000AC000530AD000A168A1587230A128A1543
:101BF000831203130030B4000330B3000D30B20081
:101C00004030B1000A168A1559230A128A15FF308E
:101C10000A168A1543240A128A1583120313FD1922
:101C2000122E132EB62DFA2F2108053A031D192E58
:101C30001A2ECD2E00300A168A15CF220A128A15C6
:101C4000853083120313AC000530AD000A168A15E7
:101C500087230A128A1514300A168A15CF220A120F
:101C60008A15413083120313AC000530AD000A160B
:101C70008A1587230A128A15831203130030B400D1
:101C80000330B3000D30B2004030B1000A168A159F
:101C900059230A128A150A128A1508200A128A156F
:101CA00083120313FD19552E562ECC2E00300A1622
:101CB0008A15CF220A128A156B3083120313AC00E7
:101CC0000730AD000A168A1587230A128A15831277
:101CD00003130030B4000030B300C330B200503002
:101CE000B1000A168A1559230A128A1503108312A5
:101CF0000313003003180130A900A801A803031042
:101D0000003003180130A70004300A168A15FC239E
:101D10000A128A150A168A1106200A128A1500303C
:101D20000A168A15CF220A128A15FC308312031371
:101D3000AC000530AD000A168A1587230A128A15F1
:101D400014300A168A15CF220A128A15EB30831234
:101D50000313AC000530AD000A168A1587230A125A
:101D60008A15831203130030B4000330B3000D3022
:101D7000B2004030B1000A168A1559230A128A159A
:101D8000FF300A168A1543240A128A158312031398
:101D9000FD19CB2ECC2E8F2EFA2F2108063A031DCB
:101DA000D22ED32ED92E0A168A1142200A128A1553
:101DB000FA2F2108073A031DDE2EDF2E1A2F851475
:101DC0000A168A1137220A128A1500300A168A1555
:101DD000CF220A128A15733083120313AC00063027
:101DE000AD000A168A1587230A128A1514300A16BE
:101DF0008A15CF220A128A152F3083120313AC00E2
:101E00000630AD000A168A1587230A128A15831236
:101E100003130030B4000330B3000D30B200403083
:101E2000B1000A168A1559230A128A158312031360
:101E30008510FA2F2108083A031D1F2F202FFA2F93
:101E4000F52F00300A168A15CF220A128A15A630FD
:101E500083120313AC000630AD000A168A158723DF
:101E60000A128A1514300A168A15CF220A128A1508
:101E7000B83083120313AC000530AD000A168A1582
:101E800087230A128A15831203130519482F492F35
:101E90009D2F4A2F051D4D2F4E2F4A2F0A168A15AA
:101EA00068220A128A1500300A168A15CF220A12F1
:101EB0008A15513083120313AC000630AD000A16A8
:101EC0008A1587230A128A1583120313051400301A
:101ED000B4000230B3004930B200F030B1000A164D
:101EE0008A1559230A128A150A128A1553200A12D2
:101EF0008A1514300A168A15CF220A128A150D3057
:101F000083120313AC000630AD000A168A1587232E
:101F10000A128A15831203130030B4000130B30093
:101F20008630B200A030B1000A168A1559230A1271
:101F30008A158312031305107D168519A02FA12F72
:101F4000F52FA22F851DA52FA62FA22F0A168A15C1
:101F500068220A128A1500300A168A15CF220A1240
:101F60008A15513083120313AC000630AD000A16F7
:101F70008A1587230A128A15831203130514003069
:101F8000B4000230B3004930B200F030B1000A169C
:101F90008A1559230A128A150A168A1135240A123B
:101FA0008A1514300A168A15CF220A128A150D30A6
:101FB00083120313AC000630AD000A168A1587237E
:101FC0000A128A15831203130030B4000130B300E3
:101FD0008630B200A030B1000A168A1559230A12C1
:101FE0008A158312031305107D167D1EF82FF92F15
:101FF000212F7D12831203137D13FD12FD110800A2
:10200C00031083120313003003180130A7000E28AD
:10201C000A168A155D220A168A1183120313A80068
:10202C0027088313733E8400280880000130A80021
:10203C002808A70708302702031C252826280E2865
:10204C007708A8002808AA007608A90074080A16C0
:10205C008A150F260A168A11831203130030B40056
:10206C000030B3000330B200E830B1000A168A1514
:10207C0059230A168A1108000A168A1568220A16AC
:10208C008A1100300A168A15CF220A168A110C30D2
:10209C0083120313AC000730AD000A168A15872390
:1020AC000A168A1114300A168A15CF220A168A11BA
:1020BC00031083120313003003180130A4006628A8
:1020CC00240883130A168A15B1220A168A11831260
:1020DC000313A5002508F20072080A168A150E23B0
:1020EC000A168A11013083120313A5002508A407D0
:1020FC0004302402031C8328842866280430A4009E
:10210C00872820300A168A150E230A168A11831284
:10211C000313240883130A168A15B1220A168A118E
:10212C0083120313A5002508F20072080A168A15FB
:10213C000E230A168A11013083120313A5002508F9
:10214C00A40709302402031CAC28AD2887280030D2
:10215C00B4000430B3009330B200E030B1000A1682
:10216C008A1559230A168A1114300A168A15CF2299
:10217C000A168A11103083120313A400C5282408F0
:10218C0083130A168A15B1220A168A1183120313B5
:10219C00A5002508F20072080A168A150E230A16E5
:1021AC008A11013083120313A5002508A4071430EB
:1021BC002402031CE228E328C5281430A400E628D6
:1021CC0020300A168A150E230A168A11831203135D
:1021DC00240883130A168A15B1220A168A1183124F
:1021EC000313A5002508F20072080A168A150E239F
:1021FC000A168A11013083120313A5002508A407BF
:10220C0019302402031C0B290C29E6280030B400D9
:10221C000430B3009330B200E030B1000A168A15D6
:10222C0059230A168A1114300A168A15CF220A1657
:10223C008A11203083120313A40024292408831349
:10224C000A168A15B1220A168A1183120313A500E5
:10225C002508F20072080A168A150E230A168A112E
:10226C00013083120313A5002508A407243024028F
:10227C00031C4129422924292430A400452920305B
:10228C000A168A150E230A168A11831203132408C0
:10229C0083130A168A15B1220A168A1183120313A4
:1022AC00A5002508F20072080A168A150E230A16D4
:1022BC008A11013083120313A5002508A4072930C5
:1022CC002402031C6A296B2945290030B400043010
:1022DC00B3009330B200E030B1000A168A155923CE
:1022EC000A168A1114300A168A15CF220A168A1178
:1022FC00303083120313A4008329240883130A1695
:10230C008A15B1220A168A1183120313A500250817
:10231C00F20072080A168A150E230A168A11013069
:10232C0083120313A5002508A40734302402031CD0
:10233C00A029A12983293430A400A42920300A160D
:10234C008A150E230A168A11831203132408831389
:10235C000A168A15B1220A168A1183120313A500D4
:10236C002508F20072080A168A150E230A168A111D
:10237C00013083120313A5002508A4073930240269
:10238C00031CC929CA29A4290030B4000430B300A5
:10239C009330B200E030B1000A168A1559230A16A0
:1023AC008A1114300A168A15CF220A168A11403067
:1023BC0083120313A400E229240883130A168A1536
:1023CC00B1220A168A1183120313A5002508F20004
:1023DC0072080A168A150E230A168A110130831206
:1023EC000313A5002508A40744302402031CFF296D
:1023FC00002AE2294430A400032A20300A168A1548
:10240C000E230A168A1183120313240883130A1647
:10241C008A15B1220A168A1183120313A500250806
:10242C00F20072080A168A150E230A168A11013058
:10243C0083120313A5002508A40749302402031CAA
:10244C00282A292A032A0030B4000430B300933020
:10245C00B200E030B1000A168A1559230A168A1107
:10246C0008000310003003180130FC007C08A500A4
:10247C0044300A168A15B7230A168A1183120313DD
:10248C007C08013EA50041300A168A15B7230A16AE
:10249C008A11831203137C08023EA50059300A16D8
:1024AC008A15B7230A168A11831203137C08033E7C
:1024BC00A50031300A168A15B7230A168A11831221
:1024CC0003137C08043EA500FF300A168A15B723B7
:1024DC000A168A11831203137C08053EA500FF30EF
:1024EC000A168A15B7230A168A11831203137C085D
:1024FC00063EA500FF300A168A15B7230A168A1164
:10250C00831203137C08073EA500FF300A168A15B8
:10251C00B7230A168A11831203137C08083EA50000
:10252C00FF300A168A15B7230A168A111030831247
:10253C000313A4002408FC007C08A50044300A16F0
:10254C008A15B7230A168A11831203137C08013EDD
:10255C00A50041300A168A15B7230A168A11831270
:10256C0003137C08023EA50059300A168A15B723BE
:10257C000A168A11831203137C08033EA50032301D
:10258C000A168A15B7230A168A11831203137C08BC
:10259C00043EA500FF300A168A15B7230A168A11C5
:1025AC00831203137C08053EA500FF300A168A151A
:1025BC00B7230A168A11831203137C08063EA50062
:1025CC00FF300A168A15B7230A168A1183120313D1
:1025DC007C08073EA500FF300A168A15B7230A1699
:1025EC008A11831203137C08083EA500FF300A16DB
:1025FC008A15B7230A168A11203083120313A400FC
:10260C002408FC007C08A50044300A168A15B72360
:10261C000A168A11831203137C08013EA50041306F
:10262C000A168A15B7230A168A11831203137C081B
:10263C00023EA50059300A168A15B7230A168A11CC
:10264C00831203137C08033EA50033300A168A1547
:10265C00B7230A168A11831203137C08043EA500C3
:10266C00FF300A168A15B7230A168A118312031330
:10267C007C08053EA500FF300A168A15B7230A16FA
:10268C008A11831203137C08063EA500FF300A163C
:10269C008A15B7230A168A11831203137C08073E86
:1026AC00A500FF300A168A15B7230A168A11831261
:1026BC0003137C08083EA500FF300A168A15B723C1
:1026CC000A168A11303083120313A4002408FC006C
:1026DC007C08A50044300A168A15B7230A168A11FD
:1026EC00831203137C08013EA50041300A168A159B
:1026FC00B7230A168A11831203137C08023EA50025
:10270C0059300A168A15B7230A168A118312031335
:10271C007C08033EA50034300A168A15B7230A1626
:10272C008A11831203137C08043EA500FF300A169D
:10273C008A15B7230A168A11831203137C08053EE7
:10274C00A500FF300A168A15B7230A168A118312C0
:10275C0003137C08063EA500FF300A168A15B72322
:10276C000A168A11831203137C08073EA500FF305A
:10277C000A168A15B7230A168A11831203137C08CA
:10278C00083EA500FF300A168A15B7230A168A11CF
:10279C00403083120313A4002408FC007C08A5001D
:1027AC0044300A168A15B7230A168A1183120313AA
:1027BC007C08013EA50041300A168A15B7230A167B
:1027CC008A11831203137C08023EA50059300A16A5
:1027DC008A15B7230A168A11831203137C08033E49
:1027EC00A50035300A168A15B7230A168A118312EA
:1027FC0003137C08043EA500FF300A168A15B72384
:10280C000A168A11831203137C08053EA500FF30BB
:10281C000A168A15B7230A168A11831203137C0829
:10282C00063EA500FF300A168A15B7230A168A1130
:10283C00831203137C08073EA500FF300A168A1585
:10284C00B7230A168A11831203137C08083EA500CD
:10285C00FF300A168A15B7230A168A110800C430ED
:10286C008400263083120313CE002830CF000008DA
:10287C00D000040AD1004E08840050088000040ADD
:10288C00CE0051088400CF0B3D2C031000300318F0
:10289C000130A500512C25088313263E8400000826
:1028AC00D70002300A128A1127240A168A11013025
:1028BC0083120313CE004E08A50728302502031CF3
:1028CC00682C692C512C0310003003180130A50022
:1028DC006F2C2B30D70002300A128A1127240A16CB
:1028EC008A112D3083120313D70002300A128A1179
:1028FC0027240A168A11013083120313CE004E08C6
:10290C00A50714302502031C8C2C8D2C6F2C031066
:10291C00003003180130A500932C2030D700023072
:10292C000A128A1127240A168A1101308312031302
:10293C00CE004E08A50750302502031CA62CA72C50
:10294C00932C5530D70002300A128A1127240A160C
:10295C008A11733083120313D70002300A128A11C2
:10296C0027240A168A11653083120313D70002300C
:10297C000A128A1127240A168A1172308312031341
:10298C00D70002300A128A1127240A168A118312E0
:10299C000313A5010314A50DD32C2030D70002304E
:1029AC000A128A1127240A168A1183120313250886
:1029BC008313303ED70002300A128A1127240A16DC
:1029CC008A11013083120313CE004E08A50706307E
:1029DC002502031CF22CF32CD32C0A168A159622F2
:1029EC000A168A11031083120313003003180130E6
:1029FC00A4000310003003180130A5001E2D25087B
:102A0C000A168A15B1220A168A1183120313CE00F4
:102A1C004E08F2007208D70002300A128A112724DD
:102A2C000A168A11013083120313CE004E08A50733
:102A3C0025088313CE00CF010330D000D101240828
:102A4C005007D20051080318510AD3005308803A9A
:102A5C00D4004F08803A5402031D362D4E08520202
:102A6C000318392D3A2D052D2508A4006A2D2508AB
:102A7C000A168A15B1220A168A1183120313CE0084
:102A8C004E08F2002030D70002300A128A11272497
:102A9C000A168A11831203137208FF3A031D572D6D
:102AAC00582D5C2D3030CE004E08F2007208D70045
:102ABC0002300A128A1127240A168A110130831255
:102ACC000313CE004E08A50725088313CE00CF01B3
:102ADC000430D000D10124085007D200510803184B
:102AEC00510AD3005308803AD4004F08803A54025C
:102AFC00031D822D4E0852020318852D862D3D2D67
:102B0C000A168A1596220A168A111030831203139C
:102B1C00A4001030A500AB2D25080A168A15B12289
:102B2C000A168A1183120313CE004E08F2007208A3
:102B3C00D70002300A128A1127240A168A11013092
:102B4C0083120313CE004E08A50725088313CE006D
:102B5C00CF010330D000D10124085007D200510816
:102B6C000318510AD3005308803AD4004F08803A16
:102B7C005402031DC32D4E0852020318C62DC72D37
:102B8C00922D2508A400F72D25080A168A15B122C6
:102B9C000A168A1183120313CE004E08F20020305D
:102BAC00D70002300A128A1127240A168A118312BE
:102BBC0003137208FF3A031DE42DE52DE92D303087
:102BCC00CE004E08F2007208D70002300A128A11A9
:102BDC0027240A168A11013083120313CE004E08E3
:102BEC00A50725088313CE00CF010430D000D101F6
:102BFC0024085007D20051080318510AD300530877
:102C0C00803AD4004F08803A5402031D0F2E4E0810
:102C1C0052020318122E132ECA2D0A168A1596224A
:102C2C000A168A11203083120313A4002030A50049
:102C3C00382E25080A168A15B1220A168A11831213
:102C4C000313CE004E08F2007208D70002300A12AD
:102C5C008A1127240A168A11013083120313CE001D
:102C6C004E08A50725088313CE00CF010330D000F2
:102C7C00D10124085007D20051080318510AD3007F
:102C8C005308803AD4004F08803A5402031D502E4A
:102C9C004E0852020318532E542E1F2E2508A40042
:102CAC00842E25080A168A15B1220A168A11831257
:102CBC000313CE004E08F2002030D70002300A1267
:102CCC008A1127240A168A11831203137208FF3AF9
:102CDC00031D712E722E762E3030CE004E08F2006F
:102CEC007208D70002300A128A1127240A168A1198
:102CFC00013083120313CE004E08A5072508831359
:102D0C00CE00CF010430D000D10124085007D200EE
:102D1C0051080318510AD3005308803AD4004F08C5
:102D2C00803A5402031D9C2E4E08520203189F2E0B
:102D3C00A02E572E0A168A1596220A168A113030A2
:102D4C0083120313A4003030A500C52E25080A16E3
:102D5C008A15B1220A168A1183120313CE004E086B
:102D6C00F2007208D70002300A128A1127240A16C0
:102D7C008A11013083120313CE004E08A5072508D3
:102D8C008313CE00CF010330D000D10124085007AB
:102D9C00D20051080318510AD3005308803AD400CA
:102DAC004F08803A5402031DDD2E4E0852020318C0
:102DBC00E02EE12EAC2E2508A400112F25080A16B2
:102DCC008A15B1220A168A1183120313CE004E08FB
:102DDC00F2002030D70002300A128A1127240A167A
:102DEC008A11831203137208FF3A031DFE2EFF2E65
:102DFC00032F3030CE004E08F2007208D70002309C
:102E0C000A128A1127240A168A110130831203131D
:102E1C00CE004E08A50725088313CE00CF01043041
:102E2C00D000D10124085007D20051080318510AD0
:102E3C00D3005308803AD4004F08803A5402031D43
:102E4C00292F4E08520203182C2F2D2FE42E0A1670
:102E5C008A1596220A168A11403083120313A40095
:102E6C004030A500522F25080A168A15B1220A16E1
:102E7C008A1183120313CE004E08F2007208D70099
:102E8C0002300A128A1127240A168A110130831281
:102E9C000313CE004E08A50725088313CE00CF01DF
:102EAC000330D000D10124085007D2005108031878
:102EBC00510AD3005308803AD4004F08803A540288
:102ECC00031D6A2F4E08520203186D2F6E2F392FD7
:102EDC002508A4009E2F25080A168A15B1220A1669
:102EEC008A1183120313CE004E08F200D701D703C8
:102EFC0002300A128A1127240A168A11831203132C
:102F0C007208FF3A031D8B2F8C2F902F3030CE0080
:102F1C004E08F2007208D70002300A128A112724D8
:102F2C000A168A11013083120313CE004E08A5072E
:102F3C0025088313CE00CF010430D000D101240822
:102F4C005007D20051080318510AD3005308803A95
:102F5C00D4004F08803A5402031DB62F4E0852027B
:102F6C000318B92FBA2F712F0A168A1596220A1632
:102F7C008A11031083120313003003180130A500CB
:102F8C00C72F2030D70002300A128A1127240A16C4
:102F9C008A11013083120313CE004E08A50750305E
:102FAC002502031CDA2FDB2FC72F03100030031868
:102FBC000130A500E12F2B30D70002300A128A1104
:102FCC0027240A168A112D3083120313D7000230DE
:102FDC000A128A1127240A168A110130831203134C
:102FEC00CE004E08A50728302502031CFE2FFF2F0C
:042FFC00E12F0800B9
:1034BA005E2A8C1E612A622A5E2A1A08A900290835
:1034CA008313672A080001300A168A1533230A165D
:1034DA008A15831203130030B4000030B30002309F
:1034EA00B2005830B1000A168A1559230A168A15ED
:1034FA00080083120313A1008D2A071483160313ED
:10350A000710831203138714831603138714952A4B
:10351A008312031321088313023A0319822A952A74
:10352A0008000310003003180130D5009C2A20300F
:10353A00D70002300A128A1127240A168A15013086
:10354A0083120313D6005608D50742305502031CCE
:10355A00AF2AB02A9C2A080083120313D500550803
:10356A008313831203178D007F3083120313D7004E
:10357A0083160317831203135708831603178C0540
:10358A000C14831203170C0883120313D60056086F
:10359A00CE2A080083120313AC0010302C02031841
:1035AA00D72AD82AE12A2C088313803E0A168A15BC
:1035BA0033230A168A15EC2A2C088313EC3EAC0036
:1035CA002C08C03E0A168A1533230A168A150800E3
:1035DA00031083120313003003180130A100F52AE7
:1035EA000A168A155D220A168A1583120313A20087
:1035FA0021088313733E8400220880000130A20050
:10360A002208A10708302102031C0C2B0D2BF52AD6
:10361A0008008312B0000716300883138600871645
:10362A000030B4000030B3000030B2000A30B100FC
:10363A000A168A1559230A168A1583120313871242
:10364A000030B4000030B3000030B2000A30B100DC
:10365A000A168A1559230A168A15080083120313B3
:10366A00AD0007122D088313860087160030B400B8
:10367A000030B3000030B2003230B1000A168A15A9
:10368A0059230A168A158312031387120030B400CD
:10369A000030B3000030B2003230B1000A168A1589
:1036AA0059230A168A1508003408330432043104EF
:1036BA00031D602B612B622B862B0130B500003075
:1036CA00B6000030B7000030B8003508B10236083D
:1036DA00031C360F712B722BB2023708031C370FEB
:1036EA00772B782BB3023808031C380F7D2B7E2BDF
:1036FA00B4023408330432043104031D852B862BAB
:10370A00622B08000310003003180130AE00A32B0F
:10371A002C0884002D080A128A1100250A168A1517
:10372A000A168A150E230A168A1501308312031304
:10373A00AC070318AD0AAF00AF1BAD032D082C046C
:10374A000319A82BA92BB62B2C0884002D080A12C2
:10375A008A1100250A168A150038031DB52BB62BC7
:10376A008D2B08008312A600BB2BBB2B83160317D5
:10377A008C18C02BC12BBA2B831203132508831371
:10378A00831203178D00831203132608831203176B
:10379A008C007F3083120313A7008316031783124A
:1037AA0003132708831603178C05831203130310C8
:1037BA008B1FE02BE12BE22B03148B1383160317C9
:1037CA000C1555308D00AA308D008C140C11831203
:1037DA000313031CF12BF22BF32B8B17F52BF52B71
:1037EA00831603178C18FA2BFB2BF42B0800AA005C
:1037FA002A088313270628062906AB00F5300A1281
:10380A008A11EF270A168A15831203132A088313CB
:10381A000A128A11EF270A168A1583120313270838
:10382A0083130A128A11EF270A168A1583120313C1
:10383A00280883130A128A11EF270A168A15831297
:10384A000313290883130A128A11EF270A168A1505
:10385A0000300A128A11EF270A168A1583120313F7
:10386A002B0883130A128A11EF270A168A15F530D4
:10387A000A128A11EF270A168A15080083120313FF
:10388A00A4000330A5002508A90024088313A60074
:10389A002608A8000310003003180130A7000130E1
:1038AA000A168A15FC230A168A1500300A168A1582
:1038BA00CF220A168A15C83083120313AC000630C9
:1038CA00AD000A168A1587230A168A1514300A16B5
:1038DA008A15CF220A168A15383083120313AC00D0
:1038EA000730AD000A168A1587230A168A1583122D
:1038FA0003130030B4000030B3001330B200883034
:10390A00B1000A168A1559230A168A150A168A1147
:10391A0006200A168A1583120313FD16FD19962C22
:10392A00972C212D0A168A1568220A168A15003044
:10393A000A168A15CF220A168A159530831203139E
:10394A00AC000630AD000A168A1587230A168A15B6
:10395A0014300A168A15CF220A168A15FB308312EA
:10396A000313AC000630AD000A168A1587230A161F
:10397A008A15033083120313A5002508A900240819
:10398A008313A6002608A80003100030031801308C
:10399A00A70002300A168A15FC230A168A150A1687
:1039AA008A1106200A168A1583120313FD19DE2CC2
:1039BA00DF2C212D0A168A1568220A168A1500306C
:1039CA000A168A15CF220A168A159530831203130E
:1039DA00AC000630AD000A168A1587230A168A1526
:1039EA0014300A168A15CF220A168A15B73083129E
:1039FA000313AC000630AD000A168A1587230A168F
:103A0A008A15033083120313A5002508A900240888
:103A1A008313A6002608A8000310003003180130FB
:103A2A00A70003300A168A15FC230A168A150A16F5
:103A3A008A1106200A168A15080003108312031336
:103A4A00003003180130FC007C08A50044300A1637
:103A5A008A15B7230A168A15831203137C08013EB6
:103A6A00A50041300A168A15B7230A168A15831249
:103A7A0003137C08023EA50059300A168A15B7239B
:103A8A000A168A15831203137C08033EA5003130F7
:103A9A000A168A15B7230A168A15103083120313D9
:103AAA00A1002108FC007C08A50044300A168A15EA
:103ABA00B7230A168A15831203137C08013EA50050
:103ACA0041300A168A15B7230A168A158312031378
:103ADA007C08023EA50059300A168A15B7230A1631
:103AEA008A15831203137C08033EA50032300A1696
:103AFA008A15B7230A168A15203083120313A100E8
:103B0A002108FC007C08A50044300A168A15B72350
:103B1A000A168A15831203137C08013EA500413058
:103B2A000A168A15B7230A168A15831203137C0804
:103B3A00023EA50059300A168A15B7230A168A15B5
:103B4A00831203137C08033EA50033300A168A1534
:103B5A00B7230A168A15303083120313A1002108ED
:103B6A00FC007C08A50044300A168A15B7230A16F9
:103B7A008A15831203137C08013EA50041300A16F8
:103B8A008A15B7230A168A15831203137C08023E84
:103B9A00A50059300A168A15B7230A168A15831200
:103BAA0003137C08033EA50034300A168A15B7238E
:103BBA000A168A15403083120313A1002108FC005B
:103BCA007C08A50044300A168A15B7230A168A15F6
:103BDA00831203137C08013EA50041300A168A1598
:103BEA00B7230A168A15831203137C08023EA5001E
:103BFA0059300A168A15B7230A168A15831203132F
:103C0A007C08033EA50035300A168A15B7230A1622
:103C1A008A150800AB000A168A1568220A168A1540
:103C2A00E82F85142B08013A03191C2E1D2E352E58
:103C3A002B08023A0319222E232E352E14300A1687
:103C4A008A15CF220A168A15843083120313AC0010
:103C5A000630AD000A168A1587230A168A15862E9B
:103C6A002B08013A031D3A2E3B2E5E2E00300A160F
:103C7A008A15CF220A168A15953083120313AC00CF
:103C8A000630AD000A168A1587230A168A151430DB
:103C9A000A168A15CF220A168A15FB3083120313D5
:103CAA00AC000630AD000A168A1587230A168A1553
:103CBA00862E2B08023A031D632E642E862E0030B0
:103CCA000A168A15CF220A168A159530831203130B
:103CDA00AC000630AD000A168A1587230A168A1523
:103CEA0014300A168A15CF220A168A15B73083129B
:103CFA000313AC000630AD000A168A1587230A168C
:103D0A008A15831203130030B4000330B3000D3058
:103D1A00B2004030B1000A168A1559230A168A15CC
:103D2A00831203138510FD110A168A1568220A16D2
:103D3A008A15FF2F0514851614300A168A15CF2204
:103D4A000A168A15A33083120313AC000730AD009C
:103D5A000A168A1587230A168A1583120313003056
:103D6A00B4000330B3000D30B2004030B1000A167F
:103D7A008A1559230A168A15831203138512051008
:103D8A00FD150A168A1568220A168A15FF2F0514C8
:103D9A00851614300A168A15CF220A168A15933008
:103DAA0083120313AC000730AD000A168A15872365
:103DBA000A168A15831203130030B4000330B300C5
:103DCA000D30B2004030B1000A168A1559230A167E
:103DDA008A158312031385120510FD150A168A1512
:103DEA0068220A168A15FF2F0514851614300A163A
:103DFA008A15CF220A168A15773083120313AC006C
:103E0A000730AD000A168A1587230A168A15831207
:103E1A0003130030B4000330B3000D30B200403059
:103E2A00B1000A168A1559230A168A158312031332
:103E3A0085120510FD150A168A1568220A168A15B2
:103E4A00FF2F0514851614300A168A15CF220A1672
:103E5A008A152A3083120313AC000730AD000A1604
:103E6A008A1587230A168A15831203130030B400B1
:103E7A000330B3000D30B2004030B1000A168A1583
:103E8A0059230A168A158312031385120510FD1584
:103E9A000A168A1568220A168A15FF2F8514290818
:103EAA00FF3A0319592F5A2F902F00300A168A15F4
:103EBA00CF220A168A15533083120313AC00073037
:103ECA00AD000A168A1587230A168A150B300A16B8
:103EDA008A15CF220A168A15831203132908831317
:103EEA00303E0A168A150E230A168A1514300A1647
:103EFA008A15CF220A168A159B3083120313AC0047
:103F0A000730AD000A168A1587230A168A15831206
:103F1A000313FD11A12F00300A168A15CF220A16A3
:103F2A008A155F3083120313AC000730AD000A16FE
:103F3A008A1587230A168A15831203130030B400E0
:103F4A000330B3000D30B2004030B1000A168A15B2
:103F5A0059230A168A158312031385100A168A151D
:103F6A0068220A168A15FF2F05148514851614303F
:103F7A000A168A15CF220A168A15B7308312031336
:103F8A00AC000730AD000A168A1587230A168A156F
:103F9A00831203130030B4000330B3000D30B200B3
:103FAA004030B1000A168A1559230A168A15831257
:103FBA000313851205108510FD150A168A15682245
:103FCA000A168A15FF2F831203132A088313003A4D
:103FDA000319162E013A03199F2E023A0319532F79
:103FEA00063A0319262F023A0319F92E0F3A031932
:063FFA00CC2EB92F0800D7
:02400E00323F3F
:00000001FF
