:100000000A128A1107280134013401340134D9015C
:10001000CE01CF01D001D101D201D301D401D5014C
:10002000D601D701D8018313C830FD001D30FE0072
:10003000A530FF00A03084000A168A15DD240A12BC
:100040008A115E30FD000030FE000330FF005A30A0
:1000500084000A168A15DD240A128A1183010A1601
:100060008A111A2C00300A128A1504200A128A11E9
:100070000030F9009830FA000A168A15FD250A1298
:100080008A110030F3000330F2000D30F1004030EF
:10009000F0000A168A15CD250A128A1103100030C5
:1000A00003180130F100FF3083120313A700270863
:1000B000F2000310003003180130F30004300A1678
:1000C0008A156C260A128A110A168A15A5260A12A2
:1000D0008A1100300A128A1504200A128A11DE30B1
:1000E000F9009930FA000A168A15FD250A128A11BC
:1000F0000030F3000330F2000D30F1004030F0002A
:100100000A168A15CD250A128A11862800300A128D
:100110008A1504200A128A116830F9009830FA0012
:100120000A168A15FD250A128A1114300A128A1538
:1001300004200A128A118F30F9009A30FA000A1648
:100140008A15FD250A128A110030F3000330F200EF
:100150000D30F1004030F0000A168A15CD250A1244
:100160008A11FF300A168A1530270A128A11831263
:100170000313D919BC28BD288628BE2808000310FF
:1001800000300318013083120313D7005708F3001F
:100190007308F00044300A168A1533260A128A11B1
:1001A000831203135708013EF3007308F000413037
:1001B0000A168A1533260A128A1183120313570866
:1001C000023EF3007308F00059300A168A153326F0
:1001D0000A128A11831203135708033EF3007308AF
:1001E000F00031300A168A1533260A128A1183125A
:1001F00003135708043EF3007308F000FF300A169B
:100200008A1533260A128A11831203135708053EF2
:10021000F3007308F000FF300A168A1533260A121D
:100220008A11831203135708063EF3007308F00087
:10023000FF300A168A1533260A128A118312031315
:100240005708073EF3007308F000FF300A168A15BE
:1002500033260A128A11831203135708083EF3004B
:100260007308F000FF300A168A1533260A128A1125
:100270001030F300730883120313D7005708F300FC
:100280007308F00044300A168A1533260A128A11C0
:10029000831203135708013EF3007308F000413046
:1002A0000A168A1533260A128A1183120313570875
:1002B000023EF3007308F00059300A168A153326FF
:1002C0000A128A11831203135708033EF3007308BE
:1002D000F00032300A168A1533260A128A11831268
:1002E00003135708043EF3007308F000FF300A16AA
:1002F0008A1533260A128A11831203135708053E02
:10030000F3007308F000FF300A168A1533260A122C
:100310008A11831203135708063EF3007308F00096
:10032000FF300A168A1533260A128A118312031324
:100330005708073EF3007308F000FF300A168A15CD
:1003400033260A128A11831203135708083EF3005A
:100350007308F000FF300A168A1533260A128A1134
:100360002030F300730883120313D7005708F300FB
:100370007308F00044300A168A1533260A128A11CF
:10038000831203135708013EF3007308F000413055
:100390000A168A1533260A128A1183120313570884
:1003A000023EF3007308F00059300A168A1533260E
:1003B0000A128A11831203135708033EF3007308CD
:1003C000F00033300A168A1533260A128A11831276
:1003D00003135708043EF3007308F000FF300A16B9
:1003E0008A1533260A128A11831203135708053E11
:1003F000F3007308F000FF300A168A1533260A123C
:100400008A11831203135708063EF3007308F000A5
:10041000FF300A168A1533260A128A118312031333
:100420005708073EF3007308F000FF300A168A15DC
:1004300033260A128A11831203135708083EF30069
:100440007308F000FF300A168A1533260A128A1143
:100450003030F300730883120313D7005708F300FA
:100460007308F00044300A168A1533260A128A11DE
:10047000831203135708013EF3007308F000413064
:100480000A168A1533260A128A1183120313570893
:10049000023EF3007308F00059300A168A1533261D
:1004A0000A128A11831203135708033EF3007308DC
:1004B000F00034300A168A1533260A128A11831284
:1004C00003135708043EF3007308F000FF300A16C8
:1004D0008A1533260A128A11831203135708053E20
:1004E000F3007308F000FF300A168A1533260A124B
:1004F0008A11831203135708063EF3007308F000B5
:10050000FF300A168A1533260A128A118312031342
:100510005708073EF3007308F000FF300A168A15EB
:1005200033260A128A11831203135708083EF30078
:100530007308F000FF300A168A1533260A128A1152
:100540004030F300730883120313D7005708F300F9
:100550007308F00044300A168A1533260A128A11ED
:10056000831203135708013EF3007308F000413073
:100570000A168A1533260A128A11831203135708A2
:10058000023EF3007308F00059300A168A1533262C
:100590000A128A11831203135708033EF3007308EB
:1005A000F00035300A168A1533260A128A11831292
:1005B00003135708043EF3007308F000FF300A16D7
:1005C0008A1533260A128A11831203135708053E2F
:1005D000F3007308F000FF300A168A1533260A125A
:1005E0008A11831203135708063EF3007308F000C4
:1005F000FF300A168A1533260A128A118312031352
:100600005708073EF3007308F000FF300A168A15FA
:1006100033260A128A11831203135708083EF30087
:100620007308F000FF300A168A1533260A128A1161
:10063000080083120313CC004C08013A031D212B40
:10064000222B512C492C492C0519272B282B3F2BC9
:100650002A2B2A2B051D2D2B2E2B2A2B2F2B053039
:100660005B020318342B352B3A2B0130CA004A08A1
:10067000DB070C2CDB010314DB0D0C2C0C2C851977
:10068000422B432B592B452B452B851D482B492BA2
:10069000452B4A2B02305B02031C4F2B502B532B54
:1006A0000130DB020C2C0530CA004A08DB000C2CA0
:1006B0000C2C051A5C2B5D2B0C2C0A168A15EA24CF
:1006C0000A128A11831203138514662B051E692BE7
:1006D0006A2B662B6B2B5B08013A031D702B712B69
:1006E0007C2BFF30CA004A08F0005B080A168A1506
:1006F00033260A128A11CB2B831203135B08023AAA
:10070000031D832B842B8F2BFF30CA004A08F00077
:100710005B080A168A1533260A128A11CB2B83121C
:1007200003135B08033A031D962B972BA22BFF3074
:10073000CA004A08F0005B080A168A1533260A1216
:100740008A11CB2B831203135B08043A031DA92BD8
:10075000AA2BB52BFF30CA004A08F0005B080A1626
:100760008A1533260A128A11CB2B831203135B08D6
:10077000053A031DBC2BBD2BCB2BFF30CA004A080A
:10078000F0005B080A168A1533260A128A11CB2B51
:10079000CB2BCB2BCB2B00300A128A1504200A124C
:1007A0008A111930F9009A30FA000A168A15FD25C7
:1007B0000A128A1104300A128A1504200A128A11B8
:1007C000831203135B08303E0A168A1580250A122D
:1007D0008A1114300A128A1504200A128A117630FE
:1007E000F9009A30FA000A168A15FD250A128A11B4
:1007F0000030F3000330F2000D30F1004030F00023
:100800000A168A15CD250A128A1183120313851040
:1008100059150C2C0C2C0C2C00300A128A150420B3
:100820000A128A111030F9009A30FA000A168A1555
:10083000FD250A128A110D300A128A1504200A12A7
:100840008A11831203135B08303E0A168A1580252D
:100850000A128A110E300A128A1504200A128A110D
:10086000B130F9009A30FA000A168A15FD250A12ED
:100870008A1114300A128A1504200A128A1134309F
:10088000F9009930FA000A168A15FD250A128A1114
:10089000492C83120313591D4E2C4F2C242B591114
:1008A000FA2F4C08023A031D562C572CE62C003028
:1008B000F3000030F2002730F1001030F0000A168B
:1008C0008A15CD250A128A11DE2C00300A128A15EB
:1008D00004200A128A11AC30F9009830FA000A1686
:1008E0008A15FD250A128A1114300A128A1504206D
:1008F0000A128A114D30F9009A30FA000A168A1548
:10090000FD250A128A1119300A128A1504200A12CA
:100910008A11831203135C08303E0A168A1580255B
:100920000A128A11831203130519972C982CAF2CE5
:100930009A2C9A2C051D9D2C9E2C9A2C9F2C0530B0
:100940005C020318A42CA52CAA2C0130CA004A086A
:10095000DC07DE2CDC010314DC0DDE2CDE2C85191B
:10096000B22CB32CC92CB52CB52C851DB82CB92CA8
:10097000B52CBA2C02305C02031CBF2CC02CC32C3B
:100980000130DC02DE2C0530CA004A08DC00DE2C17
:10099000DE2C051ACC2CCD2CDE2CCF2CCF2C051E1A
:1009A000D22CD32CCF2CD42C5C080A168A153027D5
:1009B0000A128A11DE2CDE2CDE2CDE2C83120313AD
:1009C000D91EE32CE42C652CFA2FFA2F4C08033A9D
:1009D000031DEB2CEC2C9D2D0030F3000030F200B9
:1009E0002730F1001030F0000A168A15CD250A12C2
:1009F0008A11952D00300A128A1504200A128A11D4
:100A0000AC30F9009830FA000A168A15FD250A1252
:100A10008A1114300A128A1504200A128A114D30E4
:100A2000F9009A30FA000A168A15FD250A128A1171
:100A300019300A128A1504200A128A11831203132C
:100A40005C08303E0A168A1580250A128A11831224
:100A5000031305192C2D2D2D442D2F2D2F2D051D64
:100A6000322D332D2F2D342D05305C020318392DF6
:100A70003A2D3F2D0130CA004A08DC07952DDC01D4
:100A80000314DC0D952D952D8519472D482D5E2DD0
:100A90004A2D4A2D851D4D2D4E2D4A2D4F2D0230AC
:100AA0005C02031C542D552D582D0130DC02952D70
:100AB0000530CA004A08DC00952D952D051A612DD8
:100AC000622D952D642D642D051E672D682D642DD6
:100AD000692D0310003003180130F1005C08CA00D2
:100AE0004A08F2000330CB004B08F30004300A162A
:100AF0008A156C260A128A110030F3000030F200C9
:100B00000030F1000A30F0000A168A15CD250A12CD
:100B10008A110A168A15A5260A128A11831203134E
:100B2000D916952D952D952D952D83120313D91E2C
:100B30009A2D9B2DFA2CFA2FFA2F4C08043A031DFC
:100B4000A22DA32D252E0310003003180130F10033
:100B50005C08CA004A08F2000330CB004B08F300DF
:100B600005300A168A156C260A128A110030F30025
:100B70000030F2000030F1000A30F0000A168A1549
:100B8000CD250A128A110A168A15A5260A128A117B
:100B900083120313D919CD2DCE2DFA2FCF2D00306E
:100BA0000A128A1504200A128A11DE30F9009930DF
:100BB000FA000A168A15FD250A128A110030F30080
:100BC0000330F2000D30F1004030F0000A168A15B3
:100BD000CD250A128A1100300A128A1504200A1241
:100BE0008A116830F9009830FA000A168A15FD2536
:100BF0000A128A1114300A128A1504200A128A1164
:100C00005730F9009830FA000A168A15FD250A12A5
:100C10008A110030F3000330F2000D30F100403053
:100C2000F0000A168A15CD250A128A11FF300A161D
:100C30008A1530270A128A1183120313D919212E1B
:100C4000222ECF2DFA2FFA2FFA2F4C08053A031D2A
:100C50002A2E2B2ED22E00300A128A1504200A12B8
:100C60008A117830F9009930FA000A168A15FD25A4
:100C70000A128A1114300A128A1504200A128A11E3
:100C8000DF30F9009830FA000A168A15FD250A129D
:100C90008A110030F3000330F2000D30F1004030D3
:100CA000F0000A168A15CD250A128A110A168A152D
:100CB000E9260A128A1183120313D919602E612EB4
:100CC000FA2F00300A128A1504200A128A115330B2
:100CD000F9009A30FA000A168A15FD250A128A11BF
:100CE0000030F3000030F200C330F1005030F0006B
:100CF0000A168A15CD250A128A110310003003182E
:100D00000130F100FF3083120313CA004A08F200D9
:100D10000310003003180130F30004300A168A155E
:100D20006C260A128A110A168A15A5260A128A1139
:100D300000300A128A1504200A128A116830F9005C
:100D40009830FA000A168A15FD250A128A11143005
:100D50000A128A1504200A128A115730F9009830B5
:100D6000FA000A168A15FD250A128A110030F300CE
:100D70000330F2000D30F1004030F0000A168A1501
:100D8000CD250A128A11FF300A168A1530270A1259
:100D90008A1183120313D919CE2ECF2E982EFA2F33
:100DA000FA2FFA2F4C08063A031DD72ED82EDE2E26
:100DB0000A168A11F7210A128A11FA2F83120313D5
:100DC0004C08073A031DE52EE62E1B2F85140A1248
:100DD0008A11BF200A128A1100300A128A150420D3
:100DE0000A128A117930F9009830FA000A168A1529
:100DF000FD250A128A1114300A128A1504200A12DB
:100E00008A113530F9009830FA000A168A15FD2546
:100E10000A128A110030F3000330F2000D30F100A5
:100E20004030F0000A168A15CD250A128A11831265
:100E300003138510FA2F4C08083A031D202F212F89
:100E4000FA2FEE2FEE2F00300A128A1504200A1214
:100E50008A11BC30F9009930FA000A168A15FD256E
:100E60000A128A1114300A128A1504200A128A11F1
:100E70004530F9009930FA000A168A15FD250A1244
:100E80008A11831203130519462F472F982F492FD4
:100E9000492F051D4C2F4D2F492F4E2F0A168A150D
:100EA000EA240A128A1100300A128A1504200A1252
:100EB0008A11BD30F9009830FA000A168A15FD250E
:100EC0000A128A118312031305140030F300023052
:100ED000F2004930F100F030F0000A168A15CD25F5
:100EE0000A128A110A128A1582210A128A111430F2
:100EF0000A128A1504200A128A111330F900983058
:100F0000FA000A168A15FD250A128A110030F3002C
:100F10000130F2008630F100A030F0000A168A1588
:100F2000CD250A128A118312031305105916982F22
:100F300085199B2F9C2FEE2F9E2F9E2F851DA12F55
:100F4000A22F9E2FA32F0A168A15EA240A128A11AD
:100F500000300A128A1504200A128A11BD30F900E5
:100F60009830FA000A168A15FD250A128A11831292
:100F7000031305140030F3000230F2004930F10091
:100F8000F030F0000A168A15CD250A128A110A12CD
:100F90008A15D7230A128A1114300A128A150420DE
:100FA0000A128A111330F9009830FA000A168A15CD
:100FB000FD250A128A110030F3000130F20086305C
:100FC000F100A030F0000A168A15CD250A128A1108
:100FD0008312031305105916EE2FEE2F591EF12F11
:100FE000F22F232F5912FA2FFA2FFA2FFA2FFA2F56
:100FF000FA2FFA2F831203135913D912D9110800AB
:10100800FA0010307A0203180A280B2813287A08E5
:10101800803E0A168A1536250A128A1520287A086B
:10102800EC3EF9007908FA007A08C03E0A168A15DB
:1010380036250A128A1520280800F300672883122B
:10104800031307105130F100F10B28286400F40154
:101058000314F40DF408031D3228332835285928C1
:10106800592870087405031D3A283B284428831220
:10107800031307104F30F100F10B402864004D288E
:101088008312031307144F30F100F10B49284C2841
:101098004D287408F1007107F2007208F400F40892
:1010A800031D57285828352859285A285B285C28B2
:1010B8005D288312031307145530F100F10B6228E1
:1010C80064006C286C287308023A031923286C28DA
:1010D8000800031000300318013083120313D700EF
:1010E8005708F3007308F00044300A168A153326AF
:1010F8000A128A15831203135708013EF300730876
:10110800F00041300A168A1533260A128A1583120E
:1011180003135708023EF3007308F00059300A160B
:101128008A1533260A128A15831203135708033EB9
:10113800F3007308F00031300A168A1533260A12B4
:101148008A151030F300730883120313D700570869
:10115800F3007308F00044300A168A1533260A1281
:101168008A15831203135708013EF3007308F00031
:1011780041300A168A1533260A128A158312031378
:101188005708023EF3007308F00059300A168A1512
:1011980033260A128A15831203135708033EF300F5
:1011A8007308F00032300A168A1533260A128A1597
:1011B8002030F300730883120313D7005708F30095
:1011C8007308F00044300A168A1533260A128A1565
:1011D800831203135708013EF3007308F0004130EF
:1011E8000A168A1533260A128A158312031357081A
:1011F800023EF3007308F00059300A168A153326A8
:101208000A128A15831203135708033EF300730862
:10121800F00033300A168A1533260A128A15303040
:10122800F300730883120313D7005708F3007308F9
:10123800F00044300A168A1533260A128A158312DA
:1012480003135708013EF3007308F00041300A16F3
:101258008A1533260A128A15831203135708023E89
:10126800F3007308F00059300A168A1533260A125B
:101278008A15831203135708033EF3007308F0001E
:1012880034300A168A1533260A128A154030F300BC
:10129800730883120313D7005708F3007308F0008C
:1012A80044300A168A1533260A128A158312031344
:1012B8005708013EF3007308F00041300A168A15FA
:1012C80033260A128A15831203135708023EF300C5
:1012D8007308F00059300A168A1533260A128A153F
:1012E800831203135708033EF3007308F0003530E8
:1012F8000A168A1533260A128A15080003100030C8
:1013080003180130F8007808F5007508F900A629D7
:1013180079080A168A15FE240A128A15F500750836
:1013280083120313D6005608F5007508F000023042
:101338000A128A1521200A128A150130F50075084B
:10134800F907A6297808033EF50000300318013094
:10135800F6007608803AF70080307702031DB62938
:10136800790875020318B929BA298C29BB29790883
:10137800F5007508F800E52979080A168A15FE248B
:101388000A128A15F500750883120313D600560849
:10139800FF3A031DD029D129D6293030F500750828
:1013A800D600D6295608F5007508F00002300A1252
:1013B8008A1521200A128A150130F5007508F907E7
:1013C800E5297808043EF500003003180130F600DE
:1013D8007608803AF70080307702031DF5297908EE
:1013E80075020318F829F929C029FA291030F500DF
:1013F8007508F8007808F5007508F9001D2A7908BD
:101408000A168A15FE240A128A15F5007508831231
:101418000313D6005608F5007508F00002300A12CA
:101428008A1521200A128A150130F5007508F90776
:101438001D2A7808033EF500003003180130F60035
:101448007608803AF70080307702031D2D2A790844
:1014580075020318302A312A032A322A7908F5003E
:101468007508F8005C2A79080A168A15FE240A12FB
:101478008A15F500750883120313D6005608FF3A3B
:10148800031D472A482A4D2A3030F5007508D60032
:101498004D2A5608F5007508F00002300A128A1520
:1014A80021200A128A150130F5007508F9075C2A0F
:1014B8007808043EF500003003180130F60076087D
:1014C800803AF70080307702031D6C2A790875028C
:1014D80003186F2A702A372A712A2030F5007508F8
:1014E800F8007808F5007508F900942A79080A16B2
:1014F8008A15FE240A128A15F5007508831203134B
:10150800D6005608F5007508F00002300A128A1550
:1015180021200A128A150130F5007508F907942A66
:101528007808033EF500003003180130F60076080D
:10153800803AF70080307702031DA42A79087502E3
:101548000318A72AA82A7A2AA92A7908F50075086B
:10155800F800D32A79080A168A15FE240A128A1571
:10156800F500750883120313D6005608FF3A031DC9
:10157800BE2ABF2AC42A3030F5007508D600C42A0E
:101588005608F5007508F00002300A128A15212065
:101598000A128A150130F5007508F907D32A780868
:1015A800043EF500003003180130F6007608803A52
:1015B800F70080307702031DE32A790875020318C3
:1015C800E62AE72AAE2AE82A3030F5007508F8003E
:1015D8007808F5007508F9000B2B79080A168A15A2
:1015E800FE240A128A15F500750883120313D60023
:1015F8005608F5007508F00002300A128A152120F5
:101608000A128A150130F5007508F9070B2B7808BE
:10161800033EF500003003180130F6007608803AE2
:10162800F70080307702031D1B2B79087502031819
:101638001E2B1F2BF12A202B7908F5007508F800BE
:101648004A2B79080A168A15FE240A128A15F5000B
:10165800750883120313D6005608FF3A031D352B6D
:10166800362B3B2B3030F5007508D6003B2B56083F
:10167800F5007508F00002300A128A1521200A12B6
:101688008A150130F5007508F9074A2B7808043ED9
:10169800F500003003180130F6007608803AF700AC
:1016A80080307702031D5A2B7908750203185D2BC9
:1016B8005E2B252B5F2B4030F5007508F800780865
:1016C800F5007508F900822B79080A168A15FE2498
:1016D8000A128A15F500750883120313D6005608F6
:1016E800F5007508F00002300A128A1521200A1246
:1016F8008A150130F5007508F907822B7808033E32
:10170800F500003003180130F6007608803AF7003B
:1017180080307702031D922B790875020318952BE8
:10172800962B682B972B7908F5007508F800C12BC4
:1017380079080A168A15FE240A128A15F500750812
:1017480083120313D6005608FF3A031DAC2BAD2BAA
:10175800B22B3030F5007508D600B22B5608F500CC
:101768007508F00002300A128A1521200A128A151B
:101778000130F5007508F907C12B7808043EF5001B
:10178800003003180130F6007608803AF700803000
:101798007702031DD12B790875020318D42BD52B9A
:1017A8009C2BD62B080020308400A030F7000408BA
:1017B800F8002830F9007708840083130008FA003D
:1017C800F70A780884007A088000F80AF90BDF2BFA
:1017D800031000300318013083120313C9002830A6
:1017E8004902031CF82BF92BFB2B162C162C490845
:1017F800203E840083130008F7007708F0000230C9
:101808000A128A1521200A128A150130F700770872
:1018180083120313C90728304902031C142C152C02
:10182800FB2B162C0310003003180130C9001430AC
:101838004902031C202C212C232C442C442C2B3013
:10184800F7007708F00002300A128A1521200A12E0
:101858008A152D30F7007708F00002300A128A1531
:1018680021200A128A150130F70077088312031322
:10187800C90714304902031C422C432C232C442C46
:101888000310003003180130C90050304902031C0E
:101898004E2C4F2C512C682C682C2030F7007708E0
:1018A800F00002300A128A1521200A128A15013026
:1018B800F700770883120313C90750304902031C45
:1018C800662C672C512C682C5530F7007708F000EF
:1018D80002300A128A1521200A128A157330F7007D
:1018E8007708F00002300A128A1521200A128A1598
:1018F8006530F7007708F00002300A128A152120B7
:101908000A128A157230F7007708F00002300A12BE
:101918008A1521200A128A1583120313C901031498
:10192800C90D06304902031C9A2C9B2C9D2CC12CF6
:10193800C12C2030F7007708F00002300A128A150F
:1019480021200A128A15831203134908303EF70032
:101958007708F00002300A128A1521200A128A1527
:101968000130F700770883120313C90706304902CC
:10197800031CBF2CC02C9D2CC12C0A168A151325BC
:101988000A128A150310003003180130831203135A
:10199800C8004808F7007708C900F02C8312031321
:1019A80049080A168A15FE240A128A15F7007708CC
:1019B80083120313D6005608F7007708F0000230A8
:1019C8000A128A1521200A128A150130F7007708B1
:1019D80083120313C907F02C4808033EF7000030B0
:1019E80003180130F8007808803AF900803079024D
:1019F800031D002D490877020318032D042DD22C4E
:101A0800052D831203134908F7007708C800412DF4
:101A18008312031349080A168A15FE240A128A1526
:101A2800F700770883120313D6002030F7007708F1
:101A3800F00002300A128A1521200A128A15831230
:101A480003135608FF3A031D2A2D2B2D302D303055
:101A5800F7007708D600302D5608F7007708F00011
:101A680002300A128A1521200A128A150130F7005D
:101A7800770883120313C907412D4808043EF7006D
:101A8800003003180130F8007808803AF9008030F7
:101A98007902031D512D490877020318542D552D3D
:101AA8000C2D562D0A168A1513250A128A15103080
:101AB800F700770883120313C8004808F70077086F
:101AC800C900842D8312031349080A168A15FE24B7
:101AD8000A128A15F700770883120313D6005608EE
:101AE800F7007708F00002300A128A1521200A123E
:101AF8008A150130F700770883120313C907842D6C
:101B08004808033EF700003003180130F800780851
:101B1800803AF90080307902031D942D4908770234
:101B28000318972D982D662D992D831203134908B4
:101B3800F7007708C800D52D8312031349080A1641
:101B48008A15FE240A128A15F700770883120313F0
:101B5800D6002030F7007708F00002300A128A1504
:101B680021200A128A15831203135608FF3A031D0F
:101B7800BE2DBF2DC42D3030F7007708D600C42DF8
:101B88005608F7007708F00002300A128A1521205B
:101B98000A128A150130F700770883120313C90760
:101BA800D52D4808043EF700003003180130F8002E
:101BB8007808803AF90080307902031DE52D49083C
:101BC80077020318E82DE92DA02DEA2D0A168A15AB
:101BD80013250A128A152030F70077088312031399
:101BE800C8004808F7007708C900182E83120313A5
:101BF80049080A168A15FE240A128A15F70077087A
:101C080083120313D6005608F7007708F000023055
:101C18000A128A1521200A128A150130F70077085E
:101C280083120313C907182E4808033EF700003033
:101C380003180130F8007808803AF90080307902FA
:101C4800031D282E4908770203182B2E2C2EFA2D57
:101C58002D2E831203134908F7007708C800692E50
:101C68008312031349080A168A15FE240A128A15D4
:101C7800F700770883120313D6002030F70077089F
:101C8800F00002300A128A1521200A128A158312DE
:101C980003135608FF3A031D522E532E582E303088
:101CA800F7007708D600582E5608F7007708F00096
:101CB80002300A128A1521200A128A150130F7000B
:101CC800770883120313C907692E4808043EF700F2
:101CD800003003180130F8007808803AF9008030A5
:101CE8007902031D792E4908770203187C2E7D2E70
:101CF800342E7E2E0A168A1513250A128A153030BC
:101D0800F700770883120313C8004808F70077081C
:101D1800C900AC2E8312031349080A168A15FE243B
:101D28000A128A15F700770883120313D60056089B
:101D3800F7007708F00002300A128A1521200A12EB
:101D48008A150130F700770883120313C907AC2EF0
:101D58004808033EF700003003180130F8007808FF
:101D6800803AF90080307902031DBC2E49087702B9
:101D78000318BF2EC02E8E2EC12E831203134908BE
:101D8800F7007708C800FD2E8312031349080A16C6
:101D98008A15FE240A128A15F7007708831203139E
:101DA800D6002030F7007708F00002300A128A15B2
:101DB80021200A128A15831203135608FF3A031DBD
:101DC800E62EE72EEC2E3030F7007708D600EC2E02
:101DD8005608F7007708F00002300A128A15212009
:101DE8000A128A150130F700770883120313C9070E
:101DF800FD2E4808043EF700003003180130F800B3
:101E08007808803AF90080307902031D0D2F4908BF
:101E180077020318102F112FC82E122F0A168A15B1
:101E280013250A128A154030F70077088312031326
:101E3800C8004808F7007708C900402F8312031329
:101E480049080A168A15FE240A128A15F700770827
:101E580083120313D6005608F7007708F000023003
:101E68000A128A1521200A128A150130F70077080C
:101E780083120313C907402F4808033EF7000030B8
:101E880003180130F8007808803AF90080307902A8
:101E9800031D502F490877020318532F542F222F60
:101EA800552F831203134908F7007708C800912FAC
:101EB8008312031349080A168A15FE240A128A1582
:101EC800F700770883120313D600FF30F70077086E
:101ED800F00002300A128A1521200A128A1583128C
:101EE80003135608FF3A031D7A2F7B2F802F3030BB
:101EF800F7007708D600802F5608F7007708F0001B
:101F080002300A128A1521200A128A150130F700B8
:101F1800770883120313C907912F4808043EF70076
:101F2800003003180130F8007808803AF900803052
:101F38007902031DA12F490877020318A42FA52FA2
:101F48005C2FA62F0A168A1513250A128A15031064
:101F580000300318013083120313C90050304902BE
:101F6800031CB72FB82FBA2FD12FD12F2030F7004D
:101F78007708F00002300A128A1521200A128A1501
:101F88000130F700770883120313C907503049025C
:101F9800031CCF2FD02FBA2FD12F031000300318D6
:101FA8000130C90028304902031CDB2FDC2FDE2F4B
:101FB800FF2FFF2F2B30F7007708F00002300A12AE
:101FC8008A1521200A128A152D30F7007708F000AB
:101FD80002300A128A1521200A128A150130F700E8
:101FE800770883120313C90728304902031CFD2F01
:081FF800FE2FDE2FFF2F080071
:10200A00F00015288312031307148316031307100D
:10201A008312031387148316031387141A281A28A2
:10202A007008023A031907281A28080083120313B2
:10203A00A0000A168A15EA240A168A11E2298312CE
:10204A00031385142008013A03192C282D28432844
:10205A002008023A031932283328432814300A1276
:10206A008A1504200A168A118A30F9009830FA0073
:10207A000A168A15FD250A168A1193288312031354
:10208A002008013A031D4A284B286A2800300A1200
:10209A008A1504200A168A119B30F9009830FA0032
:1020AA000A168A15FD250A168A1114300A128A158B
:1020BA0004200A168A119A30F9009930FA000A1691
:1020CA008A15FD250A168A119328831203132008FC
:1020DA00023A031D71287228932800300A128A15C1
:1020EA0004200A168A119B30F9009830FA000A1661
:1020FA008A15FD250A168A1114300A128A15042037
:10210A000A168A11AB30F9009930FA000A168A15B4
:10211A00FD250A168A119328932893280030F30084
:10212A000330F2000D30F1004030F0000A168A1533
:10213A00CD250A168A11831203138510D9110A169E
:10214A008A15EA240A168A11F6298312031305143A
:10215A00851614300A128A1504200A168A119E302E
:10216A00F9009A30FA000A168A15FD250A168A110C
:10217A000030F3000330F2000D30F1004030F0007F
:10218A000A168A15CD250A168A1183120313851297
:10219A000510D9150A168A15EA240A168A11F6298B
:1021AA00831203130514851614300A128A150420A3
:1021BA000A168A118730F9009A30FA000A168A1527
:1021CA00FD250A168A110030F3000330F2000D30A3
:1021DA00F1004030F0000A168A15CD250A168A1138
:1021EA008312031385120510D9150A168A15EA24D3
:1021FA000A168A11F6298312031305148516143058
:10220A000A128A1504200A168A116B30F9009A30CC
:10221A00FA000A168A15FD250A168A110030F300FB
:10222A000330F2000D30F1004030F0000A168A1532
:10223A00CD250A168A118312031385120510D915A2
:10224A000A168A15EA240A168A11F6298312031332
:10225A000514851614300A128A1504200A168A11E2
:10226A001E30F9009A30FA000A168A15FD250A1658
:10227A008A110030F3000330F2000D30F1004030D3
:10228A00F0000A168A15CD250A168A11831203133D
:10229A0085120510D9150A168A15EA240A168A1112
:1022AA00F6298312031385147C08FF3A03195E2961
:1022BA005F298E2900300A128A1504200A168A110B
:1022CA004730F9009A30FA000A168A15FD250A16CF
:1022DA008A110B300A128A1504200A168A117C0800
:1022EA00303E0A168A1580250A168A1114300A12F7
:1022FA008A1504200A168A117F30F9009A30FA00EA
:10230A000A168A15FD250A168A1183120313D91192
:10231A009E2900300A128A1504200A168A115F3093
:10232A00F9009A30FA000A168A15FD250A168A114A
:10233A009E290030F3000330F2000D30F1004030E6
:10234A00F0000A168A15CD250A168A11831203137C
:10235A0085100A168A15EA240A168A11F6298312A2
:10236A00031305148514851614300A128A150420DD
:10237A000A168A11AB30F9009A30FA000A168A1541
:10238A00FD250A168A110030F3000330F2000D30E1
:10239A00F1004030F0000A168A15CD250A168A1176
:1023AA0083120313851205108510D9150A168A158A
:1023BA00EA240A168A11F629F6297D08003A031931
:1023CA002428013A0319AA28023A03195629063A77
:1023DA0003192B29023A031900290F3A0319D528A0
:1023EA00B42908000A168A15EA240A168A11003046
:1023FA000A128A1504200A168A110030F9009A3046
:10240A00FA000A168A15FD250A168A1114300A12CC
:10241A008A1504200A168A110310003003180130A5
:10242A00FD0004307D02031C1B2A1C2A1E2A3A2A9C
:10243A003A2A7D080A168A15FE240A168A11FC0011
:10244A007C0883120313D60056080A168A158025BB
:10245A000A168A110130FC007C08FD0704307D024F
:10246A00031C382A392A1E2A3A2A0430FC007C081E
:10247A00FD0009307D02031C432A442A462A682AA1
:10248A00682A20300A168A1580250A168A117D08BC
:10249A000A168A15FE240A168A11FC007C08831281
:1024AA000313D60056080A168A1580250A168A11B9
:1024BA000130FC007C08FD0709307D02031C662AF6
:1024CA00672A462A682A0030F3000430F200933063
:1024DA00F100E030F0000A168A15CD250A168A1195
:1024EA0014300A128A1504200A168A111030FC00C8
:1024FA007C08FD0014307D02031C842A852A872A61
:10250A00A32AA32A7D080A168A15FE240A168A1106
:10251A00FC007C0883120313D60056080A168A1593
:10252A0080250A168A110130FC007C08FD07143048
:10253A007D02031CA12AA22A872AA32A1430FC009E
:10254A007C08FD0019307D02031CAC2AAD2AAF2A93
:10255A00D12AD12A20300A168A1580250A168A110C
:10256A007D080A168A15FE240A168A11FC007C08C0
:10257A0083120313D60056080A168A1580250A16EE
:10258A008A110130FC007C08FD0719307D02031C0A
:10259A00CF2AD02AAF2AD12A0030F3000430F20021
:1025AA009330F100E030F0000A168A15CD250A169C
:1025BA008A1114300A128A1504200A168A11203048
:1025CA00FC007C08FD0024307D02031CED2AEE2A63
:1025DA00F02A0C2B0C2B7D080A168A15FE240A16E3
:1025EA008A11FC007C0883120313D60056080A16C7
:1025FA008A1580250A168A110130FC007C08FD071D
:10260A0024307D02031C0A2B0B2BF02A0C2B2430BE
:10261A00FC007C08FD0029307D02031C152B162BBB
:10262A00182B3A2B3A2B20300A168A1580250A16BF
:10263A008A117D080A168A15FE240A168A11FC00D8
:10264A007C0883120313D60056080A168A158025B9
:10265A000A168A110130FC007C08FD0729307D0228
:10266A00031C382B392B182B3A2B0030F30004307B
:10267A00F2009330F100E030F0000A168A15CD25F9
:10268A000A168A1114300A128A1504200A168A11A7
:10269A003030FC007C08FD0034307D02031C562BD0
:1026AA00572B592B752B752B7D080A168A15FE2474
:1026BA000A168A11FC007C0883120313D6005608F6
:1026CA000A168A1580250A168A110130FC007C0830
:1026DA00FD0734307D02031C732B742B592B752B89
:1026EA003430FC007C08FD0039307D02031C7E2B4F
:1026FA007F2B812BA32BA32B20300A168A1580252A
:10270A000A168A117D080A168A15FE240A168A11E3
:10271A00FC007C0883120313D60056080A168A1591
:10272A0080250A168A110130FC007C08FD07393021
:10273A007D02031CA12BA22B812BA32B0030F300BB
:10274A000430F2009330F100E030F0000A168A15E6
:10275A00CD250A168A1114300A128A1504200A167F
:10276A008A114030FC007C08FD0044307D02031CC5
:10277A00BF2BC02BC22BDE2BDE2B7D080A168A1537
:10278A00FE240A168A11FC007C0883120313D60061
:10279A0056080A168A1580250A168A110130FC0085
:1027AA007C08FD0744307D02031CDC2BDD2BC22B89
:1027BA00DE2B4430FC007C08FD0049307D02031CFE
:1027CA00E72BE82BEA2B0C2C0C2C20300A168A1546
:1027DA0080250A168A117D080A168A15FE240A1609
:1027EA008A11FC007C0883120313D60056080A16C5
:1027FA008A1580250A168A110130FC007C08FD071B
:10280A0049307D02031C0A2C0B2CEA2B0C2C0030BD
:10281A00F3000430F2009330F100E030F0000A16C1
:10282A008A15CD250A168A1108001C30831603134F
:10283A00850086018030870086309F0001300A16A5
:10284A008A1536250A168A1102300A168A1536257D
:10285A000A168A1106300A168A1536250A168A11A8
:10286A000C300A168A1536250A168A1138300A16C5
:10287A008A1536250A168A118312031385128510C2
:10288A000A168A15EA240A168A1100300A128A15CB
:10289A0004200A168A113A30F9009A30FA000A1608
:1028AA008A15FD250A168A1114300A128A1504207F
:1028BA000A168A11A530F9009A30FA000A168A1502
:1028CA00FD250A168A110030F3000330F2000D309C
:1028DA00F1004030F0000A168A15CD250A168A1131
:1028EA000A168A15EA240A168A1140308316031337
:1028FA0099001815981683120313181698170519B4
:10290A00872C882CAA2C85198B2C8C2CAA2C00306D
:10291A00F3000130F2008630F100A030F0000A1610
:10292A008A15CD250A168A118312031305199E2CBE
:10293A009F2CAA2C8519A22CA32CAA2C0A128A1124
:10294A0032200A168A11AA2CAA2C03100030031866
:10295A000130F100103083120313CD004D08F2004C
:10296A000310003003180130F3002E300A168A15BE
:10297A006C260A168A110030F3000030F20000308B
:10298A00F1000A30F0000A168A15CD250A168A11B6
:10299A000A168A155B250A168A11031000300318D5
:1029AA000130F100F2010314F20D03100030031894
:1029BA000130F3002D300A168A156C260A168A1180
:1029CA000030F3000030F2000030F1000A30F0006D
:1029DA000A168A15CD250A168A110A168A155B2542
:1029EA000A168A1101300A168A1105200A168A1156
:1029FA000A128A156D200A168A114C2D4C2D0030A8
:102A0A000A128A1504200A168A112330F90099300D
:102A1A00FA000A168A15FD250A168A1114300A12B6
:102A2A008A1504200A168A110130F9009930FA0031
:102A3A000A168A15FD250A168A1183120313051927
:102A4A00272D282D3E2D2A2D2A2D051D2D2D2E2DE3
:102A5A002A2D2F2D0A168A15E9260A168A1183129B
:102A6A000313D919392D3A2D4C2DD914D9174C2DB8
:102A7A004C2D8519412D422D4C2D442D442D851D5B
:102A8A00472D482D442DD910D9174C2D4C2D831282
:102A9A000313D91F512D522D042D532D0A168A15B1
:102AAA00EA240A168A11672E05195C2D5D2D742DEC
:102ABA005F2D5F2D051D622D632D5F2D642D08305E
:102ACA005D020318692D6A2D6F2D0130CD004D0866
:102ADA00DD079C2DDD010314DD0D9C2D9C2D851930
:102AEA00772D782D8E2D7A2D7A2D851D7D2D7E2D93
:102AFA007A2D7F2D02305D02031C842D852D882DB1
:102B0A000130DD029C2D0830CD004D08DD009C2DE2
:102B1A009C2D051A912D922D9C2D942D942D051ED8
:102B2A00972D982D942D59179C2D9C2D9C2D003056
:102B3A000A128A1504200A168A119730F9009A3067
:102B4A00FA000A168A15FD250A168A1106300A1293
:102B5A008A1504200A168A11831203135D08303E6F
:102B6A000A168A1580250A168A1107300A128A154A
:102B7A0004200A168A11B430F9009A30FA000A16AB
:102B8A008A15FD250A168A1114300A128A1504209C
:102B9A000A168A11831203135D08013A031DD62D02
:102BAA00D72DE12D4630F9009830FA000A168A1519
:102BBA00FD250A168A11672E831203135D08023A4D
:102BCA00031DE82DE92DF32D1230F9009930FA0092
:102BDA000A168A15FD250A168A11672E831203130F
:102BEA005D08033A031DFA2DFB2D052EF030F9007E
:102BFA009830FA000A168A15FD250A168A11672ED8
:102C0A00831203135D08043A031D0C2E0D2E172E92
:102C1A005630F9009930FA000A168A15FD250A1667
:102C2A008A11672E831203135D08053A031D1E2EAF
:102C3A001F2E292ECE30F9009830FA000A168A156E
:102C4A00FD250A168A11672E831203135D08063AB8
:102C5A00031D302E312E3B2E6730F9009930FA00D1
:102C6A000A168A15FD250A168A11672E831203137E
:102C7A005D08073A031D422E432E4D2EEF30F90010
:102C8A009930FA000A168A15FD250A168A11672E46
:102C9A00831203135D08083A031D542E552E672E1E
:102CAA002430F9009830FA000A168A15FD250A160A
:102CBA008A11672E672E672E672E672E672E672E5C
:102CCA00672E672E83120313591B6C2E6D2ED12F7C
:102CDA00D91C702E712ED12FD91B742E752E592DF9
:102CEA00D12FD12FD12F792E00300A128A15042024
:102CFA000A168A111030F9009A30FA000A168A1553
:102D0A00FD250A168A110D300A128A1504200A16A0
:102D1A008A11FF300A168A15FE240A168A118312AE
:102D2A000313CD004D08DA005A08303E0A168A15F8
:102D3A0080250A168A1114300A128A1504200A16E6
:102D4A008A118930F9009930FA000A168A15FD2588
:102D5A000A168A1183120313051AB42EB52E792E78
:102D6A00B72EB72E051EBA2EBB2EB72EBC2E0310B9
:102D7A00003003180130F10003100030031801304D
:102D8A00F2000310003003180130F3000C300A1669
:102D9A008A156C260A168A110A168A15EA240A1650
:102DAA008A1100300A128A1504200A168A11CD30B7
:102DBA00F9009930FA000A168A15FD250A168A11B1
:102DCA0014300A128A1504200A168A112C30F900C6
:102DDA009A30FA000A168A15FD250A168A11003059
:102DEA00F3000030F2000030F1006430F0000A16FF
:102DFA008A15CD250A168A110A168A15A5260A16D3
:102E0A008A1183120313D9190B2F0C2F792E5A0802
:102E1A00013A031D112F122F312F0310003003180E
:102E2A000130D70057085107033ECD004D08F00086
:102E3A002F300A168A1533260A168A110030F30033
:102E4A000030F2000030F1006430F0000A168A15F2
:102E5A00CD250A168A11792E831203135A08023ACB
:102E6A00031D382F392F572F1030CD004D08D700AA
:102E7A0057085107033ECD004D08F0002F300A16BF
:102E8A008A1533260A168A110030F3000030F20040
:102E9A000030F1006430F0000A168A15CD250A16B2
:102EAA008A11792E831203135A08033A031D5E2FDF
:102EBA005F2F7D2F2030CD004D08D70057085107CE
:102ECA00033ECD004D08F0002F300A168A1533262E
:102EDA000A168A110030F3000030F2000030F100C7
:102EEA006430F0000A168A15CD250A168A11792E41
:102EFA00831203135A08043A031D842F852FA32F24
:102F0A003030CD004D08D70057085107033ECD0099
:102F1A004D08F0002F300A168A1533260A168A1130
:102F2A000030F3000030F2000030F1006430F000AD
:102F3A000A168A15CD250A168A11792E83120313C9
:102F4A005A08053A031DAA2FAB2F792E4030CD001F
:102F5A004D08D70057085107033ECD004D08F00031
:102F6A002F300A168A1533260A168A110030F30002
:102F7A000030F2000030F1006430F0000A168A15C1
:102F8A00CD250A168A11792E792E792E792E792E47
:102F9A00792E792E792E792E83120313591BD62F67
:102FAA00D72FE12FD918DA2FDB2FE12FD91BDE2FEC
:102FBA00DF2F792EE12FE12F0A168A15EA240A1645
:102FCA008A11831203135D080A128A1119230A1639
:102FDA008A110030F3000030F2000030F1000A30AC
:102FEA00F0000A168A15CD250A168A114C2D4C2D89
:102FFA000A128A11002852346534733465347434E1
:10300A00743469346E3467342034413464346D3432
:10301A0069346E342E342E342E34003444346F34F2
:10302A006E34653420342034203420342034203463
:10303A0020342034203420342034203400344534E1
:10304A00783470346F347234743420342034203439
:10305A0020342034203420342034203420340034E6
:10306A0043346C34653461347234653464342034E6
:10307A0020342034203420342034203420342034A6
:10308A00003453346534743420344434613479342C
:10309A002034203420342034203420342034203486
:1030AA00203400345334743461346E3464346234FA
:1030BA00793420342034203420342034203420340D
:1030CA002034203400344E3465347734203441348B
:1030DA0064346D3469346E3420342034203420341E
:1030EA002034203420340034413474347434653448
:1030FA006E34643461346E3463346534203420347D
:10310A00203420342034203400345334753463346A
:10311A006334653473347334663475346C342034F0
:10312A00203420342034203420340034533463349F
:10313A0061346E346E3469346E3467342E342E340E
:10314A002E342034203420342034203400344334C4
:10315A0068346F346F3473346534203455347334BF
:10316A00653472342034203420342034203400343E
:10317A00553470346C346F346134643469346E3469
:10318A0067342E342E342E34203420342034203424
:10319A0000344334683461346E346734653420341F
:1031AA00413464346D3469346E342034203420342C
:1031BA002034003446346F3472346D3461346C34E4
:1031CA002034413464346D3469346E34203420340C
:1031DA00203420340034443465346C346534743417
:1031EA0065342034613420344434613474346134B5
:1031FA00203420342034003432342E3420345534F0
:10320A0073346534723420346C346F3467346934FF
:10321A006E3420342034203400344134643464342D
:10322A002034613420344E346534773420344434C5
:10323A0061347434613420342034003431342E340F
:10324A002034413464346D3469346E3420346C343F
:10325A006F34673469346E34203420340034503487
:10326A007234653473347334203433342034743410
:10327A006F34203473346534743420342034003489
:10328A0032342E3420344534783470346F34723406
:10329A007434203474346F34203448345434203431
:1032AA000034443465346C34653474346534203401
:1032BA0041346C346C3420344434613474346134B1
:1032CA002034003456346934653477342034413438
:1032DA007434743465346E34643461346E346334F3
:1032EA0065342034003456346534723469346634B3
:1032FA00693463346134743469346F346E3420341D
:10330A006F34663420340034503472346534733484
:10331A00733420343334203474346F3420346D34AD
:10332A00613472346B342034003456346534723468
:10333A0069346634693463346134743469346F349B
:10334A006E34203431342F343234003456346534F8
:10335A007234693466346934633461347434693478
:10336A006F346E34203432342F34323400343134F2
:10337A002E3420344534783470346F3472347434D3
:10338A00203474346F34203447345534493400348B
:10339A0050346C34613463346534203479346F3496
:1033AA007534723420347434683475346D3462344C
:1033BA0000344E34653477342034413464346D3407
:1033CA0069346E3420344E3465346534643465347B
:1033DA006434003443346C346534613472342034D8
:1033EA0041347434743465346E34643461346E3404
:1033FA00633465340034553473346534723420349C
:10340A0031342034323420343334203434342034C8
:10341A0035342034003454346F34643461347934AC
:10342A002034693473342034443461347934203498
:10343A000034413463346334653473347334203470
:10344A00443465346E3469346534643400346F341A
:10345A006E342034743468346534203477346934F3
:10346A006E3464346F3477340034433479347434CA
:10347A0072346F346E3420345434653463346834AF
:10348A002E340034483465346C346C346F34203450
:10349A00553473346534723420340034443465341A
:1034AA006C346534743469346E3467342E342E3493
:1034BA002E340034483465346C346C346F34203420
:1034CA00413464346D3469346E34003455347334A1
:1034DA00653472342034453478346934733474343E
:1034EA000034533465346C3465346334743465346D
:1034FA0064340034573465346C3463346F346D3457
:10350A0065340034543469346D3465346F34753439
:10351A00743400345334743461346E346434623431
:10352A00793400344D346F34643465343D34203496
:10353A0000344634613469346C346534643400349C
:10354A0050345234203432343934003445347234ED
:10355A0072346F34723400342F34353400342F34DB
:10356A0038340034FF1BC12A83137F1883170008DD
:10357A00840A0319FF0A08007F087F398A000408B1
:08358A00840A0319FF0A820004
:10397C00F000C02C831203130C1EC52CC62CC02CBB
:10398C00C72C700899000800CB2C831203138C1ED3
:10399C00D02CD12CCB2CD22C1A08F0007008F100B2
:1039AC007108D82C08007E088A007F088200D92470
:1039BC000A168A158000840A04087D06031900344F
:1039CC00FF0A0319FE0ADD2C01300A168A1536256A
:1039DC000A168A150030F3000030F2000230F100B4
:1039EC005830F0000A168A15CD250A168A150800DB
:1039FC00F1007108831203178D003F30F00070083E
:103A0C00831603178C050C14831203170C08F00093
:103A1C007008F2007208122D080003100030031811
:103A2C000130F60042307602031C1D2D1E2D202D78
:103A3C00352D352D2030F5007508F00002300A12B6
:103A4C008A1521200A168A150130F5007508F6072B
:103A5C0042307602031C332D342D202D352D0800D9
:103A6C00F8008312031307127808860087160030BB
:103A7C00F3000030F2000030F1003230F0000A1692
:103A8C008A15CD250A168A15831203138712003066
:103A9C00F3000030F2000030F1003230F0000A1672
:103AAC008A15CD250A168A15080003100030031854
:103ABC000130F30008307302031C652D662D682D50
:103ACC007F2D7F2D0A168A15CA240A168A15F20034
:103ADC0073084E3E84007208831380000130F2009C
:103AEC007208F30708307302031C7D2D7E2D682DA0
:103AFC007F2D0800F8008312031307167808860040
:103B0C0087160030F3000030F2000030F1000A306C
:103B1C00F0000A168A15CD250A168A15831203138E
:103B2C0087120030F3000030F2000030F1000A3050
:103B3C00F0000A168A15CD250A168A1508002B34B2
:103B4C002D342B342D342B342D3420344134743417
:103B5C00743465346E34643461346E346334653477
:103B6C0020344C3469347334743420342D342B3475
:103B7C002D342B342D342034433479347434723452
:103B8C006F346E3420345034523432343934730838
:103B9C00720471047004031DD42DD52DD72DFC2D6A
:103BAC00FC2D0130F4000030F5000030F600003040
:103BBC00F7007408F0027508031C750FE62DE72D4D
:103BCC00F1027608031C760FEC2DED2DF20277082E
:103BDC00031C770FF22DF32DF3027308720471049A
:103BEC007004031DFA2DFB2DD72DFC2D080003109E
:103BFC00003003180130FB001A2E7A0883120313CD
:103C0C00FF00790884000A168A15B7220A168A154D
:103C1C000A168A1580250A168A150130F907031829
:103C2C00FA0A0030FA071A2E7A08790403191F2EA3
:103C3C00202E322E7A0883120313FF007908840099
:103C4C000A168A15B7220A168A150038031D2F2E5C
:103C5C00302E032E322E322E0800F200352E831613
:103C6C0003178C183A2E3B2E352E3C2E70088312DF
:103C7C0003178D0072088C003F30F1007108831619
:103C8C0003178C058312031303108B1F4E2E4F2E1C
:103C9C00502E03148B13831603170C1555308D00FF
:103CAC00AA308D008C140C1183120313031C5F2E8D
:103CBC00602E642E8B17642E642E642E83160317CD
:103CCC008C18692E6A2E642E6B2E0800F60076086E
:103CDC00710672067306F4007408F500F5300A16C6
:103CEC008A15BE240A168A1576080A168A15BE2469
:103CFC000A168A1571080A168A15BE240A168A1520
:103D0C0072080A168A15BE240A168A1573080A1632
:103D1C008A15BE240A168A1500300A168A15BE2486
:103D2C000A168A1575080A168A15BE240A168A15EB
:103D3C00F5300A168A15BE240A168A1508000310D7
:103D4C0000300318013083120313A3000830230240
:103D5C00031CB12EB22EB42ECD2ECD2E0A168A15E2
:103D6C00CA240A168A1583120313A10023084E3E97
:103D7C0084002108831380000130A1002108A307CF
:103D8C0008302302031CCB2ECC2EB42ECD2E510882
:103D9C00A1002108FC005208A2002208FD004F08D7
:103DAC000A168A111B200A168A150030F3000030FF
:103DBC00F2000330F100E830F0000A168A15CD2528
:103DCC000A168A1508000310003003180130F100A0
:103DDC00FF3083120313A4002408F20003100030F8
:103DEC0003180130F3000B300A168A156C260A16DC
:103DFC008A1500300A128A1504200A168A15CD304D
:103E0C00F9009930FA000A168A15FD250A168A154A
:103E1C0014300A128A1504200A168A152C30F9005F
:103E2C009A30FA000A168A15FD250A168A150030F2
:103E3C00F3000030F2000030F1006430F0000A169C
:103E4C008A15CD250A168A150A168A15A5260A166C
:103E5C008A15080083120313A60003100030031800
:103E6C000130F1002608A4002408F2000330A5005C
:103E7C002508F30001300A168A156C260A168A15D5
:103E8C0000300A128A1504200A168A15CD30F90062
:103E9C009930FA000A168A15FD250A168A1514306F
:103EAC000A128A1504200A168A152C30F9009A3049
:103EBC00FA000A168A15FD250A168A150030F30039
:103ECC000030F2001330F1008830F0000A168A1529
:103EDC00CD250A168A150A168A15A5260A168A15DC
:103EEC0083120313D916D9197C2F7D2FFF2F0A1695
:103EFC008A15EA240A168A1500300A128A1504203B
:103F0C000A168A159B30F9009830FA000A168A15A1
:103F1C00FD250A168A1514300A128A1504200A1671
:103F2C008A159A30F9009930FA000A168A15FD257F
:103F3C000A168A150310003003180130F1008312A1
:103F4C0003132608A4002408F2000330A50025085A
:103F5C00F30002300A168A156C260A168A150A1600
:103F6C008A15A5260A168A1583120313D919BF2F91
:103F7C00C02FFF2F0A168A15EA240A168A1500305C
:103F8C000A128A1504200A168A159B30F9009830FB
:103F9C00FA000A168A15FD250A168A1514300A121B
:103FAC008A1504200A168A15AB30F9009930FA00EC
:103FBC000A168A15FD250A168A15031000300318F7
:103FCC000130F100831203132608A4002408F20028
:103FDC000330A5002508F30003300A168A156C2659
:103FEC000A168A150A168A15A5260A168A15FF2F8F
:043FFC00FF2F08008B
:02400E00323F3F
:00000001FF
